:020000040800F2
:1000000040050020D9010008B3100008110F0008B6
:10001000B1100008C10200088D14000800000000A3
:10002000000000000000000000000000D7100008E1
:10003000C302000800000000D5100008D910000815
:10004000F3010008F3010008F3010008F3010008C0
:10005000F3010008F3010008F3010008F3010008B0
:10006000F3010008F3010008F3010008F3010008A0
:10007000F3010008F3010008F3010008F301000890
:10008000F3010008F3010008F3010008F301000880
:10009000F3010008F3010008F3010008F301000870
:1000A000F3010008F3010008F3010008F301000860
:1000B000F3010008F3010008F3010008F301000850
:1000C000F3010008F3010008F3010008F301000840
:1000D000F3010008F3010008F3010008F301000830
:1000E000F3010008F3010008F3010008F301000820
:1000F000F3010008F3010008F3010008F301000810
:10010000F3010008F3010008F3010008F3010008FF
:10011000F3010008F3010008F3010008F3010008EF
:10012000F3010008F3010008F3010008F3010008DF
:10013000F30100080000000000000000F3010008C7
:10014000F3010008F3010008F3010008F3010008BF
:10015000F3010008F3010008F3010008F3010008AF
:10016000F3010008F3010008F3010008F30100089F
:10017000F3010008F3010008F3010008000000008B
:1001800000000000F3010008000000000000000073
:10019000F30100080000000000000000F301000867
:1001A000000000000000000000000000F301000853
:1001B000F3010008F3010008F3010008F30100084F
:1001C000F3010008DFF80CD000F068F800480047A1
:1001D000AD14000840050020064880470648004747
:1001E000FEE7FEE7FEE7FEE7FEE7FEE7FEE7FEE7E7
:1001F000FEE7FEE78D110008C50100082DE9F05F5C
:100200000546002092469B46884606468146402485
:100210001BE0284641464746224600F02FF8534649
:100220005A46C01A914110D311461846224600F092
:1002300016F82D1A67EB01084F46224601200021CF
:1002400000F00DF817EB00094E41201EA4F1010447
:10025000DFDC484631462A464346BDE8F09F202A67
:1002600004DB203A00FA02F1002070479140C2F10D
:10027000200320FA03F3194390407047202A04DB3F
:10028000203A21FA02F00021704721FA02F3D0400F
:10029000C2F120029140084319467047064C074DB1
:1002A00006E0E06840F0010394E807009847103446
:1002B000AC42F6D3FFF78AFF4C1500086C15000816
:1002C000FEE7704770B5040003D094F8200010B129
:1002D00004E0012070BD204600F082F8206801682B
:1002E00021F00201016000F0A7F90546052604E0AF
:1002F00000F0A2F9401B0A2811D820684068800746
:10030000F6D42068016841F00101016000F094F921
:1003100005460BE000F090F9401B0A2806D9606AF8
:1003200040F40030606284F82060D2E720684068C2
:10033000C007EFD0207E0128206801683DD021F061
:1003400080010160607E01282068016838D021F0BA
:1003500040010160A07E01282068016833D021F0AF
:1003600020010160E07E0128206801682ED041F064
:1003700010010160207F01282068016829D021F048
:1003800008010160607F01282068016824D021F005
:1003900004010160D4E902010843D4E904121143C5
:1003A00008436168491E08432168C86100206062F3
:1003B000012084F82000002070BD41F08001C0E7DA
:1003C00041F04001C5E741F02001CAE721F01001EA
:1003D000CFE741F00801D4E741F00401D9E700007C
:1003E000F0B5224ADFF880C00768116802230324B1
:1003F00009251F480026491C87B0674511D11160A7
:10040000012907D1016841F000710160006800F026
:10041000007005904FF4C0508DE8490069461548BA
:100420001CE0DFF854C067451CD1076847F08067BF
:1004300007600768012907F080670597116007D1F9
:10044000016841F000710160006800F000700590E3
:100450004FF440508DE8490008486946CDE903450E
:1004600000F00EF807B0F0BD00640040000000206E
:100470004038024000000240006800400004024092
:100480002DE9F84FDFF874B100224FF001084FF06A
:10049000030A4FF00F090BF1040E00BF0B6808FAB6
:1004A00002F42340A3426ED14D68022D01D0122DDB
:1004B0000ED1D50800EB850CDCF820505607F70E5E
:1004C00009FA07F6B5430E69BE402E43CCF820600A
:1004D000066855000F790AFA05FC07F0030726EABB
:1004E0000C06AF40374307604E68012E05D0022E40
:1004F00003D0112E01D0122E0ED18668CF6826EAC5
:100500000C06AF40374387604668A6430C79C4F3B6
:100510000014944034434460C4688E6824EA0C0498
:10052000AE402643C6604C68E40060D5344C256874
:1005300045F480452560246822F0030504F48044D6
:100540000094304C2E19D6F8084895072F0F09FA59
:1005500007F5AC432C4DA84201D100251FE02B4DDF
:10056000A84201D101251AE0294DA84201D1022556
:1005700015E0284DA84201D1032510E0264DA842E0
:1005800002D104250BE032E0244DA84201D105251B
:1005900005E0234DA84201D1062500E00725BD4016
:1005A0002543C6F80858DBF800405D464E689C437A
:1005B000F60300D51C432C60DEF8004075464E68FB
:1005C0009C43B60300D51C432C600C4D08352C68A9
:1005D0004E689C43F60200D51C432C60074D0C3539
:1005E0002C684E689C43B60200D51C432C60521CFC
:1005F000102AFFF453AFBDE8F88F0000003C014023
:100600004438024000300140000002400004024033
:1006100000080240000C024000100240001402409A
:100620000018024042694A40426170470AB1816144
:1006300070470904FBE7000001488068704700002C
:1006400004000020024881680278114481607047EC
:10065000040000200B4810B5016841F400710160EE
:10066000016841F480610160016841F480710160BA
:10067000032000F08BF8002000F006F800F024F8CA
:10068000002010BD003C024070B50D4D04464FF4F3
:100690007A712878B1FBF0F00A490968B1FBF0F0F3
:1006A00000F0B9FB48B9102C07D200222146501E99
:1006B00000F04CF800206C6070BD012070BD00009F
:1006C00004000020100000201F4808B5016841F414
:1006D00080410160006800F4804000901A48001FCB
:1006E000016841F080510160006800F08050009086
:1006F000032000F04BF8002211466FF00B0000F0D1
:1007000025F8002211466FF00A0000F01FF80022C1
:1007100011466FF0090000F019F800221146501F31
:1007200000F014F800221146101F00F00FF800220C
:100730001146901E00F00AF80022BDE8084011465C
:10074000501E00F003B8000044380240F0B40E4BD5
:100750001B680C46C3F30223C3F10705042D00D91F
:100760000425191D072901D2002300E0DB1E012604
:1007700006FA05F1491E214099409E40761E16401A
:100780003143F0BC00F096BC0CED00E0064900F0EF
:10079000070208684FF6FF03184040EA0220034AA8
:1007A00010430860704700000CED00E00000FA05FF
:1007B0002DE9F0470E46050065D0DFF81481D8F822
:1007C0000000F7B200F00F00B04207D288F80070C6
:1007D000D8F8000000F00F00B04254D128683D4C1A
:1007E000810712D5400703D5206840F4E05020600F
:1007F0002878000703D5206840F460402060206816
:10080000A96820F0F000084320602878C0072DD0A8
:10081000304968680839012812D0022813D003280B
:1008200011D00968890700292DDA216821F0030118
:1008300001432160FFF700FF814641F2883A0EE054
:1008400009688903EFE709688901ECE7FFF7F4FE1F
:10085000A0EB0901514502D90320BDE8F0872068CB
:10086000696800F00C00B0EB810FEFD1D8F80010F0
:10087000404601F00F01B14207D90770006800F04F
:100880000F00B04201D00120E7E72878400705D5E6
:100890002068E96820F4E0500843206028780007C9
:1008A00006D52068296920F4604040EAC100206034
:1008B00000F03CF82168084AC1F30311515CC840BC
:1008C000064908600020FFF7DFFE0020C5E70000B2
:1008D000003C024008380240341500081000002097
:1008E00001480068704700001000002004480549D6
:1008F00000680968044AC1F38221515CC84070470E
:10090000100000200838024044150008044805493A
:1009100000680968044AC1F34231515CC84070471D
:10092000100000200838024044150008224810B585
:10093000006810F00C02214815D02149042A11D07A
:100940001D4C241F082A0FD00C2A0CD122682368C2
:1009500002F03F025B0221D52068C0F38810A0FBA3
:10096000010120E0084610BD2268236802F03F0222
:100970005B0205D52068C0F38810A0FB010104E0EC
:100980002168C1F38811A1FB00010023FFF736FCA9
:100990002168C1F30141491C49000AE02168C1F303
:1009A0008811A1FB00010023FFF728FC2168C1F397
:1009B0000271B0FBF1F010BD083802400024F400D1
:1009C00080BA8C012DE9F84F0546DFF828B300788E
:1009D000ABF10407C007A7F1040451D0DBF8001005
:1009E0005846C1F3810101290FD00168C1F381018B
:1009F000022902D13968490207D40068C0F3810096
:100A0000032809D13868400206D52068800337D50D
:100A10006868002872D033E06868B0F5803F10D075
:100A2000B0F5A02F206810D020F48030206020681E
:100A300020F4802020606868A8B1FFF7FDFD06461D
:100A40000DE0206840F48030F4E740F4802020601E
:100A5000F7E700BFFFF7F0FD801B642878D8206817
:100A60008003F7D50CE0FFF7E7FD064605E000BF81
:100A7000FFF7E2FD801B6428F0D820688003F7D4DC
:100A80002878DFF8749280074FF0000A46D5DBF82B
:100A90000010584611F00C0F0FD00168C1F381010E
:100AA000022902D13968490207D50068C0F38100E4
:100AB000032809D13868400206D42068800715D57C
:100AC000E86801281AD111E0E868C0B10120C9F82E
:100AD0000000FFF7B1FD064605E000BFFFF7ACFDE3
:100AE000801B0228BAD820688007F7D520682969BA
:100AF00020F0F80040EAC10020600FE0F7E0C9F8FC
:100B000000A0FFF799FD064605E000BFFFF794FD42
:100B1000801B02281CD820688007F7D4287800079B
:100B200027D5DFF8D0817548696908F16C0881B173
:100B300001210160FFF780FD064604E0FFF77CFD20
:100B4000801B022804D8D8F800008007F6D510E0F2
:100B500089E0C0F800A0FFF76FFD064605E000BF82
:100B6000FFF76AFD801B02287DD8D8F800008007B7
:100B7000F6D42878400769D55E484FF00008383031
:100B80000068C0000BD45B483830016841F08051E8
:100B9000016000684FF0010800F080500090584E4E
:100BA0003068C00511D4306840F480703060FFF7C1
:100BB00043FD009006E000BFFFF73EFD0099401A9C
:100BC000022850D83068C005F6D54A4EA868683665
:100BD00001280FD00528306810D020F001003060C7
:100BE000306820F004003060A868B8B1FFF724FD39
:100BF00000900FE0306840F00100F4E740F004009E
:100C00003060F7E7FFF718FD0099411A41F288308C
:100C1000814264D830688007F4D50EE0FFF70CFD00
:100C2000009007E0FFF708FD0099411A41F2883073
:100C3000814254D830688007F4D4B8F1000F05D051
:100C40002C483830016821F080510160A869A8B3B0
:100C5000DBF80010C1F38101022948D00228C9F84D
:100C600060A005D000E03AE0FFF7E6FC054639E079
:100C7000FFF7E2FC064604E0FFF7DEFC801B0228DB
:100C80002DD820688001F7D4F5E907010843E96809
:100C90001C4A490802EB0141AA6841EA8211084353
:100CA000297C40EA0160297D40EA0170386001201A
:100CB000C9F86000FFF7C0FC054606E015E000BF7C
:100CC000FFF7BAFC401B022809D820688001F7D53D
:100CD0000BE000BFFFF7B0FC401B022802D9032045
:100CE000BDE8F88F20688001F4D40020F8E70120E7
:100CF000F6E700000838024000004742800E4742F5
:100D0000007000400000FFFF70B5040005D0002512
:100D1000A56294F8510010B106E0012070BD84F87E
:100D20005050204600F030F8022084F8510020682E
:100D3000016821F040010160D4E901010843D4E9D0
:100D400003121143084361690843218B01F40071C8
:100D50000843E1690843216A0843A16A08432168FE
:100D60000860A069042101EA1040616A0843216813
:100D700048602068C16921F40061C1616565012096
:100D800084F85100002070BD2DE9F041006817493A
:100D900086B0884226D116480025016841F480417A
:100DA00001600068022400F480400094059003264E
:100DB0000720CDE90360DFF83C8069464046CDE975
:100DC0000145FFF75DFB042005278DE8F10069462A
:100DD0004046FFF755FB60028DE8F1006946064882
:100DE000FFF74EFB06B0BDE8F08100000038004080
:100DF0004038024000080240000402404FF0E02169
:100E00000428086903D020F004000861704740F00E
:100E10000400FAE7704710B5401EB0F1807F01D39F
:100E2000012010BD4FF0E02460610F21601700F039
:100E300041F90020A06107202061002010BD10B5FD
:100E4000FFF7E8FF10BD70B5040004D094F8390036
:100E5000002510B106E0012070BD84F8385020460E
:100E600000F022F8242084F839002068C16821F4B9
:100E70000051C160204600F0B3F92068016921F4F7
:100E8000904101612068416921F02A014161206897
:100E9000C16841F40051C160E563202084F8390045
:100EA00084F83A00002070BD70B5154E016802222A
:100EB000012303240725134886B0B1420AD1124901
:100EC0000E6846F010060E60096801F010010591E9
:100ED00061020DE00D4EB1420FD10B49091F0E68A2
:100EE00046F400360E60096801F4003105910C21CA
:100EF0008DE83E006946FFF7C3FA06B070BD0000FA
:100F0000001001400000024044380240004400400C
:100F1000FEE700000C4810B50A490160102141604D
:100F200000218160C1600161416101764176817675
:100F3000C17601774177FFF7C5F9002800D0FEE7B9
:100F400010BD000000640040140000200C4810B5E3
:100F50000A4901601021416000218160C160016186
:100F60004161017641768176C17601774177FFF75D
:100F7000A9F9002800D0FEE710BD0000006800407D
:100F80003C0000202DE9F04F354887B0002401686F
:100F900041F004010160016801F00401059101685C
:100FA00041F001010160016801F001010591016852
:100FB00041F0020101600068DFF8A89000F0020033
:100FC00048F2F0060590002231464846FFF72EFB16
:100FD000DFF894A04FF4A867002239465046FFF787
:100FE00025FBDFF888B04FF46E7800224146584662
:100FF000FFF71CFB42F23000CDE900046946504681
:101000000294FFF73DFA0125CDE9005469464846B0
:101010000294FFF735FA0096CDE901546946484637
:101020000394FFF72DFA0720CDE9000469465846DE
:101030000294FFF725FA0097CDE90154694650461E
:101040000394FFF71DFACDF80080CDE901546946FD
:1010500058460394FFF714FA07B0BDE8F08F00007C
:101060003038024000000240000802400004024004
:101070000E4810B50C4901604FF4827141600021A7
:101080008160C1604FF400720161C0E90512C16165
:101090000162416281620A21C162FFF735FE0028C8
:1010A00000D0FEE710BD00000038004064000020C2
:1010B000FEE770470907090E002806DA00F00F0066
:1010C00000F1E02080F8141D704700F1E02080F866
:1010D000001470477047704710B5FFF7B3FABDE8CA
:1010E0001040FFF7ACBE000030B5264893B0002496
:1010F000016841F080510160006800F0805012905A
:101100002148016821F4404141F4804101600068B8
:10111000022500F440401290012003901020009519
:1011200006950490CDE907404FF4A870099004207B
:101130000A900320CDE90B056846FFF743FC00B198
:10114000FEE70F20CDE90D054FF48050CDE90F40AB
:1011500002210DA81194FFF72BFB00B1FEE7FFF76A
:10116000BFFB4FF47A71B0FBF1F0FFF754FE04209F
:10117000FFF744FE00221146501EFFF7E7FA13B0B6
:1011800030BD000040380240007000401048016847
:1011900041F4700101600F48016841F001010160F4
:1011A0000C4A00210832116002680B4B1A400260A1
:1011B000031D0A4A1A60026822F480220260054870
:1011C0000C30016002495806803908607047000001
:1011D00088ED00E000380240FFFFF6FE10300024EA
:1011E0002DE9F04104460068016921F44052E168AC
:1011F000114301612168C86849F20C629043236978
:10120000A268E5691A4363692B431A430243CA6023
:101210002168486920F44072A06910434861E1697F
:101220006425B1F5004F9748974A21684FF032087E
:101230003FD0914201D081427CD1FFF767FB00EBA8
:10124000C00101EB001061688900B0FBF1F6FFF707
:101250005DFB00EBC00101EB001061688900B0FB91
:10126000F1F0B0FBF5F06FF01801484306EB800198
:1012700008EB0110B0FBF5F000F0F006FFF746FBBD
:1012800000EBC00101EB001061688900B0FBF1F0D8
:10129000B0FBF5F006EB0016FFF738FB00EBC001E2
:1012A00001EB001061688900B0FBF1F7FFF72EFB3E
:1012B000D2E0914201D081423DD1FFF727FB00EB04
:1012C000C00101EB001061684900B0FBF1F0B0FB18
:1012D000F5F00601FFF71AFB00EBC00101EB00106F
:1012E00061684900B0FBF1F7FFF710FB00EBC001AC
:1012F00001EB001061684900B0FBF1F0B0FBF5F0C4
:101300006FF01801484307EB800108EBC100B0FB08
:10131000F5F000F0F80006EB4006FFF7F7FA00EBF7
:10132000C00101EB001061684900B0FBF1F7FFF765
:10133000EDFA3CE055E0FFF7D9FA00EBC00101EB14
:10134000001061684900B0FBF1F0B0FBF5F0060158
:10135000FFF7CCFA00EBC00101EB00106168490017
:10136000B0FBF1F7FFF7C2FA00EBC00101EB001090
:1013700061684900B0FBF1F0B0FBF5F06FF01801C7
:10138000484307EB800108EBC100B0FBF5F000F02B
:10139000F80006EB4006FFF7A9FA00EBC00101EBED
:1013A000001061684900B0FBF1F7FFF79FFA00EB0E
:1013B000C00101EB001061684900B0FBF1F0B0FB27
:1013C000F5F06FF01801484307EB800108EBC1000E
:1013D000B0FBF5F000F00700216830448860BDE8FC
:1013E000F081FFF783FA00EBC00101EB00106168A8
:1013F0008900B0FBF1F6FFF779FA00EBC00101EBD1
:10140000001061688900B0FBF1F0B0FBF5F06FF0FF
:101410001801484306EB800108EB0110B0FBF5F022
:1014200000F0F006FFF762FA00EBC00101EB0010DC
:1014300061688900B0FBF1F0B0FBF5F006EB001637
:10144000FFF754FA00EBC00101EB0010616889005E
:10145000B0FBF1F7FFF74AFA00EBC00101EB001017
:1014600061688900B0FBF1F0B0FBF5F06FF0180196
:10147000484307EB800108EB0110B0FBF5F000F0EA
:101480000F00A9E70014014000100140FEE702E050
:1014900008C8121F08C1002AFAD1704770470020FF
:1014A00001E001C1121F002AFBD17047FFF7D2F8FB
:1014B000FFF71AFEFFF766FDFFF72CFD1A481949E2
:1014C0004FF4E13500240160C0E901540C26C460EA
:1014D000C0E904468461C461FFF7B5FC00B1FEE7D2
:1014E0001148124940300160C0E90154C460C0E9AC
:1014F00004468461C461FFF7A6FC00B1FEE7FFF774
:10150000B7FDFFF723FD0A4C20212046FFF78AF89C
:1015100040212046FFF786F880212046FFF782F819
:10152000FEE7000000100140BC0000200044004025
:10153000000002400000000000000000010203045F
:101540000607080900000000010203046C150008EA
:1015500000000020140000008E1400088015000810
:10156000140000202C0500009E140008000000005C
:101570000100000010000000000000000024F40042
:04000005080001C529
:00000001FF
