:020000040800F2
:10000000E00B0020910C0008490D0008490D000884
:10001000490D0008490D0008490D0008490D000868
:10002000490D0008490D0008490D0008490D000858
:10003000490D0008490D0008490D0008150B00087E
:10004000490D0008490D0008490D0008490D000838
:10005000490D0008490D0008490D0008490D000828
:10006000490D0008490D0008490D0008490D000818
:10007000490D0008490D0008490D0008490D000808
:10008000490D0008490D0008490D0008010300084A
:100090006D030008F9030008490D0008490D000828
:1000A000490D0008490D0008490D0008490D0008D8
:1000B000490D0008490D0008490D0008B10F00085E
:1000C000110E000875160008D5140008490D000827
:1000D000490D00081D1B0008B11C0008490D00084F
:1000E000490D0008490D0008490D0008490D000898
:1000F000490D0008490D0008490D0008490D000888
:10010000490D0008490D0008490D0008490D000877
:10011000490D0008490D0008490D0008490D000867
:10012000490D0008490D0008490D0008490D000857
:10013000490D0008490D0008490D0008D9060008BE
:1001400045070008D1070008490D0008490D0008BF
:10015000490D0008490D0008490D0008490D000827
:10016000490D0008490D0008490D0008490D000817
:10017000490D0008490D0008490D0008490D000807
:10018000490D0008490D0008490D0008490D0008F7
:10019000490D0008490D0008490D0008490D0008E7
:1001A000490D0008490D0008490D0008490D0008D7
:1001B000490D0008490D0008490D0008490D0008C7
:0401C000490D0008DD
:1001D0007047016000224260704708B5092906D8BF
:1001E0003031C9B2006803689B68984708BD373151
:1001F000C9B2F7E738B505460C460909FFF7EDFF28
:1002000004F00F012846FFF7E8FF38BD38B5054672
:100210000C46217821B12846FFF7ECFF0134F8E7BE
:1002200038BD70B506460C46002507E03068036807
:100230009B68312198476400E4B20135072D08D846
:1002400014F0800FF2D1306803689B683021984722
:10025000F1E770BD38B505460C46217821B1284636
:10026000FFF7DFFF0134F8E738BD090101F18041F4
:1002700001F5CB41037B13F0020F17D00368DB00BD
:1002800043F004030B60037B13F0010F03D00B68F2
:1002900043F002030B60437B4B6043688B608368D1
:1002A000CB600B6843F001030B60704703685B058C
:1002B0000B60E8E70901114BCA18CB5813F0040F83
:1002C00014D1590D0160017B6FF341010173C3F338
:1002D0004003017B63F300010173536803F00F03D4
:1002E000437393684360D36883607047D9080160A3
:1002F000017B41F002010173E9E700BFB0650040F6
:10030000184B9B6813F4803F1DD0164B4FF480327E
:100310009A600221144B1A78D2B25B78DBB29A420F
:100320001FD010B5104C607804EB00100430FFF7BC
:100330009CFF94F901300133DBB2202B00D900235C
:10034000094A537010BD13F4807F05D0054B4FF45C
:1003500080729A600121DDE7024B01229A60002140
:10036000D8E77047006400406C0E0020F0B585B0FF
:100370001E4BDB6813F0100F06D01D4B1B681220BC
:1003800098471A4B3022DA60002100919DF80C301A
:1003900003F0FE0343F002038DF80C308DF80D10CE
:1003A0006846FFF787FF114B2022DA60114B19785E
:1003B0004BB20133DBB2934200D900230D4A52788D
:1003C000D2B29A4205D10A4B1B681220984705B059
:1003D000F0BD084F07EB01146D4607CD6060A160CA
:1003E000E2602A8822823B70F1E700BF006400408F
:1003F000E00B0020580C0020F0B585B01E4B1B69A7
:1004000013F0100F06D01D4B1B68132098471A4B92
:1004100030221A61002200929DF80C3003F0FE0396
:1004200043F002038DF80C308DF80D200121684651
:10043000FFF740FF104B20221A61114B19784BB285
:100440000133DBB2934200D900230D4A5278D2B275
:100450009A4205D1094B1B681320984705B0F0BD9F
:10046000074F07EB01146D4607CD6060A160E260A5
:100470002A8822823B70F1E700640040E00B0020F4
:10048000580C0020002303704370031D2021002915
:1004900010DB10B400241C601A7B02F0FE0242F054
:1004A00002021A735C73103301390029F2DA5DF825
:1004B000044B704770470000012800D0704708B512
:1004C0004FF6FF73994200D008BD0348FFF7DAFFEB
:1004D0000248FFF7D7FFF7E76C0E0020580C00200A
:1004E00008B54FF6FF710120FFF7E6FF08BD0901CF
:1004F00001F1804101F5D341037B13F0020F17D0C6
:100500000368DB0043F004030B60037B13F0010F6F
:1005100003D00B6843F002030B60437B4B604368DE
:100520008B608368CB600B6843F001030B607047FE
:1005300003685B050B60E8E70901114BCA18CB584B
:1005400013F0040F14D1590D0160017B6FF34101C9
:100550000173C3F34003017B63F30001017353682C
:1005600003F00F03437393684360D368836070475D
:10057000D9080160017B41F002010173E9E700BF86
:10058000B06900402DE9F04107460D4690461E46F1
:100590009DF81C104B4B1B6C13F0007F0CD1494B8A
:1005A0001A6C42F000721A641A6A42F000721A62FF
:1005B0001A6A22F000721A62424B1A6C42F0806290
:1005C0001A641A6A42F080621A621A6A22F0806221
:1005D0001A623D4A136843F4004313603A4B1B68A8
:1005E00013F4004FFAD1384A136823F00203136062
:1005F000B9B1136843F044031360334A136843F0FE
:100600000103136042F210732F4A526812F0010F77
:100610000ED15C1E002B0ADD012001F0FDFE2346F9
:10062000F2E7294A136843F04C031360E5E72346D9
:10063000002B2FDD244B48225A615A6942F00102F7
:100640005A613601F6B2214A82F8406382F841636A
:1006500001219160022191604FF00041516082F8C8
:100660003F635A6942F012025A6108F1FF32013DBC
:100670004FEA054848EA0258069A48EA0208013F4C
:1006800048EA0707DF611A6822F001021A6042F2A5
:10069000107305E002210E4800F05AFACAE713462B
:1006A000094A526812F0010F03D05A1E002BF6DCE3
:1006B0001346002B01DDBDE8F0810221054800F062
:1006C00047FAF8E7003802400068004000E100E027
:1006D0005422000868220008184B9B6813F4803FDE
:1006E0001DD0164B4FF480329A600221144B1A78B9
:1006F000D2B25B78DBB29A421FD010B5104C607852
:1007000004EB00100430FFF7F2FE94F901300133DE
:10071000DBB2202B00D90023094A537010BD13F41B
:10072000807F05D0054B4FF480729A600121DDE790
:10073000024B01229A600021D8E770470068004010
:1007400094120020F0B585B01E4BDB6813F0100F3B
:1007500006D01D4B1B68122098471A4B3022DA60D6
:10076000002100919DF80C3003F0FE0343F00203DA
:100770008DF80C308DF80D106846FFF7DDFE114B3B
:100780002022DA60114B19784BB20133DBB293426D
:1007900000D900230D4A5278D2B29A4205D10A4BB1
:1007A0001B681220984705B0F0BD084F07EB0114F5
:1007B0006D4607CD6060A160E2602A8822823B70AE
:1007C000F1E700BF00680040E00B0020801000202F
:1007D000F0B585B01E4B1B6913F0100F06D01D4BF2
:1007E0001B68132098471A4B30221A61002200928E
:1007F0009DF80C3003F0FE0343F002038DF80C303B
:100800008DF80D2001216846FFF796FE104B20223F
:100810001A61114B19784BB20133DBB2934200D904
:1008200000230D4A5278D2B29A4205D1094B1B6877
:100830001320984705B0F0BD074F07EB01146D4634
:1008400007CD6060A160E2602A8822823B70F1E7F8
:1008500000680040E00B0020801000200A4A136866
:1008600043F001031360084B5B6813F0010FFAD0EB
:10087000054AD36923F040431843D061136823F03D
:1008800001031360704700BF0068004028B9064AA2
:10089000136843F0100313607047034A136823F092
:1008A00010031360704700BF00680040064B1B78C0
:1008B0000133DBB2202B00D90023034A5078C0B2A9
:1008C000C01A18BF0120704794120020012800D0E0
:1008D000704708B54FF6FF73994200D008BD034832
:1008E000FFF7D0FD0248FFF7CDFDF7E79412002097
:1008F0008010002008B54FF6FF710120FFF7E6FFDA
:1009000008BD0000F0B401248440284DD5F80062F1
:1009100046F00106C5F80062D5F81C72E643374080
:10092000C5F81C7211F0020F2BD02F46D5F80452D7
:100930002543C7F8045211F0040F29D01B4FD7F8F4
:100940000C522543C7F80C5211F0010F27D117495B
:10095000D1F814522E40C1F814621449483041F8BD
:10096000302001EBC0004360D1F81C321C43C1F8B9
:100970001C42D1F8003223F00103C1F80032F0BC70
:1009800070470A4FD7F804523540C7F80452D2E7EF
:10099000064FD7F80C523540C7F80C52D4E7034D38
:1009A000D5F814122143C5F81412D6E700640040AC
:1009B000024608490B6843F001030B60054B1B68B6
:1009C00003F00203002B14BF0120002001D1013AE3
:1009D000F4D170470038024070B4049C174D6E6823
:1009E00026F0746626F45F3626F47F7626F003063A
:1009F000304301F03F01084347F6C07606EA82160D
:100A000006435A08013A120402F4403232439DF878
:100A10000C301B0603F070631A436A602B6843F0C6
:100A200080732B60054B186810F0007001D1013CF9
:100A3000F8D1003018BF012070BC70470038024068
:100A4000094A936823F00303034393608000064B35
:100A50009B6803F00C03834203D00139F7D10020D7
:100A600070470120704700BF00380240064AD36833
:100A700043F08073D360054B00225A601A6842F03D
:100A800001021A60704700BFF0ED00E0001000E0C6
:100A900010B440F63303994209D9B1F5166F13D358
:100AA00040F68B23994212D90621114C01E009210D
:100AB000104C0022134699420CD954F8232082424C
:100AC00008D20133DBB2F6E709210B4CF1E708212C
:100AD0000A4CEEE7824207D30948016821F00F0172
:100AE0000B4343F4E063036010465DF8044B70472A
:100AF000E42200087C220008A0220008C42200088A
:100B0000003C0240024A136818441060704700BF5E
:100B1000A814002008B50120FFF7F4FF024B1B6862
:100B200003B1984708BD00BFAC140020054B5860C6
:100B3000054AF02182F8231000229A6007221A60E9
:100B4000704700BF10E000E000ED00E070470000DB
:100B50002DE9F0470746894601F072FB01303C1849
:100B6000204601F06DFB01302618DFF8408001259A
:100B70000D4B984509D258F804AB4B4632462146F6
:100B80003846D0470543EDB2F2E7012D02D015F00B
:100B9000040F06D04B46324621463846FFF7D6FFB3
:100BA000FEE7BDE8F08700BF042400080424000825
:100BB00008B50021FFF7CCFF08BD0020704708B53D
:100BC00001F0E8FA08BD000000000000000000008D
:100BD0007047FEE710B5064C064A2146092000F092
:100BE00011F8236803B110BD0348FFF7E1FFFAE7EE
:100BF000B0140020B4140020FC22000808B501F055
:100C0000D1FA08BDF0B48C4600250D6015600D4B7F
:100C100002E0176035440C330B4CA34210D21C6821
:100C20000442F8D09F685C683E1B11688C42F0D08B
:100C3000B542F0D8CCF800409C6814603546EAE72D
:100C4000F0BC7047F424000800250008884211D247
:100C500010B409E014681C600433043284689C42B8
:100C6000F8D80C30884202D202684368F6E75DF893
:100C7000044B7047704706E000221A600433426854
:100C80009A42F9D80830884201D20368F7E77047E2
:100C900010B520492048FFF7D9FF20492048FFF729
:100CA000EAFF204BD3F8882042F47002C3F8882072
:100CB0001D4A9A605A6942F488725A61002307E01B
:100CC00003F1604202F56142FF2182F80013013313
:100CD000602BF5D91349CA6822F4E0621204120CA1
:100CE000124B1343CB60124C02E054F8043B98477C
:100CF000104B9C42F9D310491048FFF7A7FF104949
:100D00001048FFF7B8FFFFF765FF01F01FFA01F089
:100D1000FBF800BFF4240008E8240008E8240008D9
:100D2000E024000800ED00E0000000080003FA05E0
:100D3000FC23000804240008F4240008F42400081C
:100D4000F4240008F424000808B5EFF305810248F4
:100D5000FFF7FEFE08BD00BF582300080A4B5A6C7F
:100D600042F480425A64094A012111621A6B42F02E
:100D70008F021A631A6942F08F021A611A6922F00F
:100D80008F021A61704700BF0038024000380140EE
:100D90000023036001224260836000F10C030722FC
:100DA000002A05DB0021196059600833013AF7E792
:100DB00070474368062B05D8013343608368013BC5
:100DC0008360704700234360F8E70000012800D0EB
:100DD000704708B54FF6FF73994200D008BD084828
:100DE000FFF7D6FF074A002313705370064A1360BB
:100DF00053601372054A136053601372EEE700BF2D
:100E0000C4140020281500201C15002010150020F7
:100E100000B583B05B4B5B6913F4807F29D0594ADE
:100E2000136843F400731360574B05221A70574B35
:100E3000186818B103681B69012198470022534BB9
:100E40001A60504B196821F4006119605A619A6167
:100E50004F494A604F494A604F490A705A6822F424
:100E6000E0625A604D4B9B68002B00F082804C4B37
:100E700020E013F4806F0DD0424A136843F40073EE
:100E80001360484B1B781BB102223F4B1A70CEE710
:100E90000322FAE713F4007F03D03B4B04221A70BD
:100EA000C5E7394B1B78002BC1D1374B07221A708D
:100EB000BDE71346334A126812F4007F02D05A1E6F
:100EC000002BF6D1354A5368013302EBC3030433D8
:100ED00093E8030002AB03E903001046FFF769FF44
:100EE000019B33B1304A1268934202D02E4A1360FC
:100EF0009847009A254B1A60294B00E01346214A77
:100F0000126812F4007F02D05A1E002BF6D11D4B3E
:100F10009B6913F0020F14D0244B1B78012B10D0C7
:100F200042F2107300E01346164A926912F0020F63
:100F300002D05A1E002BF6D1124B9B6913F0020F00
:100F40001AD10022144B1A700F4B1A700D4B1968EE
:100F500021F4006119605A619A615A6822F4806232
:100F60005A605A6842F440725A601A6842F48072B9
:100F70001A6003B05DF804FB034B06221A70FFF7FA
:100F800047FFF6E700540040C2140020B8140020C8
:100F90001C15002010150020C1140020C4140020CE
:100FA000A086010028150020BC140020C0140020D9
:100FB00070B58CB0944B5C6914F0010F2BD114F018
:100FC000020F00F0D780EFF31083019372B68F4BBE
:100FD00000221A708E4B5B681BB98E4B5B68032B2B
:100FE00004D9894A536843F480635360894B5B6832
:100FF0002BB9874A526812B9874A02211170824A76
:101000009269012B00F09380022B00F0AD80019BD0
:1010100083F310884CE0814B186803685B6898473D
:101020007A4B1880C0F3072002282BD0032875D1F3
:101030007A4B19680B68DB6803AD28469847754EF4
:10104000334695E8070003C31A70754B1A7073682E
:10105000012B0AD96C4A136843F4806313606D4B0B
:101060005B68022B07D001221BE0674A136823F458
:1010700080631360F3E7644A136843F4006313600A
:1010800001220EE0654B19680B689B6806AD284687
:1010900098475F4B95E8070003C31A70604B1A70BE
:1010A00000225A4B1B7803F0FE031343564A136188
:1010B00014F0040F0ED0574B5B68022B00F09380A6
:1010C000544B5B68032B00F0C880534B1B78012BFB
:1010D00000F0D280504B1B78012B40F21681504A11
:1010E0001278012A00F0D180022A40F01681032BE9
:1010F00000F00881494B19680B689B6809AC2046D1
:101100009847434B94E8070003C31A70444B1A7086
:101110003D4A536843F480635360F3E000233C4A44
:1011200053603C4A53603E4A13701A46B9E7364A48
:10113000136843F4007313603A4B00E01346324ADD
:10114000126812F4007F02D05A1E002BF6D12E4BEB
:101150001969304B1A68501C1860117000225A60CF
:101160002D4B03221A7052E7274A136823F4806339
:1011700013604CE714F0800F18D0254B5B685BB10F
:10118000234A1168481C106008781F490861013B18
:101190005360214B01221A701D4B5B68002B87D1D5
:1011A000194A536823F48063536081E714F0400FB9
:1011B0003FF47EAF174B5B68032B09D9124B1969BB
:1011C000144B1A68501C186011705A68013A5A6022
:1011D000104B5B68032B3FF66BAF0B4A536823F44D
:1011E0008063536064E7EFF31083019372B6064B9C
:1011F0001A6842F400721A601969064A1368581C8A
:1012000010601970074B10E00054004028150020B2
:101210001C15002010150020C1140020B814002057
:10122000C0140020A086010013467D4A126812F403
:10123000007F02D05A1E002BF6D1794B1969794BE9
:101240001A68501C1860117000225A60764B0322F5
:101250001A70019B83F3108832E7714B1A6822F4ED
:1012600080621A6019696F4B1A68501C18601170FF
:101270005A68013A5A6028E76C4B5B68002B7FF490
:1012800029AF694B02221A7024E7694B00E013462C
:10129000634A126812F4007F02D05A1E002BF6D166
:1012A0005F4B9B6913F0020F14D0624B1B78012B2C
:1012B00010D042F2107300E01346594A926912F0BE
:1012C000020F02D05A1E002BF6D1554B9B6913F02A
:1012D000020F1CD10022544B1A70574B1A70504BFE
:1012E000196821F4006119605A619A615A6822F400
:1012F00080625A605A6842F440725A601A6842F436
:1013000080721A60484B00221A700CB070BD4A4BB4
:1013100006221A70FFF77CFDF4E7032B04D0404A45
:10132000136843F4007313603D4A536823F4E06389
:101330005360424B186818B103681B690021984735
:101340003E4B00221A603E4B9B68002BDAD0384B94
:1013500000E01346324A126812F4007F02D05A1E8F
:10136000002BF6D1364A5368013302EBC30301ACBC
:10137000043393E8030084E803001046FFF719FDE7
:10138000029B33B12F4A1268934202D02D4A136058
:101390009847019A294B1A60254B00E01346204AD2
:1013A000126812F4007F02D05A1E002BF6D11C4B9B
:1013B0009B6913F0020F14D01E4B1B78012B10D029
:1013C00042F2107300E01346154A926912F0020FC0
:1013D00002D05A1E002BF6D1114B9B6913F0020F5D
:1013E00018D10022104B1A70134B1A700C4B19684D
:1013F00021F4006119605A619A615A6822F480628E
:101400005A605A6842F440725A601A6842F4807214
:101410001A6077E7084B06221A70FFF7F9FC71E7AC
:101420000054004010150020C11400201C1500209D
:10143000A0860100C0140020C2140020B8140020AF
:10144000C4140020BC14002008B54FF6FF71012021
:10145000FFF7BCFC08BD00230360012242608360EB
:1014600000F10C030722002A05DB002119605960F6
:101470000833013AF7E770474368062B05D8013374
:1014800043608368013B8360704700234360F8E753
:10149000012800D0704708B54FF6FF73994200D07D
:1014A00008BD0848FFF7D7FF074A002313705370A1
:1014B000064A136053601372054A13605360137237
:1014C000EEE700BF381500209C1500209015002085
:1014D0008415002000B583B05B4B5B6913F4807FFB
:1014E00029D0594A136843F400731360574B0522FF
:1014F0001A70574B186818B103681B690121984787
:101500000022534B1A60504B196821F40061196096
:101510005A619A614F494A604F494A604F490A707F
:101520005A6822F4E0625A604D4B9B68002B00F031
:1015300082804C4B20E013F4806F0DD0424A136838
:1015400043F400731360484B1B781BB102223F4BDE
:101550001A70CEE70322FAE713F4007F03D03B4B67
:1015600004221A70C5E7394B1B78002BC1D1374BC9
:1015700007221A70BDE71346334A126812F4007F3F
:1015800002D05A1E002BF6D1354A5368013302EBC4
:10159000C303043393E8030002AB03E903001046DE
:1015A000FFF76AFF019B33B1304A1268934202D0C1
:1015B0002E4A13609847009A254B1A60294B00E089
:1015C0001346214A126812F4007F02D05A1E002BE3
:1015D000F6D11D4B9B6913F0020F14D0244B1B78DE
:1015E000012B10D042F2107300E01346164A9269A4
:1015F00012F0020F02D05A1E002BF6D1124B9B693B
:1016000013F0020F1AD10022144B1A700F4B1A70EC
:101610000D4B196821F4006119605A619A615A688A
:1016200022F480625A605A6842F440725A601A6822
:1016300042F480721A6003B05DF804FB034B06228B
:101640001A70FFF747FFF6E70058004036150020F4
:101650002C15002090150020841500203515002041
:1016600038150020A08601009C15002030150020B0
:101670003415002070B58CB0944B5C6914F0010FE8
:101680002BD114F0020F00F0D780EFF310830193F9
:1016900072B68F4B00221A708E4B5B681BB98E4B53
:1016A0005B68032B04D9894A536843F48063536011
:1016B000894B5B682BB9874A526812B9874A022165
:1016C0001170824A9269012B00F09380022B00F086
:1016D000AD80019B83F310884CE0814B1868036850
:1016E0005B6898477A4B1880C0F3072002282BD0FC
:1016F000032875D17A4B19680B68DB6803AD28465F
:101700009847754E334695E8070003C31A70754B2A
:101710001A707368012B0AD96C4A136843F480630A
:1017200013606D4B5B68022B07D001221BE0674AF8
:10173000136823F480631360F3E7644A136843F487
:101740000063136001220EE0654B19680B689B680B
:1017500006AD284698475F4B95E8070003C31A700B
:10176000604B1A7000225A4B1B7803F0FE031343A0
:10177000564A136114F0040F0ED0574B5B68022BCE
:1017800000F09380544B5B68032B00F0C880534BF0
:101790001B78012B00F0D280504B1B78012B40F2BC
:1017A0001681504A1278012A00F0D180022A40F0B6
:1017B0001681032B00F00881494B19680B689B6860
:1017C00009AC20469847434B94E8070003C31A70BE
:1017D000444B1A703D4A536843F480635360F3E00E
:1017E00000233C4A53603C4A53603E4A13701A46F9
:1017F000B9E7364A136843F4007313603A4B00E0CC
:101800001346324A126812F4007F02D05A1E002B8F
:10181000F6D12E4B1969304B1A68501C18601170A4
:1018200000225A602D4B03221A7052E7274A136890
:1018300023F4806313604CE714F0800F18D0254B1D
:101840005B685BB1234A1168481C106008781F4927
:101850000861013B5360214B01221A701D4B5B68EC
:10186000002B87D1194A536823F48063536081E7C2
:1018700014F0400F3FF47EAF174B5B68032B09D980
:10188000124B1969144B1A68501C186011705A6871
:10189000013A5A60104B5B68032B3FF66BAF0B4A63
:1018A000536823F48063536064E7EFF3108301937C
:1018B00072B6064B1A6842F400721A601969064A39
:1018C0001368581C10601970074B10E00058004056
:1018D0009C1500209015002084150020351500204F
:1018E0002C15002034150020A086010013467D4AE7
:1018F000126812F4007F02D05A1E002BF6D1794BE9
:101900001969794B1A68501C1860117000225A60CE
:10191000764B03221A70019B83F3108832E7714BD8
:101920001A6822F480621A6019696F4B1A68501C99
:10193000186011705A68013A5A6028E76C4B5B686E
:10194000002B7FF429AF694B02221A7024E7694B00
:1019500000E01346634A126812F4007F02D05A1E58
:10196000002BF6D15F4B9B6913F0020F14D0624B32
:101970001B78012B10D042F2107300E01346594A35
:10198000926912F0020F02D05A1E002BF6D1554B6D
:101990009B6913F0020F1CD10022544B1A70574B55
:1019A0001A70504B196821F4006119605A619A61EC
:1019B0005A6822F480625A605A6842F440725A604F
:1019C0001A6842F480721A60484B00221A700CB0F8
:1019D00070BD4A4B06221A70FFF77CFDF4E7032B1B
:1019E00004D0404A136843F4007313603D4A5368BF
:1019F00023F4E0635360424B186818B103681B6915
:101A0000002198473E4B00221A603E4B9B68002BFA
:101A1000DAD0384B00E01346324A126812F4007FE5
:101A200002D05A1E002BF6D1364A5368013302EB1E
:101A3000C30301AC043393E8030084E803001046B9
:101A4000FFF71AFD029B33B12F4A1268934202D06E
:101A50002D4A13609847019A294B1A60254B00E0E4
:101A60001346204A126812F4007F02D05A1E002B3F
:101A7000F6D11C4B9B6913F0020F14D01E4B1B7840
:101A8000012B10D042F2107300E01346154A926900
:101A900012F0020F02D05A1E002BF6D1114B9B6997
:101AA00013F0020F18D10022104B1A70134B1A704A
:101AB0000C4B196821F4006119605A619A615A68E7
:101AC00022F480625A605A6842F440725A601A687E
:101AD00042F480721A6077E7084B06221A70FFF70B
:101AE000F9FC71E7005800408415002035150020EE
:101AF00090150020A0860100341500203615002026
:101B00002C150020381500203015002008B54FF6A0
:101B1000FF710120FFF7BCFC08BD00001C4B1B68D7
:101B200013F0200F13D01A4B5868C0B2194B197814
:101B30004BB20133DBB2102B00D90023154A527887
:101B4000D2B29A4203D0134A114488701370104BDA
:101B50001B6813F0800F14D00F4B1A78D2B25B7849
:101B6000DBB29A420ED00C4A53781A449178084A54
:101B700051605BB20133DBB2FA2B00D90023064A75
:101B800053707047024AD36823F08003D3607047D4
:101B900000100140A0150020B415002000220270A2
:101BA000427070470022027042707047012800D0D6
:101BB000704708B54FF6FF73994200D008BD03483F
:101BC000FFF7ECFF0248FFF7EDFFF7E7A015002055
:101BD000B415002008B54FF6FF710120FFF7E6FFAE
:101BE00008BD00000001C0B2054B83F82603402267
:101BF0005A60044AD36843F02003D360704700BFA3
:101C000000E100E000440040194B1A78D2B25B7842
:101C1000DBB29A4220D0164B19784BB20133DBB2BB
:101C2000FA2B00D90023124A5278D2B29A421CD021
:101C300082B00F4A114488701370EFF31083019340
:101C400072B60C4AD36843F08003D360019B83F3E0
:101C50001088012002B07047064B1B6813F0800FFC
:101C6000D9D0044B5860012070470020704700BF56
:101C7000C8160020004400400C4B1A78D2B25B78A2
:101C8000DBB29A420FD0094B5A781A44927802700C
:101C900093F901300133DBB2102B00D90023034A42
:101CA0005370012070470020704700BFB416002019
:101CB0001C4B1B6813F0200F13D01A4B5868C0B28E
:101CC000194B19784BB20133DBB2102B00D900232A
:101CD000154A5278D2B29A4203D0134A11448870FE
:101CE0001370104B1B6813F0800F14D00F4B1A7831
:101CF000D2B25B78DBB29A420ED00C4A53781A44C7
:101D00009178084A51605BB20133DBB2FA2B00D9FB
:101D10000023064A53707047024AD36823F08003B9
:101D2000D360704700440040B4160020C81600205D
:101D3000012800D0704708B54FF6FF73994200D0D4
:101D400008BD0348FFF72AFF0248FFF72BFFF7E71C
:101D5000B4160020C816002008B54FF6FF71012008
:101D6000FFF7E6FF08BD7047704708B50846FFF764
:101D700083FF08BD10B50C46237833B12078FFF7F8
:101D800043FF0028FAD00134F6E710BD10B50C4629
:101D90002046FFF739FF0028FAD010BD10B50446E1
:101DA0000421FEF70CFF204610BD0000012800D0E2
:101DB00070474FF6FF739942FAD110B5064C074BA6
:101DC0002360074A07492046FEF7F7FE21460648EA
:101DD000FEF7FFF910BD00BFD017002074230008E4
:101DE000E40B0020671D0008C817002010B504464A
:101DF00043682BB1022B08D0FEF708FA204610BD2D
:101E000000680368DB689847F8E7FEF723FAF5E710
:101E10001D4B9A6822F0300242F020029A605A6804
:101E200022F004025A601A6822F0300242F01002D6
:101E30001A60DA6822F0C00242EA8010D8601A689C
:101E400022F0C0021A605A6822F008025A609A68AA
:101E500022F0C0029A601A6A22F4704242F4E04210
:101E60001A621A6822F0C00242F080021A601A6AEE
:101E700022F4706242F4E0621A621A6822F03002C0
:101E800042F020021A607047000002401D4B9A6821
:101E900022F0406242F000629A605A6822F40052D6
:101EA0005A601A6822F0406242F080621A60DA6872
:101EB00022F0407242EA0060D8601A6822F0407254
:101EC0001A605A6822F480525A609A6822F040726E
:101ED0009A605A6A22F4702242F410225A621A68F6
:101EE00022F0407242F000721A605A6A22F47002C4
:101EF00042F410025A621A6822F0406242F0006214
:101F00001A6070470004024000B583B04FF40060CF
:101F1000FEF74EFD4FF4006601960723009302235F
:101F20004FF4A87210210020FEF756FD744D40F6C4
:101F3000E4412846FEF7ACFD724CA36823F4E0535D
:101F400043F4A053A360A36823F4604343F4004325
:101F5000A36031460220FEF773FD6B4B1D606B4B97
:101F60006B4A1A606B4BA8221A806B4B12221A80A4
:101F70006A48FEF7DBFD6A4A4FF400139361136869
:101F800023F4406343F480631360664B1A6822F0C5
:101F900040621A605A6822F400525A609A6822F02D
:101FA00040629A600120FFF733FF236C43F4003353
:101FB0002364236A43F400332362236A23F4003347
:101FC0002362A4F5FA34E36843F40053E360E36862
:101FD00023F40053E36040F26D13A360E36823F43D
:101FE000B053E360E36823F40043E360E36843F441
:101FF0000053E3600C20FFF7F5FDE36843F00803AE
:10200000E360E36843F00403E360474C474920463C
:10201000FFF7ECFE206803689B680A219847206858
:1020200003681B699847002565602846FFF72EFF67
:102030000126019600950C2306220E211020FEF7A2
:10204000A1FA3046FEF722FC2846FEF707FC384985
:102050002046FFF7CBFE206803689B680A2198475B
:10206000206803681B6998476560062304221146AF
:102070000E20FEF747FC2F492046FFF7B7FE2068E9
:1020800003689B680A219847206803681B69984782
:10209000656009E0224B20229A61FEF707FC68B9CF
:1020A0004FF47A7000F0CCF91D4B5B6913F0200FF0
:1020B000F0D01B4B4FF400129A61EEE71A4B5B68AD
:1020C00093B1022B17D01C491748FEF79FF8164C06
:1020D000206803689B680A219847206803681B6989
:1020E000984700236360DBE70F4B18680368DB68E1
:1020F00011499847EBE710490B48FEF7ABF8E6E7C4
:10210000007A030A00380240540C0020500C0020D2
:10211000409002004E0C00204C0C00203F9002002A
:102120000000024000080240C81700208C2300086D
:10213000A4230008C4230008D023000808B54FF6E4
:10214000FF710120FFF732FE08BD000070B50D4E93
:102150000D4CA41BA4100025A54209D10B4E0C4C1C
:10216000FEF736FDA41BA4100025A54205D170BDC5
:1021700056F8253098470135EEE756F82530984750
:102180000135F2E7E0230008E0230008E02300081F
:10219000FC230008024B01461868FEF72FBD00BF64
:1021A000E80B002038B50546002945D051F8043C1D
:1021B0000C1F002BB8BFE41800F04AF81F4A136840
:1021C000104633B9636014602846BDE8384000F01B
:1021D00040B8A3420CD921686218934204BF1A6820
:1021E0005B68636004BF521822600460ECE713462A
:1021F0005A680AB1A242FAD919685818A0420BD1FC
:1022000020680144581882421960DDD11068526874
:102210005A6001441960D7E702D90C232B60D3E739
:10222000206821188A4204BF11685268626004BFA6
:10223000091821605C60C7E738BD00BFD4170020D3
:10224000034613F8012B002AFBD1181A01387047F6
:04225000704770471C
:1022540063616E00696E69740074696D656F75748D
:102264000000000063616E00696E69740074696D3A
:10227400656F757432000000002D3101005A62024E
:102284000087930300B4C40400E1F505000E27079A
:10229400003B580800688909007A030A80B14F019D
:1022A40000639F028014EF0300C63E0580778E060C
:1022B4000029DE0780DA2D09008C7D0A0095BA0A10
:1022C40000366E01006CDC0200A24A0400D8B80596
:1022D400000E270700449508007A030A0095BA0AFD
:1022E40080C3C90100879303804A5D05000E270758
:1022F40080D1F0080095BA0A636F72650068656161
:102304007000696E69740000636F726500686561CE
:1023140070007362726B0000636F726500686561C0
:1023240070006D616C6C6F6300000000636F726518
:1023340000686561700063616C6C6F63000000008D
:10234400636F72650068656170007265616C6C6FC3
:1023540063000000636F7265006E76696300756EDA
:10236400646566696E65640000000000000000009A
:10237400671D00089D1D00088D1D0008751D0008BF
:10238400691D00086B1D0008496E697469616C69F8
:102394007A696E672043616E322E2E2E0000000093
:1023A40053657474696E672075702046696C746532
:1023B4007220666F722043616E322E2E2E00000052
:1023C40048656C6C6F20776F726C64007265616431
:1023D4007920746F2073656E64000000E1040008C6
:1023E400F5080008491400080D1B0008D51B000857
:0823F400591D00083D210008FD
:0823FC006D0A00085D0D0008E8
:10240400034B1B8808225A43801AC01AFDD5704713
:102414004C0C0020034658B1064A52680649088805
:1024240000FB03F01938034B5B689B1A8342FADB09
:10243400704700BF001000E04E0C0020034658B166
:10244400064A52680649086800FB03F01938034B32
:102454005B689B1A8342FADB704700BF001000E000
:04246400500C0020F8
:10246800D1010008E40B0020EC0B00200000000064
:102478000000000000000000000000000000000054
:102488000000000000000000000000000000000044
:102498000000000000000000000000000000000034
:1024A8000000000000000000000000000000000024
:1024B8000000000000000000000000000000000014
:0C24C80000000000000000000000000008
:0C24D40077010800401F000000127A0091
:0824E000580C0020D817002061
:0C24E80068240008E00B00204C0C0020D1
:0C24F4000F000000D8170020000002209C
:0400000508000C9152
:00000001FF
