:020000040800F2
:1000000058090020D9010008AF170008C5150008DD
:10001000AD170008E50200086D1E00080000000092
:100020000000000000000000000000000F180008A1
:10003000E702000800000000D117000811180008AE
:10004000F3010008F3010008F3010008F3010008C0
:10005000F3010008F3010008F3010008F3010008B0
:10006000F3010008F3010008F3010008F3010008A0
:10007000F3010008F3010008F3010008F301000890
:10008000F3010008F3010008F3010008F301000880
:10009000F3010008F3010008F3010008F301000870
:1000A000F3010008F3010008F3010008F301000860
:1000B000F3010008F3010008F3010008F301000850
:1000C000F3010008F3010008F3010008F301000840
:1000D000F3010008F3010008F3010008F301000830
:1000E000F3010008F3010008F3010008F301000820
:1000F000F3010008F3010008F3010008F301000810
:10010000F3010008F3010008F3010008F3010008FF
:10011000F3010008F3010008F3010008F3010008EF
:10012000F3010008F3010008F3010008F3010008DF
:10013000F30100080000000000000000F3010008C7
:10014000F3010008F3010008F3010008F3010008BF
:10015000F3010008F3010008F3010008F3010008AF
:10016000F3010008F3010008F3010008F30100089F
:10017000F3010008F3010008F3010008000000008B
:1001800000000000F3010008000000000000000073
:10019000F30100080000000000000000F301000867
:1001A000000000000000000000000000F301000853
:1001B000F3010008F3010008F3010008F30100084F
:1001C000F3010008DFF80CD000F07AF8004800478F
:1001D0008D1E000858090020064880470648004741
:1001E000FEE7FEE7FEE7FEE7FEE7FEE7FEE7FEE7E7
:1001F000FEE7FEE7E1180008C50100082DE9F05F01
:100200000546002092469B46884606468146402485
:100210001BE0284641464746224600F041F8534637
:100220005A46C01A914110D311461846224600F092
:1002300028F82D1A67EB01084F46224601200021BD
:1002400000F01FF817EB00094E41201EA4F1010435
:10025000DFDC484631462A464346BDE8F09F40EA87
:1002600001039B0703D009E008C9121F08C0042A34
:10027000FAD203E011F8013B00F8013B521EF9D21B
:100280007047202A04DB203A00FA02F10020704770
:100290009140C2F1200320FA03F3194390407047C4
:1002A000202A04DB203A21FA02F00021704721FACB
:1002B00002F3D040C2F12002914008431946704732
:1002C000064C074D06E0E06840F0010394E80700A3
:1002D00098471034AC42F6D3FFF778FF541F00085C
:1002E000741F0008FEE7704770B5040003D094F84F
:1002F000200010B104E0012070BD204600F082F81B
:100300002068016821F00201016000F0B9F905469A
:10031000052604E000F0B4F9401B0A2811D8206833
:1003200040688007F6D42068016841F0010101604F
:1003300000F0A6F905460BE000F0A2F9401B0A28E0
:1003400006D9606A40F40030606284F82060D2E729
:1003500020684068C007EFD0207E0128206801682F
:100360003DD021F080010160607E01282068016895
:1003700038D021F040010160A07E0128206801688A
:1003800033D021F020010160E07E0128206801685F
:100390002ED041F010010160207F01282068016803
:1003A00029D021F008010160607F012820680168E0
:1003B00024D021F004010160D4E902010843D4E90A
:1003C0000412114308436168491E08432168C8614B
:1003D00000206062012084F82000002070BD41F000
:1003E0008001C0E741F04001C5E741F02001CAE7C4
:1003F00021F01001CFE741F00801D4E741F00401FA
:10040000D9E70000F0B5224ADFF880C0076811681C
:100410000223032409251F480026491C87B067458D
:1004200011D11160012907D1016841F0007101600B
:10043000006800F0007005904FF4C0508DE849004E
:10044000694615481CE0DFF854C067451CD10768B1
:1004500047F0806707600768012907F08067059704
:10046000116007D1016841F000710160006800F07F
:10047000007005904FF440508DE8490008486946E7
:10048000CDE9034500F020F807B0F0BD006400405E
:100490000000002040380240000002400068004098
:1004A0000004024070B5044600F0EAF80546601CFE
:1004B00002D004480078044400F0E2F8401BA04257
:1004C000FAD370BD040000202DE9F84FDFF874B1B5
:1004D00000224FF001084FF0030A4FF00F090BF113
:1004E000040E00BF0B6808FA02F42340A3426ED149
:1004F0004D68022D01D0122D0ED1D50800EB850CD0
:10050000DCF820505607F70E09FA07F6B5430E69D6
:10051000BE402E43CCF82060066855000F790AFAD9
:1005200005FC07F0030726EA0C06AF4037430760D7
:100530004E68012E05D0022E03D0112E01D0122EAE
:100540000ED18668CF6826EA0C06AF403743876035
:100550004668A6430C79C4F30014944034434460C5
:10056000C4688E6824EA0C04AE402643C6604C681A
:10057000E40060D5344C256845F480452560246846
:1005800022F0030504F480440094304C2E19D6F870
:10059000084895072F0F09FA07F5AC432C4DA842E0
:1005A00001D100251FE02B4DA84201D101251AE001
:1005B000294DA84201D1022515E0284DA84201D1BC
:1005C000032510E0264DA84202D104250BE032E0BD
:1005D000244DA84201D1052505E0234DA84201D1B3
:1005E000062500E00725BD402543C6F80858DBF87E
:1005F00000405D464E689C43F60300D51C432C60CA
:10060000DEF8004075464E689C43B60300D51C4397
:100610002C600C4D08352C684E689C43F60200D5C2
:100620001C432C60074D0C352C684E689C43B60269
:1006300000D51C432C60521C102AFFF453AFBDE8B8
:10064000F88F0000003C0140443802400030014077
:10065000000002400004024000080240000C02407A
:1006600000100240001402400018024042694A4053
:10067000426170470AB1816170470904FBE70000DD
:10068000014880687047000004000020024881682B
:100690000278114481607047040000200B4810B5B7
:1006A000016841F400710160016841F480610160FA
:1006B000016841F480710160032000F08BF8002094
:1006C00000F006F800F024F8002010BD003C0240C5
:1006D00070B50D4D04464FF47A712878B1FBF0F0F7
:1006E0000A490968B1FBF0F000F0EFFE48B9102CA0
:1006F00007D200222146501E00F04CF800206C600A
:1007000070BD012070BD000004000020100000201A
:100710001F4808B5016841F480410160006800F499
:10072000804000901A48001F016841F0805101602C
:10073000006800F080500090032000F04BF8002289
:1007400011466FF00B0000F025F8002211466FF003
:100750000A0000F01FF8002211466FF0090000F0B7
:1007600019F800221146501F00F014F8002211461B
:10077000101F00F00FF800221146901E00F00AF83A
:100780000022BDE808401146501E00F003B80000EA
:1007900044380240F0B40E4B1B680C46C3F30223EE
:1007A000C3F10705042D00D90425191D072901D21D
:1007B000002300E0DB1E012606FA05F1491E214058
:1007C00099409E40761E16403143F0BC00F0F0BFC9
:1007D0000CED00E0064900F0070208684FF6FF0341
:1007E000184040EA0220034A1043086070470000A6
:1007F0000CED00E00000FA0501220168C0F8F423C6
:10080000002280F8EC23886940F000608861486D20
:10081000024A1043486500207047000003000010A2
:10082000F0B58BB004004FF0000554D0032084F8DD
:10083000B903204600F05AF8206801F0D9FA04F113
:10084000100128220F466846FFF709FD94E80F00C3
:1008500001F0C6F90021206801F0F2FA012600201B
:10086000C5EBC50104EB810181F8396001F8385FFF
:10087000CD80C8708860C8606D1C48610F2DEFD3B3
:1008800000214FF4827300BFC1EBC10204EB82026E
:1008900003EB810582F8F90182F8F811D18782F81B
:1008A000FB01C2F80002C2F80402C2F80C0222687E
:1008B0005051491C0F29E7D3282239466846FFF7D3
:1008C000CEFC94E80F0001F0E9F984F8B963606A9E
:1008D000012803D005E001200BB0F0BD2046FFF752
:1008E0008BFF206801F0CEF90020F5E700B5006825
:1008F0000E4987B0884217D14FF440400090022043
:10090000019000200290032003900C20049069467F
:100910000748FFF7D9FD0748016841F00051016021
:10092000006800F00050059007B000BD00000440D2
:1009300000040240303802402DE9F84F04460026FA
:100940000078F84D3746C00708D02868A16B20F022
:10095000C06008432860A06B00B90126207880079A
:1009600008D52868E16B20F0C05008432860E06B90
:1009700000B90126207840070ED52868216B20F4A5
:10098000401008432860206BB0F5801F01D010B1E3
:1009900002E0012600E00127207800070ED5286834
:1009A000616B20F4400008432860606BB0F5800F55
:1009B00001D010B102E0012600E0012720784FF0BD
:1009C000000A80064FF0010B63D5D6484C38016809
:1009D00041F0805101600068DFF84C9300F08050D6
:1009E0000090D9F8001041F48071C9F80010FFF7A9
:1009F00047FE804606E000BFFFF742FEA0EB08007E
:100A000002286FD8D9F80000C005F5D5DFF81483A7
:100A1000A8F11C08D8F8000010F4407024D0B4F8F5
:100A2000401001F4407181421ED0D8F80010BF4A36
:100A300021F44071C2F800B0C2F800A0C8F800105C
:100A4000D8F80000C0070FD0FFF71AFE814607E074
:100A5000FFF716FEA0EB090141F288308142D0D8A1
:100A6000D8F800008007F3D5216CAE48C1F301220D
:100A70008438032A37D0016821F4F811C0F8001037
:100A8000D8F80010B4F84020C2F30B021143C8F8A4
:100A900000102078C00604D5A54894F85810C0F876
:100AA000E01120780106A34805D50168E26C21F425
:100AB0004001114301602178490605D50168A26C07
:100AC00021F08061114301602188C90514D50168B6
:100AD000626D21F0006111430160616DB1F1006F41
:100AE00009D009E01DE10268934B22F4F812194085
:100AF0000A430260C4E701272188890505D50168FA
:100B0000626C21F08051114301602188DFF82C9242
:100B1000490509D50168226D21F00051114301609A
:100B2000206DB0F1005F04D01EB92068B0F5006FF1
:100B30007ED18349C1F868A0FFF7A2FD794E8046B7
:100B40008C3E05E0FFF79CFDA0EB0800022886D84C
:100B500030680001F6D421687A48CA0701D0A26B38
:100B60001AB1890717D5E16BA9B901680268C1F309
:100B70000141491CD4E9013C43EA8C1321F0004CAB
:100B8000C2F3036209EB0C4141EA02610B43217D90
:100B900043EA0171016021684A0703D5226BB2F56F
:100BA000801F05D0090721D5616BB1F5800F1DD1DC
:100BB00001680268C1F30141491CD4E9013C43EAE0
:100BC0008C1321F0004C09EB0C4194F810C0C2F3D7
:100BD000027241EA0C610B4343EA02710160296829
:100BE000A26A21F01F01521E114329602188490584
:100BF0001AD5216DB1F1005F16D101680268C1F309
:100C00000141491CD4E9013C43EA8C13D4F80CC0DF
:100C1000C2F302724FEA5C0809EB084C4CEA4161EE
:100C20000B4343EA027101602188090511D500E0F8
:100C30001FE0D4E9011241EA8211E268530809EB8E
:100C40000342237C42EA03621143227D41EA02719E
:100C500001603B49C1F868B0FFF712FD804605E02E
:100C6000FFF70EFDA0EB0800022874D830680001E1
:100C7000F6D5EFB3DFF8C880C8F870A0FFF700FD25
:100C8000304E0746843E04E0FFF7FAFCC01B022802
:100C900061D83068C0438000F6D521682A484A07E9
:100CA00001D5226B1AB109071DD5616BD9B901684D
:100CB000D4E90623C1F30141491C42EA831221F021
:100CC000004309EB034194F8243041EA03610A43ED
:100CD00002602968E26A6FF0FF0321F4F85103EB28
:100CE0000222114329602188C90514D5616D00E0F5
:100CF00038E0B1F1006F0ED10168D4E9062342EA71
:100D00008312236AC1F303615C0809EB044343EADD
:100D100001610A430260C8F870B0FFF7B1FC0446F5
:100D20001CE018E08C38024000700040400E474242
:100D30000010474294380240FFFCFF0F0000FFFF05
:100D4000000047428438024088380240FFF798FC90
:100D5000001B022802D90320BDE8F88F3068C04389
:100D60008000F3D40020F7E72DE9F0470E46050098
:100D700065D0DFF81481D8F80000F7B200F00F005A
:100D8000B04207D288F80070D8F8000000F00F00D9
:100D9000B04254D128683D4C810712D5400703D595
:100DA000206840F4E05020602878000703D52068D0
:100DB00040F4604020602068A96820F0F0000843FB
:100DC00020602878C0072DD030496868083901288C
:100DD00012D0022813D0032811D0096889070029EE
:100DE0002DDA216821F0030101432160FFF748FC5F
:100DF000814641F2883A0EE009688903EFE7096805
:100E00008901ECE7FFF73CFCA0EB0901514502D951
:100E10000320BDE8F0872068696800F00C00B0EBA3
:100E2000810FEFD1D8F80010404601F00F01B14218
:100E300007D90770006800F00F00B04201D0012010
:100E4000E7E72878400705D52068E96820F4E050F6
:100E5000084320602878000706D52068296920F417
:100E6000604040EAC100206000F03CF82168084A78
:100E7000C1F30311515CC840064908600020FFF728
:100E800027FC0020C5E70000003C02400838024073
:100E90003C1F000810000020014800687047000057
:100EA000100000200448054900680968044AC1F39D
:100EB0008221515CC8407047100000200838024071
:100EC0004C1F00080448054900680968044AC1F33A
:100ED0004231515CC8407047100000200838024081
:100EE0004C1F0008224810B5006810F00C02214881
:100EF00015D02149042A11D01D4C241F082A0FD0D7
:100F00000C2A0CD12268236802F03F025B0221D533
:100F10002068C0F38810A0FB010120E0084610BD46
:100F20002268236802F03F025B0205D52068C0F307
:100F30008810A0FB010104E02168C1F38811A1FB26
:100F400000010023FFF75AF92168C1F30141491C50
:100F500049000AE02168C1F38811A1FB00010023C8
:100F6000FFF74CF92168C1F30271B0FBF1F010BD3D
:100F7000083802400024F40080BA8C012DE9F84FB3
:100F80000546DFF828B30078ABF10407C007A7F1E6
:100F9000040451D0DBF800105846C1F38101012947
:100FA0000FD00168C1F38101022902D139684902D9
:100FB00007D40068C0F38100032809D138684002D3
:100FC00006D52068800337D56868002872D033E0E2
:100FD0006868B0F5803F10D0B0F5A02F206810D021
:100FE00020F480302060206820F480202060686831
:100FF000A8B1FFF745FB06460DE0206840F48030BD
:10100000F4E740F480202060F7E700BFFFF738FBEB
:10101000801B642878D820688003F7D50CE0FFF7A0
:101020002FFB064605E000BFFFF72AFB801B642864
:10103000F0D820688003F7D42878DFF8749280070E
:101040004FF0000A46D5DBF80010584611F00C0F9F
:101050000FD00168C1F38101022902D13968490228
:1010600007D50068C0F38100032809D13868400221
:1010700006D42068800715D5E86801281AD111E048
:10108000E868C0B10120C9F80000FFF7F9FA064688
:1010900005E000BFFFF7F4FA801B0228BAD82068E9
:1010A0008007F7D52068296920F0F80040EAC100E0
:1010B00020600FE0F7E0C9F800A0FFF7E1FA06466C
:1010C00005E000BFFFF7DCFA801B02281CD820686F
:1010D0008007F7D42878000727D5DFF8D081754836
:1010E000696908F16C0881B101210160FFF7C8FA54
:1010F000064604E0FFF7C4FA801B022804D8D8F89B
:1011000000008007F6D510E089E0C0F800A0FFF7E6
:10111000B7FA064605E000BFFFF7B2FA801B0228C7
:101120007DD8D8F800008007F6D42878400769D524
:101130005E484FF0000838300068C0000BD45B48B0
:101140003830016841F08051016000684FF00108BB
:1011500000F080500090584E3068C00511D43068BF
:1011600040F480703060FFF78BFA009006E000BF1B
:10117000FFF786FA0099401A022850D83068C00557
:10118000F6D54A4EA868683601280FD00528306881
:1011900010D020F001003060306820F00400306092
:1011A000A868B8B1FFF76CFA00900FE0306840F023
:1011B0000100F4E740F004003060F7E7FFF760FA61
:1011C0000099411A41F28830814264D83068800722
:1011D000F4D50EE0FFF754FA009007E0FFF750FA5D
:1011E0000099411A41F28830814254D83068800712
:1011F000F4D4B8F1000F05D02C483830016821F044
:1012000080510160A869A8B3DBF80010C1F3810127
:10121000022948D00228C9F860A005D000E03AE0D1
:10122000FFF72EFA054639E0FFF72AFA064604E0F2
:10123000FFF726FA801B02282DD820688001F7D4FA
:10124000F5E907010843E9681C4A490802EB014136
:10125000AA6841EA82110843297C40EA0160297D9D
:1012600040EA017038600120C9F86000FFF708FA11
:10127000054606E015E000BFFFF702FA401B022812
:1012800009D820688001F7D50BE000BFFFF7F8F917
:10129000401B022802D90320BDE8F88F2068800196
:1012A000F4D40020F8E70120F6E7000008380240F7
:1012B00000004742800E4742007000400000FFFFE0
:1012C00070B5040002D0607F10B106E0012070BD4F
:1012D00000202077204600F049F80220607721683E
:1012E000CA204862216853204862204600F072FA02
:1012F000FF25042618BB206881681B4A11408160C5
:101300002168886862681043D4E904231A431043B3
:1013100088602168E068086120680169228941EAE3
:10132000024101612068C16821F08001C16020682C
:101330008068800607D4204600F024F818B12068A1
:1013400045626677C2E72068016C21F48021016460
:101350002068016CA2691143016420684562012084
:101360006077002070BD0000BFFF8FFF0068034959
:10137000884202D1024901200860704700280040DD
:101380003C0E474270B504460068C16821F0A001D8
:10139000C160FFF775F905464FF47A7607E000BFA4
:1013A000FFF76EF9401BB04201D9032070BD2068E1
:1013B000C0688006F4D5002070BD70B5040005D06B
:1013C0000025A56294F8510010B106E0012070BD1F
:1013D00084F85050204600F031F8022084F8510083
:1013E0002068016821F040010160D4E9010108434F
:1013F000D4E903121143084361690843218B01F4C6
:1014000000710843E1690843216A0843A16A08435F
:1014100021680860A069042101EA1040616A08435C
:10142000216848602068C16921F40061C161656577
:10143000012084F85100002070BD00002DE9F0412A
:101440000068174986B0884226D1164800250168F1
:1014500041F4804101600068022400F4804000945F
:10146000059003260720CDE90360DFF83C8069463C
:101470004046CDE90145FFF727F8042005278DE810
:10148000F10069464046FFF71FF860028DE8F10061
:1014900069460648FFF718F806B0BDE8F08100007D
:1014A000003800404038024000080240000402407A
:1014B0004FF0E0210428086903D020F004000861FF
:1014C000704740F00400FAE7704710B5401EB0F1D5
:1014D000807F01D3012010BD4FF0E02460610F2117
:1014E000601700F065F90020A0610720206100204E
:1014F00010BD10B5FFF7E8FF10BD70B5040004D0B3
:1015000094F83900002510B106E0012070BD84F880
:101510003850204600F022F8242084F83900206852
:10152000C16821F40051C160204600F003FA206830
:10153000016921F4904101612068416921F02A018B
:1015400041612068C16841F40051C160E563202019
:1015500084F8390084F83A00002070BD70B5154E4B
:1015600001680222012303240725134886B0B142F3
:101570000AD112490E6846F010060E60096801F0A3
:101580001001059161020DE00D4EB1420FD10B49E2
:10159000091F0E6846F400360E60096801F4003138
:1015A00005910C218DE83E006946FEF78DFF06B0DF
:1015B00070BD0000001001400000024044380240AD
:1015C00000440040FEE700000C4810B50A490160E5
:1015D0001021416000218160C1600161416101769B
:1015E00041768176C17601774177FEF77DFE00284E
:1015F00000D0FEE710BD0000006400401400002091
:101600000C4810B50A490160102141600021816039
:10161000C16001614161017641768176C1760177D1
:101620004177FEF761FE002800D0FEE710BD000004
:10163000006800403C0000202DE9F04F394887B099
:101640000024016841F004010160016801F0040117
:101650000591016841F080010160016801F080019D
:101660000591016841F001010160016801F001018B
:101670000591016841F0020101600068DFF8A8905F
:1016800000F0020048F2F00605900022314648467C
:10169000FEF7F0FFDFF894A04FF4A8670022394668
:1016A0005046FEF7E7FFDFF888B04FF46E7800226F
:1016B00041465846FEF7DEFF42F23000CDE9000415
:1016C000694650460294FEF7FFFE0125CDE900541D
:1016D000694648460294FEF7F7FE0096CDE90154AC
:1016E000694648460394FEF7EFFE0720CDE9000463
:1016F000694658460294FEF7E7FE0097CDE901548B
:10170000694650460394FEF7DFFECDF80080CDE930
:101710000154694658460394FEF7D6FE07B0BDE86B
:10172000F08F000030380240000002400008024004
:10173000000402400E4810B50C4901604FF482715C
:10174000416000218160C1604FF400720161C0E915
:101750000512C1610162416281620A21C162FFF723
:101760002CFE002800D0FEE710BD0000003800402D
:10177000840000200C4810B50A490160082141602E
:1017800002220021C0E90321C0E90512C161016202
:101790004162C16201634163FFF742F8002800D053
:1017A000FEE710BD000004405C010020FEE770472A
:1017B0000907090E002806DA00F00F0000F1E0200A
:1017C00080F8141D704700F1E02080F80014704785
:1017D0007047000070B504460068C168490614D41B
:1017E0004FF0FF31C160FEF74BFF05464FF47A76AC
:1017F00007E000BFFEF744FF401BB04201D90320C1
:1018000070BD2068C0684006F4D5002070BD7047E8
:1018100010B5FEF73BFFBDE81040FFF76ABE0000C1
:1018200030B52D48ABB00024016841F08051016013
:10183000006800F0805029902848016821F4404158
:1018400041F4804101600068022500F44040299085
:10185000052000904FF48030019001200290800517
:10186000CDE906500D2008904820CDE90905032058
:10187000CDE90B056846FFF781FB00B1FEE70F20BD
:10188000CDE924054FF48050CDE92640022124A85B
:101890002894FFF769FA00B1FEE74FF490700D90BD
:1018A0004FF4807022941D900DA8FFF745F800B109
:1018B000FEE7FFF7F1FA4FF47A71B0FBF1F0FFF7B2
:1018C00004FE0420FFF7F4FD00221146501EFEF72F
:1018D00061FF2BB030BD0000403802400070004076
:1018E0001048016841F4700101600F48016841F03F
:1018F000010101600C4A00210832116002680B4BA3
:101900001A400260031D0A4A1A60026822F480220B
:10191000026005480C3001600249580680390860B1
:101920007047000088ED00E000380240FFFFF6FE3F
:10193000103000242DE9F04104460068016921F4CB
:101940004052E168114301612168C86849F20C62A4
:1019500090432369A268E5691A4363692B431A43DC
:101960000243CA602168486920F44072A0691043AC
:101970004861E1696425B1F5004F9748974A2168AD
:101980004FF032083FD0914201D081427CD1FFF725
:1019900099FA00EBC00101EB001061688900B0FB0F
:1019A000F1F6FFF78FFA00EBC00101EB0010616860
:1019B0008900B0FBF1F0B0FBF5F06FF0180148437F
:1019C00006EB800108EB0110B0FBF5F000F0F0062B
:1019D000FFF778FA00EBC00101EB001061688900A5
:1019E000B0FBF1F0B0FBF5F006EB0016FFF76AFA7A
:1019F00000EBC00101EB001061688900B0FBF1F75A
:101A0000FFF760FAD2E0914201D081423DD1FFF769
:101A100059FA00EBC00101EB001061684900B0FB0E
:101A2000F1F0B0FBF5F00601FFF74CFA00EBC00156
:101A300001EB001061684900B0FBF1F7FFF742FAD3
:101A400000EBC00101EB001061684900B0FBF1F050
:101A5000B0FBF5F06FF01801484307EB800108EB8D
:101A6000C100B0FBF5F000F0F80006EB4006FFF710
:101A700029FA00EBC00101EB001061684900B0FBDE
:101A8000F1F7FFF71FFA3CE055E0FFF70BFA00EB28
:101A9000C00101EB001061684900B0FBF1F0B0FB40
:101AA000F5F00601FFF7FEF900EBC00101EB0010B5
:101AB00061684900B0FBF1F7FFF7F4F900EBC001F2
:101AC00001EB001061684900B0FBF1F0B0FBF5F0EC
:101AD0006FF01801484307EB800108EBC100B0FB31
:101AE000F5F000F0F80006EB4006FFF7DBF900EB3D
:101AF000C00101EB001061684900B0FBF1F7FFF78E
:101B0000D1F900EBC00101EB001061684900B0FBA6
:101B1000F1F0B0FBF5F06FF01801484307EB8001DE
:101B200008EBC100B0FBF5F000F00700216830447D
:101B30008860BDE8F081FFF7B5F900EBC00101EB6B
:101B4000001061688900B0FBF1F6FFF7ABF900EB1C
:101B5000C00101EB001061688900B0FBF1F0B0FB3F
:101B6000F5F06FF01801484306EB800108EB011017
:101B7000B0FBF5F000F0F006FFF794F900EBC001C0
:101B800001EB001061688900B0FBF1F0B0FBF5F0EB
:101B900006EB0016FFF786F900EBC00101EB001021
:101BA00061688900B0FBF1F7FFF77CF900EBC00139
:101BB00001EB001061688900B0FBF1F0B0FBF5F0BB
:101BC0006FF01801484307EB800108EB0110B0FBF0
:101BD000F5F000F00F00A9E70014014000100140EB
:101BE00070B50446049D06990D9801290CD0E06853
:101BF00040F04000E060204600F028F84FF48030CC
:101C0000A063012D16D01DE0A16B21F48031A163EA
:101C1000E1680D4A1140E160E16821F44011E160A2
:101C2000012803D1E06840F48010E060204600F015
:101C30000DF8E6E7A06840F00600A060A06840F05C
:101C40002000A060002070BDBFFFBDFF01220C4935
:101C500002E0521C8A420BD80369002BF9DA0269B0
:101C600042F001020261012204E0521C8A4201D9C1
:101C7000032070470369DB07F7D10020704700009D
:101C8000400D030010B5D0F8041841F00201C0F86F
:101C900004180320FEF706FC002010BD2DE9F047D4
:101CA0000E460446DDE90A1A0025DDF83C80089F4F
:101CB000806B40F40010A063B8F1000F0BD1A06B53
:101CC00020F40010A063206840F0400020602068ED
:101CD00040F0800020604FF00009C4F8009ED4F866
:101CE0000008C4F80008012904D0D4F8000840F026
:101CF000030004E0D4F800080BB140F00100C4F880
:101D000000081021204600F089F8204600F076F8FF
:101D10004846C4F81098C4F814984FF0FF31C4F83E
:101D20001818C4F81C984FF0904CFF2310E000BF27
:101D300004EB4511D1F80029002A02DAC1F800C9E4
:101D400001E0C1F80009C1F81009C1F808396D1C9B
:101D5000AE42EDD800210FE004EB4112D2F8005B57
:101D6000002D02DAC2F800CB01E0C2F8000BC2F885
:101D7000100BC2F8083B491C8E42EDD8D4F810185D
:101D800021F48071C4F81018012F0AD11449C4F845
:101D90003018D4F83018134A1143C4F83018D4F866
:101DA0003018A0616FF0804060611FB9A06940F0F9
:101DB0001000A061A0690C490843A061BAF1000FAE
:101DC00003D0A06940F00800A061B8F1010F03D171
:101DD000A06906490843A0610020BDE8F087000023
:101DE000000180000300010000383C800400004036
:101DF000816821F0010181600020704700211022DC
:101E00000261054A491C914201D9032070470369C8
:101E1000DB06F7D400207047400D0300002220238A
:101E200043EA811101610549521C8A4201D903200C
:101E3000704703699B06F7D400207047400D0300EC
:101E400010B5C26822F0C042C260012901D021B1A0
:101E500007E0C16841F0005102E0C16841F08041F3
:101E6000C1603220FEF71EFB002010BDFEE702E03D
:101E700008C8121F08C1002AFAD170477047002015
:101E800001E001C1121F002AFBD17047FEF706FCDA
:101E9000FFF7C6FCFFF7D0FBFFF796FB234822496C
:101EA0004FF4E13600240160C0E901640C25C460F0
:101EB000C0E904458461C461FFF71FFB00B1FEE780
:101EC0001A481B4940300160C0E90164C460C0E9A0
:101ED00004458461C461FFF710FB00B1FEE7FFF722
:101EE00049FCFFF727FC114812497838C0E9001473
:101EF0007F218160FF21C0E9031444618461FFF701
:101F0000DFF900B1FEE7FFF77BFB0B4C20212046F9
:101F1000FEF7ACFB40212046FEF7A8FB80212046BF
:101F2000FEF7A4FBFEE7000000100140DC000020EB
:101F30000044004000280040000002400000000073
:101F40000000000001020304060708090000000069
:101F500001020304741F00080000002014000000A8
:101F60006E1E0008881F00081400002044090000AD
:101F70007E1E0008000000000100000010000000AC
:081F8000000000000024F40041
:04000005080001C529
:00000001FF
