:020000040800F2
:10000000D806002019030008412A00083D2A0008EC
:100010003F2A0008B11800082D2B0008000000003E
:10002000000000000000000000000000452A000859
:10003000B318000800000000432A0008472A0008FF
:1000400033030008330300083303000833030008B8
:1000500033030008330300083303000833030008A8
:100060003303000833030008330300083303000898
:100070003303000833030008330300083303000888
:1000800033030008330300083303000800000000B6
:100090000000000000000000000000003303000822
:1000A0003303000833030008330300083303000858
:1000B0000000000000000000000000003303000802
:1000C0003303000833030008330300083303000838
:1000D00033030008212B0008330300080000000050
:1000E0003303000833030008000000000000000094
:1000F00000000000000000000000000033030008C2
:1001000000000000000000003303000800000000B1
:1001100000000000000000003303000800000000A1
:1001200033030008330300083303000833030008D7
:100130003303000800000000000000000000000081
:1001400000000000000000000000000000000000AF
:1001500033030008330300083303000833030008A7
:10016000000000000000000000000000000000008F
:10017000000000000000000000000000000000007F
:1001800033030008330300080000000000000000F3
:100190000000000033030008000000000000000021
:1001A000000000000000000000000000000000004F
:1001B0000000000000000000000000003303000801
:1001C000330300083303000800F002F800F045F89C
:1001D0000AA090E8000C82448344AAF10107DA45A2
:1001E00001D100F03AF8AFF2090EBAE80F0013F0AF
:1001F000010F18BFFB1A43F001031847FC4700002A
:100200001C480000103A24BF78C878C1FAD85207B9
:1002100024BF30C830C144BF04680C607047000080
:100220000023002400250026103A28BF78C1FBD8FF
:10023000520728BF30C148BF0B6070471FB504F09C
:10024000FBF99DE8030001F0C7F900F067F91FBD55
:1002500010B5002000F04BFB10BD01F063FA114611
:10026000FFF7ECFF04F0A2F901F09BFA03B4FFF7EB
:10027000EFFF03BC01F050FAFEB442464B46544631
:100280005D463EB400F00CFA3EBC90469946A2464C
:10029000AB46FEBC00F030F880EC200B7047C0ECA1
:1002A000200B704790EC200B7047D0EC200B704770
:1002B00085460D98DDF838E00F9B5DF8042B20E9AA
:1002C0000C009DE8FE1F854601BD4DF808ED0DF1BF
:1002D000080E4DF804ED2DE9FF1F002102B4694618
:1002E00081B000F0A4FDDDF840E012B070470000DE
:1002F00030470000004A00004DF808ED0DF1080EEF
:100300004DF804ED2DE9FF1F002102B4694681B0CC
:1003100000F0F4BD704700BF094880470948004716
:10032000FEE7FEE7FEE7FEE7FEE7FEE7FEE7FEE7A5
:10033000FEE7FEE704480549054A064B7047000002
:10034000CD2A0008C9010008D8000020D8060020E6
:10035000D8020020D802002053EA020C00F0698085
:100360002DE9F04B4FF00006002B1FBFB3FA83F5C9
:1003700003FA05F424FA05F65E4012BF1643B2FAFA
:1003800082F502FA05F4C5F120051EBF22FA05FC2C
:1003900044EA0C04203556EA044C4FEA144418BFD2
:1003A000641C4FF000084FF00009904271EB030C01
:1003B00039D3002919BFB1FA81F701FA07F6B0FA6B
:1003C00080F700FA07F6C7F120071EBF20FA07FCE6
:1003D00046EA0C062037B6FBF4FCA7EB0507103FF6
:1003E00007F01F0BCBF120060CFA0BFB2CFA06F6DC
:1003F00044BFB3460026202FA4BF5E464FF0000B3B
:100400005BEA060C08BF4FF0010B19EB0B09ABFBC5
:10041000027C48EB0608C01B06FB02CC0BFB03CC9E
:1004200071EB0C01C1E70B46024641464846BDE868
:10043000F08B13B54FF000004FF00001AFF30080D8
:10044000BDE81C4070472DE9F041074615460E46B1
:10045000102000F01DFA04000AD06760C4E90265AC
:1004600000F012FA0168216004600020BDE8F0810C
:100470000120FBE710B5431C02E010F8011B71B12D
:100480008107FAD14FF0013202C88C1A8C4314EA6A
:10049000C211F9D0C01A0A0603D0C01E10BDC01A7E
:1004A00010BD0A0401D0801E10BD0902FCD0401E00
:1004B00010BD10B5203AC0F00B80B1E81850203ABA
:1004C000A0E81850B1E81850A0E81850BFF4F5AFF4
:1004D0005FEA027C24BFB1E81850A0E8185044BF7E
:1004E00018C918C0BDE810405FEA827C24BF51F8EB
:1004F000043B40F8043B08BF7047D20728BF31F8DF
:10050000023B48BF11F8012B28BF20F8023B48BF2F
:1005100000F8012B704770477047704770B5064C64
:100520007C44064D7D4403E0206820448047241D20
:10053000AC42F9D170BD0000F4440000F844000062
:1005400070B5044600F015FB783405462646204673
:1005500000F09EF9040007D13146E86900F00FFA77
:10056000040001D100F041F80AA104F12000D1E912
:100570000021C0E900210021A162E16261612161E5
:10058000A161E161A868E0606868A06004F178009A
:1005900070BD000041524D00432B2B0000000000B5
:1005A00070B500F0E6FA446905460CB900F0D1F9DF
:1005B0006069401E606117D104F12006304600F0EA
:1005C000FFF921696961E56928B104F178002668BD
:1005D00000F0AEF901E000202061002D04D130468A
:1005E000BDE8704000F0D0BC70BD70B5054600F0AD
:1005F000C0FA04461DB1284600F0E2F908B1A0682F
:1006000001E055F8140C206101202073BDE8704012
:1006100000F09FB9040001D000F003F82046FFF776
:10062000E4FF70B50546466A00F0A3FA0446284682
:1006300000F0C6F920B12946606900F075FA07E0BC
:10064000A5F12000C169491EC1612168491E2160D0
:100650004169491C4161016911B9616901616061C8
:10066000284600F061FC304670BD70B5054600F0CC
:1006700080FA0446284600F0A3F938B12946A0695B
:1006800000F052FAC169491CC16102E0A5F12000E5
:10069000C169012902D1A1698161A061012070BDF8
:1006A00070B500F066FA846905460CB900F051F99E
:1006B00004F12006304600F083F968B1E06926684D
:1006C000012802D0401EE0610BE0A16904F178002E
:1006D000A96100F02DF904E0E069012801D1A069C9
:1006E000A861304670BD000073B50C4600F041FAB9
:1006F00054F80C1C203C31B1E169491EE1610168EC
:10070000491E01607CBD616804F1780509B1284685
:1007100088472846BDE87C4000F00AB9FFF781FF12
:10072000284600F005F900F055F970B50D46A0F126
:1007300058044C49A160012140F85C1C40E91E525C
:1007400000F017FA01682A46491C01600021204682
:10075000FFF7E0FD2046FFF7B8FD2046FFF75AFF00
:100760002DE9FF4D9A4693460E46804600F028F943
:10077000002875D1A8F12000012708F15808056864
:100780000024CDF808803146284603F0A1FD10B1C1
:10079000CAF8008062E0284603F03AFE0190304635
:1007A00003F036FE00903049019803F091FD20B926
:1007B0002D49009803F08CFD20B1DDE9001003F015
:1007C00097FD08BB2849019803F082FDC0B1307A3B
:1007D000297A00F0030001F00301641C31EA0002F1
:1007E0003ED130EA010100D077B1C00700D1002727
:1007F0000298ED68F6680028C5D000680290C2E74C
:10080000012C02D06CB109D02AE01849304603F01F
:100810005FFD18B1BBF1000F22D1B9E7BBF1000FAA
:100820001ED11349019803F053FD20B911490198D5
:1008300003F04EFDA0B100200090019033462A46FF
:1008400003A902A803F0F4FD002804D00399CAF814
:1008500000101CB1022004B0BDE8F08D0120FAE7C1
:100860000020F8E7E9060008DC47000848480008CF
:10087000E8470008F4470008002300F0A5BB00008B
:1008800000487047A800002000487047AC000020D6
:1008900070B5064600F080FE056806F10B0020F0FA
:1008A0000704B4429CBF002070BD2B466A68BAB1F1
:1008B0001068A04210D304F1080188423CBF506880
:1008C000586007D35168101941601168091B016015
:1008D00058601460101D70BD13465268002AE7D19D
:1008E0002146284600F064FE0028DED170BD2DE9C7
:1008F000F0410646FFF7C8FF8046454613E016B1B3
:10090000E068B0420ED120682860D4E90101D8F82F
:1009100000708847204600F095FED8F80000B842E5
:10092000EBD100E025462C68002CE8D1BDE8F08131
:1009300010B5044600F01DF9783CC069214600F06E
:1009400029F8002804D12046BDE8104000F07ABE06
:1009500010BD10B500F00DF9016919B10022026156
:10096000884701E08068804700F093FE10B588203A
:10097000FFF78EFF002801D00021017010BD8029F3
:1009800002D808B1017809B100207047012100F8B0
:10099000081B704718B100F10802914201D00020F5
:1009A000704700210170704702680B689A4205D1B8
:1009B00040684968884201D1012070470020704793
:1009C00010B50349FFF7F0FF80F0010010BD0000F3
:1009D000B847000870B500F0CCF84469054614B972
:1009E0000020FFF702FEE06904F12006401CE061F0
:1009F0003046FFF7E5FF002801D0266803E02868AD
:100A000000F10100286002D04FF0000200E02268EF
:100A10004FF000013046FFF77DFC3046FFF755FCF4
:100A20003046FFF7F7FD00002DE9F14DD0E90C85C8
:100A300081B00646D0F828A000F09BF80446A6F145
:100A400020073046FFF7EDFD3046FFF7B9FF08B14C
:100A5000606800E0B868206100F04EFEBDE8FC8DE3
:100A6000FFF7DFFD6669BE4202D1FFF799FD0DE099
:100A700030696061FFF794FD05E0FFF7D2FDFFF7F5
:100A800068FFFFF78DFD60693061666100273C46B5
:100A900006F1200B11E02E686B46002231465846C5
:100AA000FFF75EFE08B1FFF795FF3146104803F0EF
:100AB0000FFC00B101274544641C5445EBD38FB1B2
:100AC000684603F049FC0420FFF73AFD694603F04D
:100AD0003BFC0446684603F04EFC064A04492046A7
:100AE000FFF723FE5846FFF780FDFFF759FDB5E7F6
:100AF000184800087743000838B5684603F010FC32
:100B00000420FFF71DFD694603F002FC0446684619
:100B100003F015FC024A03492046FFF706FE0000D9
:100B20003F4300080C48000870B504000D4609D08A
:100B300004F12000FFF738FF20B12068A84201D15E
:100B4000204670BD0020FFF7FBFCD5E90023A0F193
:100B50005801C1E90023002240F85C2C40F8642CC5
:100B600040F8682C40F8785D70BD000010B500F0CA
:100B700090FD70B500F014FD04680546A4B920206E
:100B8000FFF786FE040011D0094900202C60C4E95B
:100B900000010849A1602073206160610649A061DD
:100BA00009B1FFF7E3FEE061204670BD00F071FD82
:100BB000131700086D0B00080000000010B5029C20
:100BC00031B101290DD003290BD004290BD108E044
:100BD0004BB90F2A07D800EB820021684160002042
:100BE00010BD012010BD022010BD10B5029C31B116
:100BF00001290DD003290BD004290BD108E04BB9F2
:100C00000F2A07D800EB820040682060002010BD4A
:100C1000012010BD022010BD2DE9F04DC0B0984656
:100C2000044631B1012918D0032979D0042979D19A
:100C300076E0B8F1000F75D190B2231D00F4005298
:100C4000A16B05E0C50701D020C91D6040081B1D30
:100C50000028F7D1F2BBA1635EE0150C96B2102D0F
:100C600001D2012000E000208246A819102801D9F5
:100C7000012700E00027B8F1010F03D0B8F1050FFC
:100C800050D101E03FBB01E020284BD84FF0000BD2
:100C9000BAF1000F08D02078012805D184F800B0FF
:100CA00004F1480080EC200B47B16078012805D1A1
:100CB00084F801B004F1C800C0EC200BBAF1000FB9
:100CC00002D0684680EC200B20A883460FB1C0EC10
:100CD000200B01E020E025E06B46A06B08E0014618
:100CE00003EBC502D1E900C1C2E900C108306D1CA7
:100CF000761EF4D24146B8F1010F00D0002100EB7E
:100D00008100A063BAF1000F02D0184690EC200BCE
:100D100017B15846D0EC200B002040B0BDE8F08D54
:100D20000120FAE70220F8E710B50468904801F1C5
:100D30000802436803444FF0FF30934204D0136825
:100D400043F31E03134400E003460A6842F31E0205
:100D50001144A14202D89C4201D3012010BD0020C1
:100D600010BD33B50446824881B0824D01684268A7
:100D700001441044401AC21002980823801E0290B9
:100D800002A8009500F090FC7B49002370B1026836
:100D900042F31E020244A2644268012A09D0002ADA
:100DA0000ADA001DE064012020650BE00422636183
:100DB00015E00222636112E042F31E02001D10449E
:100DC000C4E91303E26C1068002815DAC0F303606D
:100DD00050B101280AD002280CD0012263612046BC
:100DE000FFF798FA09203EBD644800E0644860615E
:100DF00000203EBD6348FAE740F31E001044F6E7CA
:100E00000C4605462846216CFFF7ABFF50B9206C15
:100E100028616B692246294601209847072803D09C
:100E20000828EFD000F035FC201DFFF741FAF0B59F
:100E30000446C068D3B00E46012768B35820FFF7B8
:100E400027FD05002AD0142204F10C0105F10C0045
:100E5000FFF72FFB182204F1200105F12000FFF716
:100E600028FB04F1380005F1380C0FC88CE80F009E
:100E7000E560F06B30644022311D01A8FFF719FBDB
:100E80008DF800708DF8017012AF32AD20461099C8
:100E9000FFF767FFD0B910E0E760EAE705223649BF
:100EA0002046FFF737FA05E09DF8010010B9284603
:100EB000D0EC200B53B00920F0BD63696A4621468F
:100EC00000209847062809D00828DFD09DF80000A8
:100ED0000028E9D1384690EC200BE5E79DF80000AA
:100EE00010B9384690EC200B9DF8010010B9284647
:100EF000D0EC200B31462046FFF782FF0546006903
:100F000008640C460A466B69294602209847072860
:100F100003D0082804D000F0BCFB201DFFF7C8F95F
:100F200021462846FFF76CFF70B5C1680546D1B170
:100F300001291AD00C46142205F10C000C31FFF7E0
:100F4000B8FA182204F1200105F12000FFF7B1FAE8
:100F500004F1380038350FC885E80F002046BDE899
:100F6000704000F06FBB00F094FB0020E86070BDA3
:100F7000F0020008290D0008010000FF79080008B0
:100F800000000000000000008268002A02D0014634
:100F90000120104770470000017A51B9417A89B1A8
:100FA000491E417241680A1D4260096801600421BE
:100FB0000172C9B2491E017201680A0E090201607C
:100FC00010467047B02070472DE9FF4D8CB05FEAA6
:100FD000000B4FF0000016460D4607900990059053
:100FE00008900DD0BBF1010F0AD0BBF1020F01D068
:100FF000002204E2A86BA864E86B04902C6C0FE05C
:1010000095F85000C007E86C049078D10F9818B19B
:1010100004980068C0F30740049901EB800442E0A3
:101020000F98022811D02788002F68D06088241DCF
:1010300000F00102394662F35F0161B1012934D049
:1010400002297DD00329EBD12FE12768002FECD0B6
:1010500060680834ECE7BBF1000F24D0A96C0023D2
:1010600001EB000806A9009130460F221946FFF750
:10107000BCFD0698804516D808EB0701814212D9BD
:10108000A96CA963201D0499C5E90F102846FFF734
:10109000ECFA0028ACD020680F2240F31E00044474
:1010A0003046049423E0241DBAE7BBF1000F27D09B
:1010B00006A90023009130460D221946FFF795FD41
:1010C0000698296A88426ED1E86AA0426BD12068EE
:1010D00004A940F31E0004440023009130460F226F
:1010E00004941946FFF76AFD30460022049504A9CE
:1010F000002300911946FFF761FD22463DE2D6E04C
:10110000A96C002301EB00080AA9009130460F22C8
:101110001946FFF76AFD0A987F1E804543D808EB01
:10112000070181423FD96768B81C0ED0781C0ED0E9
:10113000206806ABC20F39462846FFF711FB00E0D6
:1011400033E078B302281DD004E0022257E105F114
:101150005800069004A90023009130460D2219463C
:10116000FFF743FD0498EC622862069868622068E5
:10117000022140F31E0002192846FFF7CBF83A4639
:1011800080215FE004A90023009130460D2219461A
:10119000FFF72BFD0498EC6228620698A86205F11F
:1011A0002800E3E7FFE708343AE72168069121F0D9
:1011B0000048BBF1000F10D00AA90023009130466F
:1011C0000D221946FFF711FD0A98296A884240D17D
:1011D000E86AA0423DD101203CE0A96C401E01EB31
:1011E000000A0AA90023009130460F221946FFF792
:1011F000FCFC0A9882453AD80AEB0701814236D9AD
:1012000004F1040A00270AE06B4600222846DAF8B7
:101210000010FFF7A5FA20B90AF1040A7F1C474520
:10122000F2D3474523D104A90023009130460D2273
:101230001946FFF7DAFC0498EC6228620020D34AD2
:10124000022168622846FFF765F8062010B0BDE865
:10125000F08D002058B10020C5E90A8004202863E1
:10126000201D68630698404506D101200790069826
:10127000404515D1002014E004EB8800002250F80E
:10128000041F134641F31E010C1804A900913046B7
:1012900004951146FFF792FC30460F22049465E155
:1012A000042000EB88000444FDE60122A7E0049836
:1012B000006801900498001D02900F9810B30198E7
:1012C000000C8DF80D0001980004019002208DF8AB
:1012D0000C0001A8FFF760FE0446B0281AD03F2C8E
:1012E00041D800F03F01042000EB810706A90D243E
:1012F00000230091304622461946FFF776FC0698F7
:10130000384442E000208DF80D0001980002019061
:101310000320DCE70998B0B905980028C5D004A8D7
:10132000002300900E2219463046FFF75EFC049918
:10133000059105A90023009130460F221946FFF7B9
:101340003DFC012008900798002870D0002204A9D5
:1013500000913046134604951146FFF72FFC08987C
:10136000002878D0FEE07F2C19D800F03F0104203F
:1013700000EB810706A90D24002300913046224688
:101380001946FFF732FC0698C01B049004A80023FE
:101390000090224619463046FFF710FC99E78F2C43
:1013A0001AD80007040C01A8FFF7F6FD54EA001450
:1013B0003FF4CBAE0023224619463046FFF72CFC03
:1013C00008B103221BE0200401D50120099060042C
:1013D000E4D5012005907CE79F2C16D800F00F0281
:1013E0000D2A0BD00F2A09D006A9002300910D2445
:1013F00030461946FFF7F9FB0698C6E7042201219B
:101400002846FEF787FF092020E7AF2C10D804F00C
:1014100007000121401C81400A01103A200703D532
:10142000012042F4804205900023194658E0AAE0CA
:10143000B72C35D8B12C0FD0B22C15D0B328DDD1B4
:1014400001A8FFF7A9FD00F00F0100F0F000491C12
:1014500041EA00322BE073E001A8FFF79DFD020096
:10146000CCD00F2AE0D9C9E700273C4601A8FFF7F6
:1014700093FD00F07F01A1400F43000601D5E41D5C
:10148000F4E706A90D2400230091304622461946B0
:10149000FFF7ABFB069800EB870000F5017074E7DF
:1014A000BF2C07D800F00700401C40F400220123A5
:1014B000012115E0C72C25D809D101A8FFF76CFD43
:1014C00002009BD00F2A99D80023042108E0C62CE3
:1014D0000DD000F00700401C40F4202203231946E1
:1014E0003046FFF799FB00283FF458AF69E701A8A1
:1014F000FFF752FD00F00F0100F0F000491C41EA37
:101500000032EBE7C82C0BD0C92C09D0CF2CAAD9BC
:10151000D72CA8D800F00700401C40F400220DE0B2
:1015200001A8FFF739FD00F00F01491C00F0F000A1
:1015300041EA0032C82C01D102F580120523B7E739
:1015400004A8002300900F2219463046FFF74DFBF8
:101550000499059105A90023009130460E221946F1
:10156000FFF72CFB094930460F22049104A9002300
:1015700000911946FFF722FB044A03212846FEF793
:10158000C9FE072062E6082060E60000290A00087C
:101590000048704774000020004870477C0000201D
:1015A00000487047B0000020704770477047704790
:1015B00038B504460A4600206946AFF3008000288B
:1015C00008BF38BD02460099204600F0D0F801203F
:1015D00038BD012000F0F5B8F8B5AFF3008005463E
:1015E00000200C46102000BF0646A819A0420DD9C5
:1015F000324669460020AFF30080070008BF00F0C4
:10160000E0F80098A04218BF0546C419FFF7C4FFD0
:1016100005600746F01D20F007004619284600F037
:101620000AF8B44208BFF8BDA21B31463868BDE8CD
:10163000F84000F09CB800210160C0E9011070473B
:101640001020704770B50446051FFFF7A5FF00681E
:10165000002C14BF446870BD002C18BFAC423CBFC6
:1016600020466468F8D301680A18AA4218BF45608A
:1016700003D12A6805461144016028684119A14236
:101680001CBF6C6070BD6168696021680844286097
:1016900070BD10B5002000F08DF8FEF7D9FDBDE853
:1016A0001040012000F038B82DE9F0479846144664
:1016B0000F468246DDF8209094B1012C0BD04A46AB
:1016C0005046650805FB08763146904700280CD047
:1016D0000DDA2C46F0E74A4639465046904710B19D
:1016E0000020BDE8F0873846FBE73046F9E7641B89
:1016F000641E06EB0807DFE710B5FFF73AFA016949
:1017000019B100220261884701E040688047FFF775
:10171000C0FFFFF71EB9000001491820ABBEFEE76D
:10172000260002007546FFF733FFAE460500694606
:10173000534620F00700854618B020B5FEF7FAFDA5
:10174000BDE820404FF000064FF000074FF00008C2
:101750004FF0000B21F00701AC46ACE8C009ACE843
:10176000C009ACE8C009ACE8C0098D467047034623
:1017700040688C46002818BF88423CBF034640683A
:10178000F8D318681844884207D00CF1030020F001
:101790000700001D411A521A0146081D0A60FFF792
:1017A00051BF10B50446AFF300802046BDE810409D
:1017B000FEF75CBD10B500F011F8BDE8104000F078
:1017C00008B810B500F022F8BDE8104000F001B8EC
:1017D0007047002801D0FFF79FBF704710B5002168
:1017E00002A000F03BF8012010BD00005349474122
:1017F0004252543A2041626E6F726D616C20746582
:10180000726D696E6174696F6E00000010B5012819
:1018100005D0002103A000F021F8012010BD09A18E
:10182000F8E7000053494752544D454D3A204F7553
:1018300074206F662068656170206D656D6F7279C8
:10184000000000003A2048656170206D656D6F7280
:101850007920636F727275707465640070B50546A7
:101860000C460A2000E06D1C00F011F835B1287814
:101870000028F8D102E0641C00F009F814B12078C7
:101880000028F8D1BDE870400A20AFF3008008B509
:1018900069468DF800000320ABBE08BDFEF780FE50
:1018A000FEF7EAFCFEF77CFEFEF77AFEFEF7E4FCAC
:1018B000FEE770472DE9F0410446876D00F01AFA03
:1018C000064694F835000025022806D08020606581
:1018D00084F834500120BDE8F0812068016821F0CF
:1018E000160101602068416921F080014161206C8E
:1018F00008B9A06C20B12068016821F008010160DE
:101900002068016821F0010101600BE000F0F2F9AC
:10191000801B052806D92020606504F8345F032069
:101920006070D8E720680068C007EFD194F85C10B9
:101930003F208840B86004F8345F012060700020C8
:10194000C9E790F83510022903D0802141650120B4
:101950007047052180F835100068016821F0010109
:101960000160002070472DE9F74F82B00446002047
:101970008946019000F0BEF9009094F835000027E8
:10198000022804D08020606584F8347068E0206804
:101990000068C00503D54FF48070606560E094F87E
:1019A0005C004FF0200B4FF0100AB9F1000F06D089
:1019B0000AFA00F6A56D28684FF001083AE00BFA24
:1019C00000F6F7E70498401C12D0049830B100F0FC
:1019D00091F90099411A0498814209D9C4F854B088
:1019E00004F8347F84F80180032005B0BDE8F08F4F
:1019F000286894F85C2008219140014204D0626D6F
:101A000042F001026265A96094F85C2008FA02F2D3
:101A1000024204D0616D41F002016165AA6094F850
:101A20005C2004219140014204D0626D42F0040226
:101A30006265A960304202D1606DC007C2D0606D9E
:101A4000302678B1606DC0070CD02046FFF732FF1A
:101A500094F85C008640AE6004F8347F84F801801E
:101A60000120C2E7B9F1000F06D094F85C100AFA21
:101A700001F0A8600198B8E794F85C008640AE6079
:101A800004F8347F84F80180F4E770B5044690F8D8
:101A90003400002501280CD0012084F8340094F88B
:101AA00035600020012E06D084F834000225284637
:101AB00070BD022070BD022684F835606065204646
:101AC00002F01EF92068016841F001010160EEE7B3
:101AD0002DE9F0410446866D90F834000025012878
:101AE0000DD0012084F8340094F835700020012FC7
:101AF00007D084F8340002252846BDE8F081022092
:101B0000FBE7022784F835706065204602F0F8F89C
:101B100094F85C103F208840B0602068016841F074
:101B2000160101602068416941F080014161206C2B
:101B300020B12068016841F0080101602068016857
:101B400041F001010160D7E770B5044600F0D2F81A
:101B50000546601C02D004480078044400F0CAF82E
:101B6000401BA042FAD370BD000000202DE9F84FC1
:101B7000DFF84CB100224FF001084FF0030A4FF09C
:101B80000F090BF1040E00BF0B6808FA02F42340A2
:101B9000A3427DD14D68022D01D0122D0ED1D50862
:101BA00000EB850CDCF820505607F70E09FA07F613
:101BB000B5430E69BE402E43CCF820600668550040
:101BC0000F790AFA05FC07F0030726EA0C06AF4076
:101BD000374307604E68012E05D0022E03D0112E28
:101BE00001D0122E0ED18768CE6827EA0C07AE40CE
:101BF0003E4386604668A6430C79C4F300149440C3
:101C000034434460C4688E6824EA0C04AE40264322
:101C1000C6604C68E4004DD52A4C256845F48045E3
:101C20002560246822F0030504F480440094264CC7
:101C30002E19D6F8084895072F0F09FA07F5AC4377
:101C4000224DA84201D100250AE0214DA84201D130
:101C5000012505E01F4DA84201D1022500E007251E
:101C6000BD402543C6F80858DBF800405D464E6885
:101C70009C43F60300D51C432C60DEF800407546FB
:101C80004E689C43B60300D51C432C600C4D00E00D
:101C900010E008352C684E689C43F60200D51C43C2
:101CA0002C60074D0C352C684E689C43B60200D55D
:101CB0001C432C60521C102AFFF466AFBDE8F88F5D
:101CC000003C014044380240003001400000024026
:101CD00000040240000802400069084000D00120D2
:101CE000704742694A40426170470AB1816170475A
:101CF0000904FBE7014880687047000000000020ED
:101D0000014800787047000000000020014840684A
:101D1000704700000000002070B5040004D094F863
:101D20003900002510B106E0012070BD84F838505C
:101D3000204600F00DFD242084F839002068C16899
:101D400021F40051C160204602F014F820680169B6
:101D500021F4904101612068416921F02201416133
:101D60002068416941F0080141612068C16841F47F
:101D70000051C160E563202084F8390084F83A00FE
:101D8000002070BD0248816802781144816070476C
:101D9000000000200B4810B5016841F4007101609B
:101DA000016841F480610160016841F48071016063
:101DB000032000F01DF9002000F006F800F064F8A0
:101DC000002010BD003C024070B50D4D04464FF49C
:101DD0007A712878B1FBF0F00A490968B1FBF0F09C
:101DE00000F0A7FB48B9102C07D200222146501E54
:101DF00000F0DEF800206C6070BD012070BD0000B6
:101E0000000000200C00002070B50E46040004D035
:101E100094F83900002510B106E0012070BD84F867
:101E20003850204600F094FC242084F839002068C3
:101E3000C16821F40051C160204601F09BFF206879
:101E4000016921F4006101612068416921F02A01E2
:101E500041612068016941F48041016120680169A4
:101E600021F020010161206801693143016120688E
:101E7000C16841F40051C160E563202084F8390055
:101E800084F83A00002070BD1F4808B5016841F48D
:101E900080410160006800F4804000901A48001FF3
:101EA000016841F080510160006800F080500090AE
:101EB000032000F09DF8002211466FF00B0000F0A7
:101EC00077F8002211466FF00A0000F071F8002246
:101ED00011466FF0090000F06BF800221146501F08
:101EE00000F066F800221146101F00F061F8002291
:101EF0001146901E00F05CF80022BDE80840114633
:101F0000501E00F055B80000443802402DE9F04161
:101F100016460F46040004D094F83900002518B185
:101F200007E00120BDE8F08184F83850204600F039
:101F30000FFC242084F839002068C16821F4005186
:101F4000C160204601F016FF2068016921F490412C
:101F500001612068416921F02A014161206801691D
:101F600021F00F0101612068016939430161206896
:101F7000C16821F40061C1602068C1683143C1605B
:101F80002068C16841F40051C160E563202084F8F5
:101F9000390084F83A000020C4E700F01F02012154
:101FA00091404009800000F1E020C0F80011704726
:101FB000F0B40E4B1B680C46C3F30223C3F10705B4
:101FC000042D00D90425191D072901D2002300E0A2
:101FD000DB1E012606FA05F1491E214099409E406C
:101FE000761E16403143F0BC02F027B90CED00E03C
:101FF000064900F0070208684FF6FF03184040EA60
:102000000220034A10430860704700000CED00E016
:102010000000FA052DE9F0470E46050065D0DFF80F
:102020001481D8F80000F7B200F00F00B04207D2D8
:1020300088F80070D8F8000000F00F00B04254D1CA
:1020400028683D4C810712D5400703D5206840F42D
:10205000E05020602878000703D5206840F46040F5
:1020600020602068A96820F0F000084320602878EC
:10207000C0072DD0304968680839012812D00228DD
:1020800013D0032811D00968890700292DDA2168A7
:1020900021F0030101432160FFF72CFE814641F24C
:1020A000883A0EE009688903EFE709688901ECE7DF
:1020B000FFF720FEA0EB0901514502D90320BDE83E
:1020C000F0872068696800F00C00B0EB810FEFD159
:1020D000D8F80010404601F00F01B14207D907704F
:1020E000006800F00F00B04201D00120E7E7287837
:1020F000400705D52068E96820F4E05008432060D7
:102100002878000706D52068296920F4604040EA55
:10211000C100206000F03CF82168084AC1F30311B7
:10212000515CC840064908600020FFF74DFE0020C2
:10213000C5E70000003C024008380240A047000804
:102140000C00002001480068704700000C000020CF
:102150000448054900680968044AC1F38221515CBA
:10216000C84070470C00002008380240B047000803
:102170000448054900680968044AC1F34231515CCA
:10218000C84070470C00002008380240B0470008E3
:10219000154810B5006810F00C02144813D0411017
:1021A000042A0FD0082A0ED10F4C241F226823685E
:1021B00002F03F025B0207D52068C0F38810A0FB45
:1021C000010106E0084610BD2168C1F38811A1FB9A
:1021D00000010023FEF7C0F82168C1F30141491C4A
:1021E0004900B0FBF1F010BD083802400024F400B3
:1021F0002DE9F84F05460078DFF804B3C14CC0075D
:102200004AD0DBF800105846C1F38101012908D0FB
:102210000068C0F3810002280AD1201D0068400236
:1022200006D52068800337D56868002872D033E06F
:102230006868B0F5803F10D0B0F5A02F206810D0AE
:1022400020F480302060206820F4802020606868BE
:10225000A8B1FFF74FFD06460DE0206840F480303E
:10226000F4E740F480202060F7E700BFFFF742FD6D
:10227000801B64286FD820688003F7D50CE0FFF737
:1022800039FD064605E000BFFFF734FD801B6428DA
:10229000F0D820688003F7D42878DFF86C828007B4
:1022A0004FF0000940D5DBF80010584611F00C0F34
:1022B00009D00068C0F3810002280BD19048001FAC
:1022C0000068400206D42068800715D5E868012818
:1022D00020D111E0E868B8B10120C8F80000FFF78C
:1022E00009FD064605E000BFFFF704FD801B02283C
:1022F000C0D820688007F7D52068296920F0F80049
:1023000040EAC10020600FE0C8F80090FFF7F2FC3F
:10231000064606E0F1E000BFFFF7ECFC801B022858
:1023200019D820688007F7D42878000722D5744E82
:10233000764869696C3679B101210160FFF7DAFCF2
:10234000074604E0FFF7D6FCC01B022803D830681C
:102350008007F7D50EE088E0C0F80090FFF7CAFCD0
:10236000074604E0FFF7C6FCC01B02287DD8306892
:102370008007F7D42878400769D5DFF884A10027C3
:102380000AF1380ADAF80000C0000BD4DAF80010BD
:1023900041F08051CAF80010DAF80000012700F07F
:1023A000805000905A4E3068C00510D4306840F418
:1023B00080703060FFF79EFC009005E0FFF79AFC0C
:1023C0000099401A022850D83068C005F6D54C4E06
:1023D000A868683601280FD00528306810D020F092
:1023E00001003060306820F004003060A868B8B1A7
:1023F000FFF780FC00900FE0306840F00100F4E748
:1024000040F004003060F7E7FFF774FC0099411AD0
:1024100041F28830814268D830688007F4D50FE0F7
:10242000FFF768FC009008E0FFF764FC01460098A5
:10243000091A41F28830814257D830688007F3D4B6
:102440002FB1DAF8001021F08051CAF80010A86905
:10245000D8B3DBF80010C1F3810102294DD0022866
:10246000484607D0C8F8600000E03EE0FFF742FCB5
:1024700005463DE04646C8F86000FFF73BFC0746CE
:1024800005E000BFFFF736FCC01B02282DD82068EE
:102490008001F7D4F5E907010843E9681D4A4908B6
:1024A00002EB0141AA6841EA82110843297C40EA13
:1024B0000160297D40EA01711148001F016001207F
:1024C0003066FFF717FC054605E014E0FFF712FC45
:1024D000401B022809D820688001F7D50BE000BF17
:1024E000FFF708FC401B022802D90320BDE8F88F43
:1024F00020688001F4D40020F8E70120F6E700000E
:10250000083802400038024000004742800E47422F
:10251000007000400000FFFF4FF0E0210428086930
:1025200003D020F004000861704740F00400FAE78F
:10253000704710B5401E4FF0E024B0F1807F01D30A
:10254000012010BD60610F214FF0FF3001F075FEDA
:102550000020A06107202061002010BD10B5FFF70A
:10256000E7FF10BD054A10B50146137800208B42E5
:1025700003D011705068FFF727FC10BD0000002049
:1025800010B504460068416994F83920C1F3C011C0
:10259000212A0BD151B1416921F080014161206BA9
:1025A00008B1FFF787F9204601F0CFFD20684169A7
:1025B00094F83A20C1F38011222A0BD151B141691C
:1025C00021F040014161606B08B1FFF773F92046CB
:1025D00001F0ADFD002010BD7047000070B502682D
:1025E00004461068D168536910F00F0F50D003F003
:1025F000010501F4907635435DD0C20705D0CA05C8
:1026000003D5E26B42F00102E263420705D5DA0727
:1026100003D0E26B42F00202E263820705D5DA07DB
:1026200003D0E26B42F00402E263020705D5DA0749
:1026300003D0E26B42F00802E263E26B002A33D07F
:10264000800604D5880602D5204601F0EFFC2068FC
:102650004069E16BC0F38010090700D428B320461D
:1026600001F065FD2068416949061AD5416921F0EC
:1026700040014161606BA0B11B490165606BFFF7D0
:1026800060F9002810D0606B016DBDE8704008470C
:10269000830610D58B060ED52046BDE8704001F0AC
:1026A000C5BC2046FFF798FF70BD2046FFF794FF9A
:1026B0000020E06370BD030606D50B0604D5204656
:1026C000BDE8704001F0F8BC4006F3D54806F1D5EE
:1026D000D168204621F04001D160202184F83910D2
:1026E00000F0AAF970BD00009941000870B504001F
:1026F00004D094F83900002510B106E0012070BD27
:1027000084F83850204600F023F8242084F839005B
:102710002068C16821F40051C160204601F02AFB05
:102720002068016921F4904101612068416921F02C
:102730002A0141612068C16841F40051C160E5632C
:10274000202084F8390084F83A00002070BD000091
:1027500000B50068124987B088421FD1114801684E
:1027600041F0100101600068694600F0100005901A
:102770004FF4C060009002200190012002900320DD
:102780000390072004900848FFF7F0F90022114653
:102790002520FFF70DFC2520FFF7FFFB07B000BD4C
:1027A0000010014044380240000002402DE9F84387
:1027B000044690F83A00994616460D4620284FD117
:1027C00095B18EB194F83800012849D0012084F8E1
:1027D00038000027E763222084F83A00FFF78AFADE
:1027E000A6858046E68531E00120BDE8F883E08DCE
:1027F000401EE085A0684346B0F5805F4FF00002C0
:102800004FF020012046CDF8009004D001F0E3FC09
:1028100098B10320E9E701F0DEFC0028F9D1206936
:1028200000282068406803D0C1B225F8011B0DE0E4
:10283000C0F3080125F8021B08E020690028206881
:10284000406801D000F07F0005F8010BE08D002802
:10285000CDD1202084F83A0084F838700020C4E7F5
:102860000220C2E7F8B5044690F83A0020283CD18F
:10287000C1B3BAB394F83800012836D0012084F8E7
:102880003800A1620025A285E563222084F83A0081
:10289000636B1748D863636B16481864636B1648FC
:1028A000D864606B134605650846666B216802466E
:1028B0003046091DFFF70CF9206801684168009156
:1028C00084F83850C16841F48071C1602068416962
:1028D00041F0010141612068416941F040014161DD
:1028E0000020F8BDFFE70120FBE70220F9E7000028
:1028F0005D4100081B410008293D000870477047F2
:102900002DE9F843044690F839001F4616460D4657
:1029100020284FD19DB196B194F83800012849D0B4
:10292000012084F8380000208046E063212084F8EC
:102930003900FFF7DFF9A6848146E68426E001200E
:10294000BDE8F883E08C401EE084A0684B46B0F5FB
:10295000805F4FF000024FF080012046009703D0C7
:1029600001F039FCE8B90DE001F035FCC8B9288860
:102970002168C0F308004860206908B16D1C05E0BB
:10298000AD1C03E0216815F8010B4860E08C0028BD
:10299000D8D14B46002240212046009701F01BFC75
:1029A00008B10320CCE7202084F8390084F838806F
:1029B0000020C5E70220C3E770B5044690F839004F
:1029C000202830D169B362B394F8380001282AD0A6
:1029D000012084F838002162A2840025E284E563A6
:1029E000212084F83900236B1048D863236B1048EA
:1029F0001864236B0F48D864206B1346056526685E
:102A0000206B321DFFF764F821686FF0400008600A
:102A100084F838502068416941F08001416100200C
:102A200070BD012070BD022070BD0000A9410008EA
:102A300025410008293D000870477047FEE7FEE782
:102A400070477047704710B5FFF79CF9BDE810401C
:102A5000FFF784BD70B5194C2068194A10F00C01BD
:102A6000184804D05510042903D0082903D0026067
:102A70001BE0056019E01149091F0B68C3F380567C
:102A80000B6803F03F0316B1B5FBF3F201E0B2FBB4
:102A9000F3F20B680968C3F388135A43C1F3014189
:102AA000491C4900B2FBF1F101602168064AC1F3FB
:102AB0000311515C0268CA40026070BD08380240D0
:102AC0000024F4000C000020A04700081048016812
:102AD00041F4700101600F48016841F0010101609B
:102AE0000C4A00210832116002680B4B1A40026048
:102AF000031D0A4A1A60026822F480220260054817
:102B00000C300160024958068039086070470000A7
:102B100088ED00E000380240FFFFF6FE1030002490
:102B20000148FFF75BBD00001C000020FEE700002D
:102B300031B5254C0546206801F0C4FB29462068C4
:102B400001F0A0FB01F082F820A1206801F085FBD4
:102B500000F006FA38BDFDF764FD05681FA1206886
:102B600001F07BFB284600F067F922E0FDF759FDF4
:102B70001AA1206801F071FB1BE0FDF752FD05680A
:102B80001CA1206801F069FB284600F055F910E00F
:102B9000FDF747FD17A1206801F05FFB09E0FDF795
:102BA00040FD056819A1206801F057FB284600F098
:102BB00043F9FDF7F5FC38BDFDF733FD13A120689F
:102BC00001F04BFBF5E7000010000020626F61721E
:102BD000642077616B696E670A0000006661696C4A
:102BE000656420746F20696E697420626F6172641D
:102BF0000A0000006661696C656420746F20696E6C
:102C00006974204A4145206C69620A006661696CFA
:102C1000656420746F20696E697420636F6E7472CE
:102C20006F6C6C65720A0000FDF7BAFCFDF724FBBF
:102C300010B530B3012826D0022826D0032826D08C
:102C4000042826D0052826D0062826D0072826D0F6
:102C5000082826D0092827D00A2828D00B2829D0D0
:102C60000C282AD00D282BD00E282CD00F282DD0A0
:102C70000420FDF765FC0E21016000221549FDF7D7
:102C800054FD012010BD022010BD042010BD0820FD
:102C900010BD102010BD202010BD402010BD802090
:102CA00010BD4FF4807010BD4FF4007010BD4FF494
:102CB000806010BD4FF4006010BD4FF4805010BD17
:102CC0004FF4005010BD4FF4804010BD4FF4004051
:102CD00010BD00004048000810B5074C607800F0B7
:102CE00059FB207800F056FBAFF21301BDE810400D
:102CF0004FF47A7000F07EBB1800002010B5000978
:102D000013D0012813D0022813D0032813D001F0C8
:102D1000CBFA0AA101F0A1FA0420FDF711FC0E2163
:102D2000016000220949FDF700FD094810BD09486E
:102D300010BD094810BD094810BD0000776173201F
:102D40006E6F7420666F756E640000004048000866
:102D5000000002400004024000080240001C024043
:102D600070B5204C206801F086FA00F071FF00F089
:102D70000BF970BDFDF755FC05681BA1206801F03B
:102D80006CFA284600F058F822E0FDF74AFC16A13C
:102D9000206801F062FA1BE0FDF743FC056818A10A
:102DA000206801F05AFA284600F046F810E0FDF7D6
:102DB00038FC13A1206801F050FA09E0FDF731FC5E
:102DC000056816A1206801F048FA284600F034F89A
:102DD000FDF7E6FB70BDFDF724FC10A1206801F0B3
:102DE0003CFAF5E7100000206661696C65642074A8
:102DF0006F2075706461746520626F6172640A008F
:102E00006661696C656420746F20757064617465B7
:102E1000204A4145206C69620A0000006661696CC5
:102E2000656420746F207570646174650A00000029
:102E3000FDF7B6FBFDF720FA084901280A6805D01E
:102E40000B2805D0152807D105A102E00AA100E052
:102E50000EA1104601F001BA7047000010000020DA
:102E60004552524F52204F5554204F4620424F5505
:102E70004E44530A00000000554E455850454354F7
:102E80004544204552524F520A0000004552524FCD
:102E90005220494E56414C494420504F494E5445CA
:102EA000520A000010B5204894B00024016841F097
:102EB00080510160006800F0805012901B4801684A
:102EC00041F4404101600068069400F440401290D3
:102ED0000220009001200390102004906846FFF724
:102EE00087F900B1FEE70F20CDE90D044FF48050C3
:102EF000CDE90F4000210DA81194FFF78BF800B128
:102F0000FEE7FFF71FF94FF47A71B0FBF1F0FFF71E
:102F100010FB0420FFF700FB00221146501EFFF7B4
:102F200047F814B010BD0000403802400070004067
:102F300038B5684601F02CFA0420FDF701FB69461C
:102F400001F01EFA0446684601F031FA024A0349CC
:102F50002046FDF7EAFB0000AF43000824480008C4
:102F600010B5074CE07800F0C1FB207800F012FAB1
:102F7000BDE8104003494FF47A7000F03BBA0000FE
:102F800018000020D92C000810B5074CE07800F09C
:102F90000FFB0028A07803D0BDE8104000F009BA6C
:102FA000BDE8104000F015BA180000200B4810B51D
:102FB000094901604FF4E1314160002181600C2238
:102FC000C160C0E904128161C161FFF78FFB002875
:102FD00000D0FEE710BD0000001001401C000020E2
:102FE0002DE9F041054614460E46506901F070F98E
:102FF000012718B1E7602562BDE8F081206A00284A
:10300000FAD0E069A842F7D13046A16901F060F931
:103010000028F1D0606A18B1002027616062EBE7F8
:10302000206A6062E8E710B51446506901F050F973
:10303000002802D000202062E06010BD2DE9F041A0
:103040001468984616460D460746A047284601F0E4
:10305000DFF9214901F03CF930B10023324638460E
:10306000A968FFF7EBFF2AE0284601F0D1F91B49D8
:1030700001F02EF918B305F110041AE0F06810B150
:103080002079800714D544B1207910F0010F04D0C5
:103090002146384600F084F802E0606807EB202003
:1030A000234632462168FFF7C9FF3069002811D155
:1030B0000834E96805EBC1001030A042DED874681E
:1030C000002C07D04346324629463846A446BDE880
:1030D000F0416047BDE8F081E8470008F447000888
:1030E0002DE9FF4D82B0824614468B464FF0000812
:1030F00010460E9D01F08CF9274901F0E9F878B1EE
:10310000DA4504D1A068059901F0E2F840BB0095CA
:10311000A26859465046059BFFF7E2FF804636E01D
:10312000204601F075F91D4901F0D2F878B3264622
:10313000103426E06068C10705D02146504600F0F3
:103140002FF8074601E00AEB20275F450BD12068E6
:10315000059901F0BDF830B12079A046800716D559
:103160000120286013E02079800709D500952268A6
:1031700059463846059BFFF7B3FF8046286830B9AB
:103180000834F06806EBC0001030A042D2D806B078
:103190004046BDE8F08D0000E8470008F44700080D
:1031A0000268496802EB2121096808447047000061
:1031B0002DE9FF4D8CB01446DDE91C688B460027D5
:1031C0001046199D01F024F9704901F081F898B377
:1031D000A0680F9901F07CF8C8B1DBF8000010B1CD
:1031E0000C99884204D13078022801D0286828B18F
:1031F000012028600020CBF80000C3E001203070DF
:103200001A98C8F800000C98CBF8000012E0DDE92D
:103210001A1202A880E846011898CDE90005A268B4
:1032200059460F9B0C98FFF7C3FF002803D028686E
:10323000002800D10127A5E0FFE7204601F0E8F8CB
:10324000534901F045F8002869D018980B9440F3D1
:10325000400008901898103440F30000099089E06D
:10326000606800F001010A910C9969B10A9969B18D
:1032700021460C98FFF794FF82461A9850B12079A6
:10328000800707D5012006E00020F5E70C9901EB47
:103290002020F1E70020009020680F9901F018F835
:1032A00020B3DBF8000008B1504507D16068C107C2
:1032B00002D03178012901D0296829B10120286084
:1032C0000020CBF8000029E0C00701D0022000E078
:1032D000012030700098C8F80000CBF800A03DE055
:1032E000089800E00998401C4CD142E00099002069
:1032F0008DF81C0007AACDE90428069006AB1898A3
:10330000CDE90213CDE900052268594650460F9BCE
:10331000FFF74EFF0028286802D020B1002731E0D7
:103320000028FBD125E0069820B92079C00701D0FC
:1033300020680690307858B19DF81C10022901D100
:10334000022805D01B98006880B1069988420DD1EB
:103350009DF81C0030701B9806990160D8F8000099
:10336000012730B10A980028BCD0B9E701202860B5
:10337000D4E708340B98C16800EBC1001030A042BC
:103380003FF66EAF10B03846BDE8F08DE847000854
:10339000F447000870B500F00F04FFF7AFFC0546D6
:1033A0002046FFF745FC81B22846BDE87040FEF795
:1033B00098BC70B500F00F04FFF7A0FC054620464E
:1033C000FFF736FC81B22846BDE870400022FEF7C8
:1033D0008CBC70B500F00F04FFF790FC054620464A
:1033E000FFF726FC81B22846BDE870400122FEF7B7
:1033F0007CBC00002DE9F0478846824600F054FF6F
:10340000254C81464FF08047D4E90110814213DBFF
:103410004500BD4201D3AFF30080A80000F0E0FFFB
:1034200006466068216882003046FDF742F8206851
:1034300000F0CEFF2660A560D4E9001241F822809A
:103440006068401C6060484600F02CFF124C00EBA6
:103450000A060C34D4E90110814213DB4500BD4259
:1034600001D3AFF30080A80000F0BAFF0746606800
:10347000216882003846FDF71CF8206800F0A8FF9C
:103480002760A560D4E9000140F821606068401C15
:103490006060BDE8F08700005C000020F0B587B0F8
:1034A00000F00F07FFF72AFC05462848284C0026A5
:1034B00085420CD1206840F001002060206800F0B7
:1034C0000100059000F0F0FE22A100F0C6FE2648A3
:1034D00085420CD1206840F002002060206800F096
:1034E0000200059000F0E0FE20A100F0B6FE2448A6
:1034F00085420CD1206840F004002060206800F074
:103500000400059000F0D0FE1EA100F0A6FE2248A7
:1035100085420CD1206840F080002060206800F0D7
:103520008000059000F0C0FE1CA100F096FE384619
:10353000FFF77EFB00900120CDE901066946284691
:103540000396FEF713FB07B0F0BD00000000024039
:1035500030380240456E61626C6520612070696E92
:1035600020696E204100000000040240456E616247
:103570006C6520612070696E20696E204200000039
:1035800000080240456E61626C6520612070696EC2
:1035900020696E2043000000001C0240456E6162FD
:1035A0006C6520612070696E20696E204800000003
:1035B00010B500F00F04FFF7A1FB2046FFF738FB22
:1035C0004FF400510348FEF787FB002800D001208C
:1035D00010BD000000080240F0B587B000F00F04F5
:1035E000FFF78CFB05462046FFF722FB06462648E0
:1035F000264C002785420CD1206840F00100206055
:10360000206800F00100059000F04EFE20A100F0BF
:1036100024FE244885420CD1206840F0020020603E
:10362000206800F00200059000F03EFE1EA100F0B0
:1036300014FE224885420CD1206840F0040020602E
:10364000206800F00400059000F02EFE1CA100F0A0
:1036500004FE204885420CD1206840F080002060A4
:10366000206800F08000059000F01EFE1AA100F016
:10367000F4FD0320CDE90060694602972846FEF775
:1036800075FA07B0F0BD000000000240303802407B
:10369000456E61626C6520612070696E20696E20E4
:1036A0004100000000040240456E61626C652061CB
:1036B0002070696E20696E20420000000008024000
:1036C000456E61626C6520612070696E20696E20B4
:1036D00043000000001C0240456E61626C65206181
:1036E0002070696E20696E2048000000F0B587B038
:1036F00000F00F04FFF702FB05462046FFF798FA9B
:1037000006462548254C002785420CD1206840F00C
:1037100001002060206800F00100059000F0C4FD69
:103720001FA100F09AFD234885420CD1206840F08B
:1037300002002060206800F00200059000F0B4FD57
:103740001DA100F08AFD214885420CD1206840F07F
:1037500004002060206800F00400059000F0A4FD43
:103760001BA100F07AFD1F4885420CD1206840F073
:1037700080002060206800F08000059000F094FD3B
:1037800019A100F06AFDCDE9006769462846029755
:10379000FEF7ECF907B0F0BD0000024030380240FF
:1037A000456E61626C6520612070696E20696E20D3
:1037B0004100000000040240456E61626C652061BA
:1037C0002070696E20696E204200000000080240EF
:1037D000456E61626C6520612070696E20696E20A3
:1037E00043000000001C0240456E61626C65206170
:1037F0002070696E20696E204800000070B586B0A8
:1038000000F00F04FFF77AFA05462046FFF710FA9A
:1038100006462648264C85420CD1206840F001001F
:103820002060206800F00100059000F03DFD21A11E
:1038300000F013FD244885420CD1206840F00200BE
:103840002060206800F00200059000F02DFD1FA10F
:1038500000F003FD224885420CD1206840F00400AE
:103860002060206800F00400059000F01DFD1DA1FF
:1038700000F0F3FC204885420CD1206840F0800025
:103880002060206800F08000059000F00DFD1BA175
:1038900000F0E3FC0320CDE90060012002906946BE
:1038A0002846FEF763F906B070BD00000000024034
:1038B00030380240456E61626C6520612070696E2F
:1038C00020696E204100000000040240456E6162E4
:1038D0006C6520612070696E20696E2042000000D6
:1038E00000080240456E61626C6520612070696E5F
:1038F00020696E2043000000001C0240456E61629A
:103900006C6520612070696E20696E20480000009F
:10391000F0B587B000F00F04FFF7F0F90546204638
:10392000FFF786F906462648264C002785420CD12B
:10393000206840F001002060206800F00100059040
:1039400000F0B2FC20A100F088FC244885420CD194
:10395000206840F002002060206800F0020005901E
:1039600000F0A2FC1EA100F078FC224885420CD198
:10397000206840F004002060206800F004000590FA
:1039800000F092FC1CA100F068FC204885420CD19C
:10399000206840F080002060206800F080000590E2
:1039A00000F082FC1AA100F058FC01200096CDE93D
:1039B000017069462846FEF7D9F807B0F0BD00004F
:1039C0000000024030380240456E61626C65206143
:1039D0002070696E20696E204100000000040240E2
:1039E000456E61626C6520612070696E20696E2091
:1039F0004200000000080240456E61626C65206173
:103A00002070696E20696E2043000000001C024097
:103A1000456E61626C6520612070696E20696E2060
:103A20004800000070B586B000F00F04FFF766F99B
:103A300005462046FFF7FCF806462648264C8542F8
:103A40000CD1206840F001002060206800F00100E7
:103A5000059000F029FC21A100F0FFFB24488542DD
:103A60000CD1206840F002002060206800F00200C5
:103A7000059000F019FC1FA100F0EFFB22488542E1
:103A80000CD1206840F004002060206800F00400A1
:103A9000059000F009FC1DA100F0DFFB20488542E5
:103AA0000CD1206840F080002060206800F0800089
:103AB000059000F0F9FB1BA100F0CFFB0320CDE93E
:103AC00000600220029069462846FEF74FF806B0D3
:103AD00070BD00000000024030380240456E616257
:103AE0006C6520612070696E20696E2041000000C5
:103AF00000040240456E61626C6520612070696E51
:103B000020696E204200000000080240456E61629C
:103B10006C6520612070696E20696E204300000092
:103B2000001C0240456E61626C6520612070696E08
:103B300020696E2048000000F0B587B000F00F0447
:103B4000FFF7DCF805462046FFF772F806462648E0
:103B5000264C002785420CD1206840F001002060EF
:103B6000206800F00100059000F09EFB20A100F00D
:103B700074FB244885420CD1206840F0020020608C
:103B8000206800F00200059000F08EFB1EA100F0FE
:103B900064FB224885420CD1206840F0040020607C
:103BA000206800F00400059000F07EFB1CA100F0EE
:103BB00054FB204885420CD1206840F080002060F2
:103BC000206800F08000059000F06EFB1AA100F064
:103BD00044FB02200096CDE9017069462846FDF7B6
:103BE000C5FF07B0F0BD00000000024030380240C1
:103BF000456E61626C6520612070696E20696E207F
:103C00004100000000040240456E61626C65206165
:103C10002070696E20696E2042000000000802409A
:103C2000456E61626C6520612070696E20696E204E
:103C300043000000001C0240456E61626C6520611B
:103C40002070696E20696E204800000070470000F7
:103C50002DE9F041DFF8A08000241526A8F10C051D
:103C600045E000BF00F020FBD8F80420A24207DAAC
:103C70000420FCF765FC002220490660FCF755FD96
:103C8000D8F8001051F8247000F00CFB87422DDCAE
:103C90006868A04207DA0420FCF752FC00221749AA
:103CA0000660FCF742FD296851F8240080476868E7
:103CB0000421001B8200286801EB8407C11900EB76
:103CC0008400FCF7F6FB6868401E6860D8F80400C2
:103CD000001B8200D8F80000C11900EB8400FCF73B
:103CE000E8FBD8F80400401EC8F80400641C6868AB
:103CF000A042B7DCBDE8F081680000204048000821
:103D000030B50468256825F4802525600468636063
:103D10008368402B036803D099600068C26030BD9F
:103D20009A600068C16030BD70B5846B20684069DE
:103D300094F83910C0F3C0100025212904D118B11E
:103D4000E584204600F001FA2068406994F83A10B2
:103D5000C0F38010222904D118B1E585204600F077
:103D6000E6F9E06B40F01000E0632046FEF734FC1B
:103D700070BD00002DE9F04101680446086920F497
:103D80004052E068104308612268D06849F20C6133
:103D900088432369A168E569194363692B43194383
:103DA0000143D1602168486920F44072A069104342
:103DB0004861E16932266425B1F5004F99489A4A75
:103DC000216856D0914201D081427DD1FEF7D0F9D1
:103DD00000EBC00101EB001061688900B0FBF1F756
:103DE000FEF7C6F900EBC00101EB00106168B046B8
:103DF0008900B0FBF1F0B0FBF5F06FF0180148431B
:103E000007EB800106EB0110B0FBF5F000F0F006C7
:103E1000FEF7AEF900EBC00101EB0010616889000C
:103E2000B0FBF1F0B0FBF5F006EB0016FEF7A0F9E1
:103E300000EBC00101EB001061688900B0FBF1F7F5
:103E4000FEF796F900EBC00101EB001061688900F4
:103E5000B0FBF1F0B0FBF5F06FF01801484307EB51
:103E6000800108EB0110B0FBF5F000F00F003044CA
:103E700096E0914201D081423FD1FEF779F900EB03
:103E8000C00101EB00106168A8464900B0FBF1F1E8
:103E9000B1FBF8F00501FEF76BF900EBC00101EB97
:103EA000001061684900B0FBF1F7FEF761F900EB23
:103EB000C00101EB001061686FF018024900B0FB0F
:103EC000F1F1B1FBF8F100E06EE0514307EB810145
:103ED00006EBC101B1FBF8F000F0F80005EB40057E
:103EE000FEF746F900EBC00101EB001061684900E4
:103EF000B0FBF1F7FEF73CF93CE0FEF729F900EBE7
:103F0000C00101EB00106168A8464900B0FBF1F167
:103F1000B1FBF8F00501FEF71BF900EBC00101EB66
:103F2000001061684900B0FBF1F7FEF711F900EBF2
:103F3000C00101EB001061686FF018024900B0FB8E
:103F4000F1F1B1FBF8F1514307EB810106EBC1013F
:103F5000B1FBF8F000F0F80005EB4005FEF7F8F8CB
:103F600000EBC00101EB001061684900B0FBF1F704
:103F7000FEF7EEF800EBC00101EB001061686FF096
:103F800018024900B0FBF1F1B1FBF8F1514307EB26
:103F9000810106EBC101B1FBF8F000F007002844F5
:103FA00021688860BDE8F081FEF7D2F800EBC0011F
:103FB00001EB001061688900B0FBF1F7FEF7C8F86B
:103FC00000EBC00101EB00106168B0468900B0FB56
:103FD000F1F0B0FBF5F06FF01801484307EB8001FA
:103FE00006EB0110B0FBF5F000F0F006FEF7B0F8BC
:103FF00000EBC00101EB001061688900B0FBF1F03B
:10400000B0FBF5F006EB0016FEF7A2F800EBC001DE
:1040100001EB001061688900B0FBF1F7FEF798F83A
:1040200010E70000001401400010014010B590F8A6
:104030003A10222901D0022010BD8168B1F5805FBD
:1040400011D00169002901681FD0496801F07F0380
:10405000816A4A1C82620B70C18D491E0904090CD9
:10406000C18518D026E00269816A002A0268526878
:1040700005D0D2B20A80816A491C8162ECE7C2F3A2
:1040800008020A80816A891CF7E74A68816A4B1C2A
:1040900083620A70E0E70168CA6822F49072CA601D
:1040A00001684A6922F001024A61202180F83A1031
:1040B000FEF724FC002010BD90F83910212901D012
:1040C000022070478168B1F5805F016A0BD04A1CFD
:1040D0000262026809785160C18C491E0904090C0A
:1040E000C1840ED017E009880268C1F3080151604D
:1040F00001690029016A02D0491C0162ECE7891CB0
:10410000FBE70168CA6822F08002CA600068C168E3
:1041100041F04001C1600020704710B5806BFEF790
:10412000EEFB10BD10B5806BFEF787FC10BD01687B
:10413000CA6822F49072CA6001684A6922F00102DA
:104140004A61202180F83A1070470168CA6822F05D
:10415000C002CA60202180F83910704710B50146AE
:10416000806B09680968C90513D40021C1850168FD
:10417000CA6822F48072CA6001684A6922F00102AA
:104180004A6101684A6922F040024A61202180F8B0
:104190003A10FEF7B3FB10BD10B5806B0021C1854E
:1041A000C184FEF719FA10BD10B50146806B09688D
:1041B0000968C9050CD40021C18401684A6922F04C
:1041C00080024A610068C16841F04001C16010BDD1
:1041D000FEF732FC10BD2DE9F041984617460E4619
:1041E0000446069D1DE0681C1BD02DB1FDF782FD25
:1041F000A0EB0800A84214D92068C16821F4D0714E
:10420000C1602068416921F001014161202084F8EA
:10421000390084F83A00002084F838000320BDE813
:10422000F0812068006836EA000004D00020B8421F
:10423000D9D00020F3E70120F9E70907090E00288B
:1042400006DA00F00F0000F1E02080F8141D70473E
:1042500000F1E02080F80014704770B505460C4668
:104260000846FCF707F982B221466868BDE870404D
:104270000A23FEF745BB10B50446FDF73BFD206061
:1042800010BD000010B509B1416010BD0420FCF75D
:1042900057F90B21016000220149FCF746FA0000A2
:1042A000404800080068704710B5054C2068002899
:1042B00005D1082000F098F800210160206010BDB1
:1042C0001400002010B50446FDF714FD206010BD59
:1042D00070B50C46A04207D0406800BF0546204696
:1042E000406800BF854201D1012070BD002070BD33
:1042F00070B50C46A04209D0406800BF0546204674
:10430000406800BF854201D0012070BD002070BD13
:1043100010B500F051F80149016010BDB049000826
:1043200010B500F04FF80149016010BDB049000818
:1043300010B500F004F8BDE8104000F04DB810B51D
:10434000AFF3008010BD000010B500F035F8014952
:10435000016010BDC449000810B500F033F80149F0
:10436000016010BDC449000810B500F004F8BDE8B4
:10437000104000F031B810B5AFF3008010BD000060
:1043800010B500F019F80149016010BDD8490008C6
:1043900010B500F017F80149016010BDD8490008B8
:1043A00010B500F004F8BDE8104000F015B810B5E5
:1043B000AFF3008010BD00000149016070470000AC
:1043C000EC4900080149016070470000EC49000811
:1043D00010B500F001F810BD10B5FDF733F910BDB0
:1043E00010B500F001F810BD10B5040007D101248C
:1043F00005E0FCF745FA006800B90448804720460C
:10440000FCF746FA0028F4D010BD0000312F000858
:1044100010B530B1006820B14038C46B2CB12046D3
:1044200010BDFCF769FB002010BDFCF765FBF6E74B
:104430002DE9F04D00248AB00126CDE908649B46A1
:1044400017468A46254600B10068CAF800508046E3
:104450001046FFF7DDFF1149FFF73AFF08B1B868D2
:1044600000E0032008A907AACDE904218DF81C501B
:1044700006AB069509A9CDE90263CDE900015B46CB
:104480003A4651464046FEF793FE10B1089800B1F7
:1044900001240AB02046BDE8F08D0000F447000872
:1044A0002DE9F0450E4601688BB0824651F8081C94
:1044B000150001EB00040A9400684FF0000850F862
:1044C000047C18D0214800902148CDF80C80CDF80C
:1044D000108001900DF1140CCDF80880CDF82080EB
:1044E000CDF824808CE86004394600236A462046D3
:1044F000FEF7A4FD099C24BB01200290B7420BD01B
:1045000002A8009033463A465146CDF808800A98F2
:10451000FEF7E6FD0298A0B129463846FFF7D8FE1F
:1045200008B10A9C0DE0CDF80C80CDF800802B4638
:104530003A4603A90AA8CDF80480FFF779FF00B135
:10454000039C0BB02046BDE8F0850000E12F000879
:104550002730000810B5FFF7A7FE0149086010BD1D
:104560001000002070B50D4C1420FFF739FF002516
:10457000052684E861002046094A0A49FBF763FFE3
:104580000C341420FFF72CFF84E861002046BDE8BE
:104590007040034A0449FBF756BF00005C0000204E
:1045A000000000081D4600082B46000830B587B003
:1045B0000024174DFDF7EEFBFEF774FC154801686B
:1045C00041F0010101600068002200F00100059047
:1045D000E0212846FDF789FBE02000900120CDE98D
:1045E0000104694628460394FDF7C0FAA815009017
:1045F0000320CDE9010469462846FDF7B7FAFEF726
:10460000D5FC0548FEF794FAFEF7AAFBFCE700008C
:1046100000000240303802401C00002010B5044663
:104620000068FFF7D5FE204610BD10B504460068AF
:10463000FFF7CEFE204610BD4FF04070E1EE100AAD
:1046400070470000B0A900800D000C000BE5FF7F53
:10465000404800080D000C0015E5FF7FFFFFFFFF3D
:104660000900180017E5FF7F4048000809001800FE
:1046700021E5FF7FFFFFFFFF1100240023E5FF7FFF
:10468000404800081100240031E5FF7FFFFFFFFFD5
:104690002400340095E5FF7F240058008DE5FF7F5E
:1046A0000A007C0085E5FF7F020094007DE5FF7F26
:1046B00000000000B0B0AA8005000A00B9E6FF7F44
:1046C0004048000805000A00C3E6FF7FFFFFFFFF28
:1046D00005000E00C5E6FF7F4048000805000E00FB
:1046E000CFE6FF7FFFFFFFFF11001200D1E6FF7F43
:1046F0004048000811001200DFE6FF7FFFFFFFFFC8
:10470000240022002DE7FF7F2400460025E7FF7FDD
:104710000A006A001DE7FF7F0200820015E7FF7FA5
:1047200000000000B0B0A8800200070001000000F7
:104730002448000800000000B0B0A8800200170064
:10474000010000002448000800000000B0AA018019
:1047500019002A00C9BFFF7FFFFFFFFF02004200D0
:104760003DD1FF7F00000000DF8401800B0050007E
:104770000BC3FF7FFFFFFFFF21002600E5C2FF7F85
:10478000FFFFFFFF0A00460021D1FF7F04005A000F
:1047900015D1FF7F68005E0011D1FF7F000000008F
:1047A00000000000000000000102030406070809E1
:1047B000000000000102030441524D00432B2B0076
:1047C00000000000904900085048000838480008E0
:1047D00090490008724800083848000890490008CD
:1047E00094480008D047000890490008B8480008DD
:1047F000C447000890490008DD480008C447000885
:10480000904900080349000838480008904900080A
:104810002B49000830480008904900083A49000830
:1048200030480008904900084C490008304800080A
:104830008049000859490008804900086649000875
:10484000A049000873490008A049000875490008FC
:104850004E31305F5F637878616269763131375FFE
:104860005F636C6173735F747970655F696E666FA7
:1048700045004E31305F5F6378786162697631312F
:10488000375F5F70626173655F747970655F696ED1
:10489000666F45004E31305F5F637878616269769C
:1048A0003131395F5F706F696E7465725F747970F2
:1048B000655F696E666F45004E31305F5F63787883
:1048C000616269763132305F5F73695F636C617317
:1048D000735F747970655F696E666F45004E313045
:1048E0005F5F637878616269763132315F5F766DE0
:1048F000695F636C6173735F747970655F696E661D
:104900006F45004E31305F5F637878616269763160
:1049100032335F5F66756E64616D656E74616C5F86
:10492000747970655F696E666F45005374313062EB
:1049300061645F74797065696400537431336261D6
:10494000645F657863657074696F6E005374396273
:1049500061645F616C6C6F63005374396578636583
:104960007074696F6E00537439747970655F696E25
:10497000666F00690076000000000000C447000870
:10498000000000000000000000000000E8470008F0
:1049900000000000000000000000000000480008C7
:1049A0000000000000000000000000000C480008AB
:1049B0003F430008314300080000000000000000F1
:1049C0001848000877430008694300080000000009
:1049D0000000000024480008AF430008A14300087D
:1049E0000000000000000000304800080000000047
:1049F0000000000000000000F04C00080000002053
:104A00001C000000040200080C4D00081C000020DF
:104A1000BC060000200200083DFBFFFF49FBFFFF32
:104A20003AB8FF7F0100000078BBFF7FB0B0AA80DA
:104A3000BABBFF7F01000000B0BCFF7F10FDFF7F0D
:104A4000EABCFF7FB0B0AA8018BDFF7F0100000064
:104A500084BFFF7FB0B0AA80D0BFFF7F0CFDFF7F77
:104A600098C0FF7FB0A90080C0C0FF7F0100000098
:104A700038CCFF7FB0B0AE8080CCFF7FB0B0A880D4
:104A80001CCEFF7F010000002CCEFF7FB0B0AC80B9
:104A9000B2CEFF7F01000000CECEFF7FB0AF04801A
:104AA000EACFFF7F01000000A0D0FF7FB0B0AA8056
:104AB000BCD0FF7F0100000060D2FF7FB0B0AA80B1
:104AC000C4D2FF7F01000000CCD2FF7FB0B0A8802D
:104AD000F8D2FF7FB0B0AA80B0D3FF7F00840080FF
:104AE0002CD4FF7FB0B0AC80B2D4FF7F01000000B7
:104AF00024D5FF7FB0B0AE804CD6FF7F0100000010
:104B0000F0D6FF7FB0AF008010DAFF7F0100000019
:104B100022DAFF7FB0B0A880C0DAFF7F010000007A
:104B2000BCDAFF7FB0B0AA8028DCFF7F008406805B
:104B30007CDCFF7FB0AD00802CDDFF7FB0AB008060
:104B4000BCDDFF7F01000000B8DDFF7FB0AD00805D
:104B500068DEFF7FB0B0AA80E0DEFF7F01000000CA
:104B6000E6DEFF7FB0B0A880ECDEFF7F0100000032
:104B7000C0DFFF7FD0FAFF7FB0E0FF7F01000000C1
:104B8000B0E0FF7FB0B0A880D8E1FF7F28FBFF7FB7
:104B9000A0E2FF7F010000000CE3FF7FB0A81380BC
:104BA00090E3FF7FB0A90080B8E3FF7FB0B0A8809A
:104BB00030E4FF7FB0B0AC806EE4FF7FB0B0A8807F
:104BC0007CE4FF7FB0B0AC8018E5FF7FDF84058018
:104BD000D0E5FF7F01000000D8E5FF7FDF840F8074
:104BE000B4E7FF7FB0B0AA800CE8FF7FB0B0AE8022
:104BF000ACE8FF7FB0AB0680B8E9FF7FB0B0A8801B
:104C0000D8E9FF7FB0AB0680F4EBFF7FB0AA058048
:104C100000EDFF7FB0AB06800CEEFF7FB0AA0580F1
:104C200018EFFF7FB0AB068024F0FF7F010000008B
:104C300020F0FF7FB0B0AC80C8F0FF7F0100000023
:104C4000E8F0FF7FB0B0AA802CF1FF7FB0B0AC805D
:104C5000DCF3FF7FB0B0A88060F4FF7F01000000AC
:104C6000BAF4FF7FB0B0A880C6F4FF7F0100000057
:104C7000ECF4FF7FB0B0A8805EF5FF7FB0B0AC80F1
:104C8000BAF5FF7F01000000EEF5FF7FB0B0A8800D
:104C900014F6FF7F0100000010F6FF7FB0B0A8807F
:104CA00030F6FF7F0100000038F7FF7F78FAFF7FC2
:104CB00038F7FF7F84FAFF7F58F7FF7FB0B0A880F6
:104CC00070F7FF7FDF840980D8F7FF7F5F840A8059
:104CD00084F8FF7FB0B0A8808CF8FF7FB0B0AA80C6
:104CE000CCF8FF7FB0A9068034F9FF7F01000000F7
:104CF0000100000010000000000000000024F4008B
:0C4D000000000000000000000506072C69
:04000005080001C925
:00000001FF
