:020000040800F2
:10000000E00B0020E10700089908000899080008A3
:10001000990800089908000899080008990800083C
:10002000990800089908000899080008990800082C
:100030009908000899080008990800086106000856
:10004000990800089908000899080008990800080C
:1000500099080008990800089908000899080008FC
:1000600099080008990800089908000899080008EC
:1000700099080008990800089908000899080008DC
:100080009908000899080008990800080103000869
:100090006D030008F9030008990800089908000892
:1000A00099080008990800089908000899080008AC
:1000B000990800089908000899080008010B000831
:1000C0006109000815120008751000089908000859
:1000D00099080008891700085118000899080008B5
:1000E000990800089908000899080008990800086C
:1000F000990800089908000899080008990800085C
:10010000990800089908000899080008990800084B
:10011000990800089908000899080008990800083B
:10012000990800089908000899080008990800082B
:10013000990800089908000899080008990800081B
:10014000990800089908000899080008990800080B
:1001500099080008990800089908000899080008FB
:1001600099080008990800089908000899080008EB
:1001700099080008990800089908000899080008DB
:1001800099080008990800089908000899080008CB
:1001900099080008990800089908000899080008BB
:1001A00099080008990800089908000899080008AB
:1001B000990800089908000899080008990800089B
:0401C0009908000892
:1001D0007047016000224260704708B5092906D8BF
:1001E0003031C9B2006803689B68984708BD373151
:1001F000C9B2F7E738B505460C460909FFF7EDFF28
:1002000004F00F012846FFF7E8FF38BD38B5054672
:100210000C46217821B12846FFF7ECFF0134F8E7BE
:1002200038BD70B506460C46002507E03068036807
:100230009B68312198476400E4B20135072D08D846
:1002400014F0800FF2D1306803689B683021984722
:10025000F1E770BD38B505460C46217821B1284636
:10026000FFF7DFFF0134F8E738BD090101F18041F4
:1002700001F5CB41037B13F0020F17D00368DB00BD
:1002800043F004030B60037B13F0010F03D00B68F2
:1002900043F002030B60437B4B6043688B608368D1
:1002A000CB600B6843F001030B60704703685B058C
:1002B0000B60E8E70901114BCA18CB5813F0040F83
:1002C00014D1590D0160017B6FF341010173C3F338
:1002D0004003017B63F300010173536803F00F03D4
:1002E000437393684360D36883607047D9080160A3
:1002F000017B41F002010173E9E700BFB0650040F6
:10030000184B9B6813F4803F1DD0164B4FF480327E
:100310009A600221144B1A78D2B25B78DBB29A420F
:100320001FD010B5104C607804EB00100430FFF7BC
:100330009CFF94F901300133DBB2202B00D900235C
:10034000094A537010BD13F4807F05D0054B4FF45C
:1003500080729A600121DDE7024B01229A60002140
:10036000D8E77047006400406C0E0020F0B585B0FF
:100370001E4BDB6813F0100F06D01D4B1B681220BC
:1003800098471A4B3022DA60002100919DF80C301A
:1003900003F0FE0343F002038DF80C308DF80D10CE
:1003A0006846FFF787FF114B2022DA60114B19785E
:1003B0004BB20133DBB2934200D900230D4A52788D
:1003C000D2B29A4205D10A4B1B681220984705B059
:1003D000F0BD084F07EB01146D4607CD6060A160CA
:1003E000E2602A8822823B70F1E700BF006400408F
:1003F000E00B0020580C0020F0B585B01E4B1B69A7
:1004000013F0100F06D01D4B1B68132098471A4B92
:1004100030221A61002200929DF80C3003F0FE0396
:1004200043F002038DF80C308DF80D200121684651
:10043000FFF740FF104B20221A61114B19784BB285
:100440000133DBB2934200D900230D4A5278D2B275
:100450009A4205D1094B1B681320984705B0F0BD9F
:10046000074F07EB01146D4607CD6060A160E260A5
:100470002A8822823B70F1E700640040E00B0020F4
:10048000580C0020002303704370031D2021002915
:1004900010DB10B400241C601A7B02F0FE0242F054
:1004A00002021A735C73103301390029F2DA5DF825
:1004B000044B704770470000012800D0704708B512
:1004C0004FF6FF73994200D008BD0348FFF7DAFFEB
:1004D0000248FFF7D7FFF7E76C0E0020580C00200A
:1004E00008B54FF6FF710120FFF7E6FF08BD0000D9
:1004F000024608490B6843F001030B60054B1B687B
:1005000003F00203002B14BF0120002001D1013AA7
:10051000F4D170470038024070B4049C174D6E68E7
:1005200026F0746626F45F3626F47F7626F00306FE
:10053000304301F03F01084347F6C07606EA8216D1
:1005400006435A08013A120402F4403232439DF83D
:100550000C301B0603F070631A436A602B6843F08B
:1005600080732B60054B186810F0007001D1013CBE
:10057000F8D1003018BF012070BC7047003802402D
:10058000094A936823F00303034393608000064BFA
:100590009B6803F00C03834203D00139F7D100209C
:1005A00070470120704700BF00380240064AD368F8
:1005B00043F08073D360054B00225A601A6842F002
:1005C00001021A60704700BFF0ED00E0001000E08B
:1005D00010B440F63303994209D9B1F5166F13D31D
:1005E00040F68B23994212D90621114C01E00921D2
:1005F000104C0022134699420CD954F82320824211
:1006000008D20133DBB2F6E709210B4CF1E70821F0
:100610000A4CEEE7824207D30948016821F00F0136
:100620000B4343F4E063036010465DF8044B7047EE
:10063000701F0008081F00082C1F0008501F00082A
:10064000003C0240024A136818441060704700BF23
:1006500080100020014B1B88038070478010002011
:1006600008B50120FFF7EEFF024B1B6803B1984766
:1006700008BD00BF84100020054B5860054AF021DA
:1006800082F8231000229A6007221A60704700BF88
:1006900010E000E000ED00E0704700002DE9F047B9
:1006A0000746894601F026FC01303C18204601F03F
:1006B00021FC01302618DFF8408001250D4B9845BC
:1006C00009D258F804AB4B46324621463846D0474B
:1006D0000543EDB2F2E7012D02D015F0040F06D06C
:1006E0004B46324621463846FFF7D6FFFEE7BDE8C7
:1006F000F08700BFA4200008A420000808B500214E
:10070000FFF7CCFF08BD0020704708B501F09CFB47
:1007100008BD000000000000000000000000000014
:100720007047FEE710B5064C064A2146092000F046
:1007300011F8236803B110BD0348FFF7DFFFFAE7A4
:10074000881000208C100020881F000808B501F0D8
:1007500083FB08BDF0B48C4600250D6015600D4B81
:1007600002E0176035440C330B4CA34210D21C68D6
:100770000442F8D09F685C683E1B11688C42F0D040
:10078000B542F0D8CCF800409C6814603546EAE7E2
:10079000F0BC704794210008A0210008884211D2C3
:1007A00010B409E014681C600433043284689C426D
:1007B000F8D80C30884202D202684368F6E75DF848
:1007C000044B7047704706E000221A600433426809
:1007D0009A42F9D80830884201D20368F7E7704797
:1007E00010B520492048FFF7D9FF20492048FFF7DE
:1007F000EAFF204BD3F8882042F47002C3F8882027
:100800001D4A9A605A6942F488725A61002307E0CF
:1008100003F1604202F56142FF2182F800130133C7
:10082000602BF5D91349CA6822F4E0621204120C55
:10083000124B1343CB60124C02E054F8043B984730
:10084000104B9C42F9D310491048FFF7A7FF1049FD
:100850001048FFF7B8FFFFF765FF01F0D1FA01F08C
:1008600023FA00BF9421000888210008882100088D
:100870008021000800ED00E0000000080003FA05F8
:100880009C200008A420000894210008942100085E
:10089000942100089421000808B5EFF3058102486F
:1008A000FFF7FCFE08BD00BFE41F00080A4B5A6CAE
:1008B00042F480425A64094A012111621A6B42F0E3
:1008C0008F021A631A6942F08F021A611A6922F0C4
:1008D0008F021A61704700BF0038024000380140A3
:1008E0000023036001224260836000F10C030722B1
:1008F000002A05DB0021196059600833013AF7E747
:1009000070474368062B05D8013343608368013B79
:100910008360704700234360F8E70000012800D09F
:10092000704708B54FF6FF73994200D008BD0848DC
:10093000FFF7D6FF074A002313705370064A13606F
:1009400053601372054A136053601372EEE700BFE1
:100950009C10002000110020F4100020E81000205E
:1009600000B583B05B4B5B6913F4807F29D0594A93
:10097000136843F400731360574B05221A70574BEA
:10098000186818B103681B69012198470022534B6E
:100990001A60504B196821F4006119605A619A611C
:1009A0004F494A604F494A604F490A705A6822F4D9
:1009B000E0625A604D4B9B68002B00F082804C4BEC
:1009C00020E013F4806F0DD0424A136843F40073A3
:1009D0001360484B1B781BB102223F4B1A70CEE7C5
:1009E0000322FAE713F4007F03D03B4B04221A7072
:1009F000C5E7394B1B78002BC1D1374B07221A7042
:100A0000BDE71346334A126812F4007F02D05A1E23
:100A1000002BF6D1354A5368013302EBC30304338C
:100A200093E8030002AB03E903001046FFF769FFF8
:100A3000019B33B1304A1268934202D02E4A1360B0
:100A40009847009A254B1A60294B00E01346214A2B
:100A5000126812F4007F02D05A1E002BF6D11D4BF3
:100A60009B6913F0020F14D0244B1B78012B10D07C
:100A700042F2107300E01346164A926912F0020F18
:100A800002D05A1E002BF6D1124B9B6913F0020FB5
:100A90001AD10022144B1A700F4B1A700D4B1968A3
:100AA00021F4006119605A619A615A6822F48062E7
:100AB0005A605A6842F440725A601A6842F480726E
:100AC0001A6003B05DF804FB034B06221A70FFF7AF
:100AD00047FFF6E7005400409A10002090100020D5
:100AE000F4100020E8100020991000209C10002035
:100AF000A086010000110020941000209810002012
:100B000070B58CB0944B5C6914F0010F2BD114F0CC
:100B1000020F00F0D780EFF31083019372B68F4B72
:100B200000221A708E4B5B681BB98E4B5B68032BDF
:100B300004D9894A536843F480635360894B5B68E6
:100B40002BB9874A526812B9874A02211170824A2A
:100B50009269012B00F09380022B00F0AD80019B85
:100B600083F310884CE0814B186803685B689847F2
:100B70007A4B1880C0F3072002282BD0032875D1A8
:100B80007A4B19680B68DB6803AD28469847754EA9
:100B9000334695E8070003C31A70754B1A707368E3
:100BA000012B0AD96C4A136843F4806313606D4BC0
:100BB0005B68022B07D001221BE0674A136823F40D
:100BC00080631360F3E7644A136843F400631360BF
:100BD00001220EE0654B19680B689B6806AD28463C
:100BE00098475F4B95E8070003C31A70604B1A7073
:100BF00000225A4B1B7803F0FE031343564A13613D
:100C000014F0040F0ED0574B5B68022B00F093805A
:100C1000544B5B68032B00F0C880534B1B78012BAF
:100C200000F0D280504B1B78012B40F21681504AC5
:100C30001278012A00F0D180022A40F01681032B9D
:100C400000F00881494B19680B689B6809AC204685
:100C50009847434B94E8070003C31A70444B1A703B
:100C60003D4A536843F480635360F3E000233C4AF9
:100C700053603C4A53603E4A13701A46B9E7364AFD
:100C8000136843F4007313603A4B00E01346324A92
:100C9000126812F4007F02D05A1E002BF6D12E4BA0
:100CA0001969304B1A68501C1860117000225A6084
:100CB0002D4B03221A7052E7274A136823F48063EE
:100CC00013604CE714F0800F18D0254B5B685BB1C4
:100CD000234A1168481C106008781F490861013BCD
:100CE0005360214B01221A701D4B5B68002B87D18A
:100CF000194A536823F48063536081E714F0400F6E
:100D00003FF47EAF174B5B68032B09D9124B19696F
:100D1000144B1A68501C186011705A68013A5A60D6
:100D2000104B5B68032B3FF66BAF0B4A536823F401
:100D30008063536064E7EFF31083019372B6064B50
:100D40001A6842F400721A601969064A1368581C3E
:100D500010601970074B10E0005400400011002093
:100D6000F4100020E81000209910002090100020BE
:100D700098100020A086010013467D4A126812F4E4
:100D8000007F02D05A1E002BF6D1794B1969794B9E
:100D90001A68501C1860117000225A60764B0322AA
:100DA0001A70019B83F3108832E7714B1A6822F4A2
:100DB00080621A6019696F4B1A68501C18601170B4
:100DC0005A68013A5A6028E76C4B5B68002B7FF445
:100DD00029AF694B02221A7024E7694B00E01346E1
:100DE000634A126812F4007F02D05A1E002BF6D11B
:100DF0005F4B9B6913F0020F14D0624B1B78012BE1
:100E000010D042F2107300E01346594A926912F072
:100E1000020F02D05A1E002BF6D1554B9B6913F0DE
:100E2000020F1CD10022544B1A70574B1A70504BB2
:100E3000196821F4006119605A619A615A6822F4B4
:100E400080625A605A6842F440725A601A6842F4EA
:100E500080721A60484B00221A700CB070BD4A4B69
:100E600006221A70FFF77CFDF4E7032B04D0404AFA
:100E7000136843F4007313603D4A536823F4E0633E
:100E80005360424B186818B103681B6900219847EA
:100E90003E4B00221A603E4B9B68002BDAD0384B49
:100EA00000E01346324A126812F4007F02D05A1E44
:100EB000002BF6D1364A5368013302EBC30301AC71
:100EC000043393E8030084E803001046FFF719FD9C
:100ED000029B33B12F4A1268934202D02D4A13600D
:100EE0009847019A294B1A60254B00E01346204A87
:100EF000126812F4007F02D05A1E002BF6D11C4B50
:100F00009B6913F0020F14D01E4B1B78012B10D0DD
:100F100042F2107300E01346154A926912F0020F74
:100F200002D05A1E002BF6D1114B9B6913F0020F11
:100F300018D10022104B1A70134B1A700C4B196801
:100F400021F4006119605A619A615A6822F4806242
:100F50005A605A6842F440725A601A6842F48072C9
:100F60001A6077E7084B06221A70FFF7F9FC71E761
:100F700000540040E810002099100020F4100020D8
:100F8000A0860100981000209A10002090100020E8
:100F90009C1000209410002070B4104C236C43F47B
:100FA000001323640E4B4FF400441C6000241C60AB
:100FB0000C4CA02584F820530126666084F81F534A
:100FC0004FF0004525605860DA61196214225A62B8
:100FD0001A6832431A6070BC704700BF0038024084
:100FE0000054004000E100E008B54FF6FF71012019
:100FF000FFF794FC08BD0023036001224260836078
:1010000000F10C030722002A05DB0021196059605A
:101010000833013AF7E770474368062B05D80133D8
:1010200043608368013B8360704700234360F8E7B7
:10103000012800D0704708B54FF6FF73994200D0E1
:1010400008BD0848FFF7D7FF074A00231370537005
:10105000064A136053601372054A1360536013729B
:10106000EEE700BF1011002074110020681100206D
:101070005C11002000B583B05B4B5B6913F4807F8B
:1010800029D0594A136843F400731360574B052263
:101090001A70574B186818B103681B6901219847EB
:1010A0000022534B1A60504B196821F400611960FB
:1010B0005A619A614F494A604F494A604F490A70E4
:1010C0005A6822F4E0625A604D4B9B68002B00F096
:1010D00082804C4B20E013F4806F0DD0424A13689D
:1010E00043F400731360484B1B781BB102223F4B43
:1010F0001A70CEE70322FAE713F4007F03D03B4BCC
:1011000004221A70C5E7394B1B78002BC1D1374B2D
:1011100007221A70BDE71346334A126812F4007FA3
:1011200002D05A1E002BF6D1354A5368013302EB28
:10113000C303043393E8030002AB03E90300104642
:10114000FFF76AFF019B33B1304A1268934202D025
:101150002E4A13609847009A254B1A60294B00E0ED
:101160001346214A126812F4007F02D05A1E002B47
:10117000F6D11D4B9B6913F0020F14D0244B1B7842
:10118000012B10D042F2107300E01346164A926908
:1011900012F0020F02D05A1E002BF6D1124B9B699F
:1011A00013F0020F1AD10022144B1A700F4B1A7051
:1011B0000D4B196821F4006119605A619A615A68EF
:1011C00022F480625A605A6842F440725A601A6887
:1011D00042F480721A6003B05DF804FB034B0622F0
:1011E0001A70FFF747FFF6E7005800400E11002085
:1011F00004110020681100205C1100200D11002056
:1012000010110020A0860100741100200811002098
:101210000C11002070B58CB0944B5C6914F0010F78
:101220002BD114F0020F00F0D780EFF3108301935D
:1012300072B68F4B00221A708E4B5B681BB98E4BB7
:101240005B68032B04D9894A536843F48063536075
:10125000894B5B682BB9874A526812B9874A0221C9
:101260001170824A9269012B00F09380022B00F0EA
:10127000AD80019B83F310884CE0814B18680368B4
:101280005B6898477A4B1880C0F3072002282BD060
:10129000032875D17A4B19680B68DB6803AD2846C3
:1012A0009847754E334695E8070003C31A70754B8F
:1012B0001A707368012B0AD96C4A136843F480636F
:1012C00013606D4B5B68022B07D001221BE0674A5D
:1012D000136823F480631360F3E7644A136843F4EC
:1012E0000063136001220EE0654B19680B689B6870
:1012F00006AD284698475F4B95E8070003C31A7070
:10130000604B1A7000225A4B1B7803F0FE03134304
:10131000564A136114F0040F0ED0574B5B68022B32
:1013200000F09380544B5B68032B00F0C880534B54
:101330001B78012B00F0D280504B1B78012B40F220
:101340001681504A1278012A00F0D180022A40F01A
:101350001681032B00F00881494B19680B689B68C4
:1013600009AC20469847434B94E8070003C31A7022
:10137000444B1A703D4A536843F480635360F3E072
:1013800000233C4A53603C4A53603E4A13701A465D
:10139000B9E7364A136843F4007313603A4B00E030
:1013A0001346324A126812F4007F02D05A1E002BF4
:1013B000F6D12E4B1969304B1A68501C1860117009
:1013C00000225A602D4B03221A7052E7274A1368F5
:1013D00023F4806313604CE714F0800F18D0254B82
:1013E0005B685BB1234A1168481C106008781F498C
:1013F0000861013B5360214B01221A701D4B5B6851
:10140000002B87D1194A536823F48063536081E726
:1014100014F0400F3FF47EAF174B5B68032B09D9E4
:10142000124B1969144B1A68501C186011705A68D5
:10143000013A5A60104B5B68032B3FF66BAF0B4AC7
:10144000536823F48063536064E7EFF310830193E0
:1014500072B6064B1A6842F400721A601969064A9D
:101460001368581C10601970074B10E000580040BA
:1014700074110020681100205C1100200D11002063
:10148000041100200C110020A086010013467D4AA3
:10149000126812F4007F02D05A1E002BF6D1794B4D
:1014A0001969794B1A68501C1860117000225A6033
:1014B000764B03221A70019B83F3108832E7714B3D
:1014C0001A6822F480621A6019696F4B1A68501CFE
:1014D000186011705A68013A5A6028E76C4B5B68D3
:1014E000002B7FF429AF694B02221A7024E7694B65
:1014F00000E01346634A126812F4007F02D05A1EBD
:10150000002BF6D15F4B9B6913F0020F14D0624B96
:101510001B78012B10D042F2107300E01346594A99
:10152000926912F0020F02D05A1E002BF6D1554BD1
:101530009B6913F0020F1CD10022544B1A70574BB9
:101540001A70504B196821F4006119605A619A6150
:101550005A6822F480625A605A6842F440725A60B3
:101560001A6842F480721A60484B00221A700CB05C
:1015700070BD4A4B06221A70FFF77CFDF4E7032B7F
:1015800004D0404A136843F4007313603D4A536823
:1015900023F4E0635360424B186818B103681B6979
:1015A000002198473E4B00221A603E4B9B68002B5F
:1015B000DAD0384B00E01346324A126812F4007F4A
:1015C00002D05A1E002BF6D1364A5368013302EB83
:1015D000C30301AC043393E8030084E8030010461E
:1015E000FFF71AFD029B33B12F4A1268934202D0D3
:1015F0002D4A13609847019A294B1A60254B00E049
:101600001346204A126812F4007F02D05A1E002BA3
:10161000F6D11C4B9B6913F0020F14D01E4B1B78A4
:10162000012B10D042F2107300E01346154A926964
:1016300012F0020F02D05A1E002BF6D1114B9B69FB
:1016400013F0020F18D10022104B1A70134B1A70AE
:101650000C4B196821F4006119605A619A615A684B
:1016600022F480625A605A6842F440725A601A68E2
:1016700042F480721A6077E7084B06221A70FFF76F
:10168000F9FC71E7005800405C1100200D110020AA
:1016900068110020A08601000C1100200E1100200E
:1016A00004110020101100200811002008B54FF689
:1016B000FF710120FFF7BCFC08BD00000001C0B2B3
:1016C000054B83F8250320225A60044AD36843F06F
:1016D0002003D360704700BF00E100E0001001402C
:1016E000194B1A78D2B25B78DBB29A4220D0164BF3
:1016F00019784BB20133DBB2FA2B00D90023124A1E
:101700005278D2B29A421CD082B00F4A11448870EB
:101710001370EFF31083019372B60C4AD36843F051
:101720008003D360019B83F31088012002B07047CF
:10173000064B1B6813F0800FD9D0044B5860012072
:1017400070470020704700BF8C110020001001403E
:101750000C4B1A78D2B25B78DBB29A420FD0094BAD
:101760005A781A449278027093F901300133DBB24F
:10177000102B00D90023034A53700120704700202A
:10178000704700BF781100201C4B1B6813F0200F1E
:1017900013D01A4B5868C0B2194B19784BB20133A9
:1017A000DBB2102B00D90023154A5278D2B29A42EC
:1017B00003D0134A114488701370104B1B6813F048
:1017C000800F14D00F4B1A78D2B25B78DBB29A42FA
:1017D0000ED00C4A53781A449178084A51605BB293
:1017E0000133DBB2FA2B00D90023064A537070474D
:1017F000024AD36823F08003D36070470010014091
:10180000781100208C110020002202704270704775
:101810000022027042707047012800D0704708B55E
:101820004FF6FF73994200D008BD0348FFF7ECFF65
:101830000248FFF7EDFFF7E7781100208C11002038
:1018400008B54FF6FF710120FFF7E6FF08BD000065
:101850001C4B1B6813F0200F13D01A4B5868C0B2F2
:10186000194B19784BB20133DBB2102B00D900238E
:10187000154A5278D2B29A4203D0134A1144887062
:101880001370104B1B6813F0800F14D00F4B1A7895
:10189000D2B25B78DBB29A420ED00C4A53781A442B
:1018A0009178084A51605BB20133DBB2FA2B00D960
:1018B0000023064A53707047024AD36823F080031E
:1018C000D3607047004400408C120020A01200201A
:1018D000012800D0704708B54FF6FF73994200D039
:1018E00008BD0348FFF790FF0248FFF791FFF7E7B5
:1018F0008C120020A012002008B54FF6FF710120C5
:10190000FFF7E6FF08BD7047704708B50846FFF7C8
:101910001FFF08BD10B50C46237833B12078FFF7C0
:10192000DFFE0028FAD00134F6E710BD10B50C46F2
:101930002046FFF7D5FE0028FAD010BD10B50446AA
:101940000421FEF7E2FE204610BD0000012800D071
:1019500070474FF6FF739942FAD110B50C4C0D4BFE
:1019600023600D4A0D492046FEF7CDFE21460C4866
:10197000FEF72FFC21460B48FEF72BFC21460A48B8
:10198000FEF727FC21460948FEF723FC10BD00BFE7
:10199000C013002000200008E40B002007190008F5
:1019A000A8130020A0130020B8130020B0130020BB
:1019B00070B582B04FF40060FEF79AFD4FF40066F8
:1019C00001960723009302234FF4A87210210020F0
:1019D000FEF7A2FD854D40F6E4412846FEF7F8FDEE
:1019E000834CA36823F4E05343F4A053A360A3689B
:1019F00023F4604343F40043A36031460220FEF722
:101A0000BFFD7C4B1D607C4B7C4A1A607C4BA8223E
:101A10001A807C4B12221A807B48FEF72DFE7B4BEE
:101A20004FF080729A611A6822F4403242F4803298
:101A30001A6040229A611A6822F4405242F480529D
:101A40001A60A3F500639A6822F4402242F400224F
:101A50009A605A6822F400725A601A6822F440228E
:101A600042F480221A605A6A22F0F00242F07002B8
:101A70005A621A6822F4402242F400221A60636C0F
:101A800043F010036364636A43F010036362636AA4
:101A900023F010036362A4F59434E36843F4005325
:101AA000E360E36823F40053E36040F2D923A360CA
:101AB000E36823F4B053E360E36823F40043E36096
:101AC000E36843F40053E3600C20FFF7F7FDE3689D
:101AD00043F00803E360E36843F00403E3604C4B26
:101AE000DA6822F44042DA601A6822F440421A604E
:101AF0005A6822F080025A609A6822F440429A6042
:101B00001A6A22F070421A62DA6822F44052DA60ED
:101B10001A6822F440521A605A6822F040025A6051
:101B20009A6822F440529A601A6A22F070621A622D
:101B3000DA6822F4405242F48052DA60DA6822F421
:101B4000404242F48042DA609A6822F4405242F401
:101B500000529A605A6842F040025A601A6822F4B1
:101B6000405242F480521A609A6822F4404242F491
:101B700000429A605A6842F080025A601A6822F461
:101B8000404242F480421A600024082C0DD8204DB7
:101B90004FF48003AB61052000F08EFA4023AB6167
:101BA000052000F089FA0134EFE7194B1A6A22F098
:101BB000704242F080421A621A6822F4404242F4B3
:101BC00000421A601A6A22F0706242F080621A6261
:101BD0001A6822F4405242F400521A60D2222B2199
:101BE0002A20FFF7D9F902B070BD00BF007A030ABE
:101BF00000380240540C0020500C0020409002009D
:101C00004E0C00204C0C00203F90020000080240C7
:101C10000004024008B54FF6FF710120FFF796FE61
:101C200008BD10B5044643682BB1022B08D0FEF75F
:101C3000EDFA204610BD00680368DB689847F8E7B6
:101C4000FEF708FBF5E730B583B004460D4601A862
:101C5000FEF700FDBDF804302A88134423800423D6
:101C6000A37003B030BD002202808270704710B5AF
:101C700082B00446837813F0040F04D1A07800F0FA
:101C8000060002B010BD01A8FEF7E4FCBDF8043068
:101C900022889B1A13F4004FF0D1A37803F0FB03C2
:101CA00043F00203A370E9E730B585B0FFF780FE8B
:101CB0004B4C4C492046FFF7B4FF206803689B68F3
:101CC0000A219847206803681B69984700256560CA
:101CD00045492046FFF7A5FF206803689B680A2155
:101CE0009847206803681B69984765603F4C4049E6
:101CF0002046FFF796FF206803689B680A219847F3
:101D0000206803681B69984765603A4C3A49204649
:101D1000FFF787FF206803689B680A2198472068BF
:101D200003681B6998476560092D13DC334C4FF439
:101D30008073A3614FF48003A361322000F0D0F9D7
:101D40004FF08073A3614023A361322000F0C8F9F3
:101D50000135E9E7294B4FF480729A6140229A617C
:101D60000023ADF800300DF10200FFF77CFF29E001
:101D700004A940F2B63321F8083D0DF10200FFF747
:101D800062FF1E4B4FF480029A611623ADF80030BB
:101D90000DF10200FFF76BFF022813D104A93223D3
:101DA00021F8043D0DF10200FFF74DFF134B4022D7
:101DB0009A611223ADF800300DF10200FFF757FFD2
:101DC0000228D5D0BDF80030122BF5D0162BDFD06D
:101DD000002BE3D04FF6FF73ADF80030F2E700BF01
:101DE000A01300201820000834200008B813002099
:101DF0004C200008B01300206820000800080240B2
:101E000070B50D4E0D4CA41BA4100025A54209D1A0
:101E10000B4E0C4CFEF784FCA41BA4100025A5421D
:101E200005D170BD56F8253098470135EEE756F8D4
:101E3000253098470135F2E7842000088420000807
:101E4000842000089C200008024B01461868FEF719
:101E50007DBC00BFE80B002038B50546002945D001
:101E600051F8043C0C1F002BB8BFE41800F04AF8EE
:101E70001F4A1368104633B9636014602846BDE8F2
:101E8000384000F040B8A3420CD921686218934250
:101E900004BF1A685B68636004BF52182260046064
:101EA000ECE713465A680AB1A242FAD919685818E1
:101EB000A0420BD120680144581882421960DDD13C
:101EC000106852685A6001441960D7E702D90C23A0
:101ED0002B60D3E7206821188A4204BF116852683A
:101EE000626004BF091821605C60C7E738BD00BFAD
:101EF000C4130020034613F8012B002AFBD1181A43
:081F000001387047704770477B
:101F0800002D3101005A62020087930300B4C40413
:101F180000E1F505000E2707003B5808006889090D
:101F2800007A030A80B14F0100639F028014EF0317
:101F380000C63E0580778E060029DE0780DA2D0967
:101F4800008C7D0A0095BA0A00366E01006CDC022E
:101F580000A24A0400D8B805000E270700449508D7
:101F6800007A030A0095BA0A80C3C901008793035F
:101F7800804A5D05000E270780D1F0080095BA0A4F
:101F8800636F7265006865617000696E697400004E
:101F9800636F72650068656170007362726B000040
:101FA800636F72650068656170006D616C6C6F636A
:101FB80000000000636F726500686561700063610E
:101FC8006C6C6F6300000000636F72650068656188
:101FD80070007265616C6C6F63000000636F7265FE
:101FE800006E76696300756E646566696E65640087
:101FF8000000000000000000071900083D19000853
:102008002D19000815190008091900080B190008EE
:102018003D3D3D3D3D3D41445337383238207465A0
:1020280073743D3D3D3D3D3D000000006D61696EAE
:102038003A20696E666F206C6F6767696E67206803
:10204800657265006D61696E3A207761726E696EBE
:1020580067206C6F6767696E672068657265000046
:102068006D61696E3A206572726F72206C6F676776
:10207800696E67206865726500000000E104000869
:10208800E90F0008AD16000841180008F918000803
:04209800151C00080B
:08209C00AD050008AD080008C5
:1020A400034B1B8808225A43801AC01AFDD5704777
:1020B4004C0C0020034658B1064A52680649088869
:1020C40000FB03F01938034B5B689B1A8342FADB6D
:1020D400704700BF001000E04E0C0020034658B1CA
:1020E400064A52680649086800FB03F01938034B96
:1020F4005B689B1A8342FADB704700BF001000E064
:04210400500C00205B
:10210800D1010008E40B0020EC0B002000000000C7
:1021180000000000000000000000000000000000B7
:1021280000000000000000000000000000000000A7
:102138000000000000000000000000000000000097
:102148000000000000000000000000000000000087
:102158000000000000000000000000000000000077
:0C2168000000000000000000000000006B
:0C21740077010800401F000000127A00F4
:08218000580C0020C8130020D8
:0C21880008210008E00B00204C0C002097
:0C2194000F000000C81300200000022013
:04000005080007E107
:00000001FF
