:020000040800F2
:10000000E00B0020A10600087D0700087D0700081E
:100010007D0700087D0700087D0700087D070008B0
:100020007D0700087D0700087D0700087D070008A0
:100030007D0700087D0700087D07000851050008BE
:100040007D0700087D0700087D0700087D07000880
:100050007D0700087D0700087D0700087D07000870
:100060007D0700087D0700087D0700087D07000860
:100070007D0700087D0700087D0700087D07000850
:100080007D0700087D0700087D070008750200084D
:10009000CD020008410300087D0700087D07000825
:1000A0007D0700087D0700087D0700087D07000820
:1000B0007D0700087D0700087D0700084909000842
:1000C000C1070008B10D0008290C00087D070008D1
:1000D0007D070008911000088D1100087D070008B9
:1000E0007D0700087D0700087D0700087D070008E0
:1000F0007D0700087D0700087D0700087D070008D0
:100100007D0700087D0700087D0700087D070008BF
:100110007D0700087D0700087D0700087D070008AF
:100120007D0700087D0700087D0700087D0700089F
:100130007D0700087D0700087D0700087D0700088F
:100140007D0700087D0700087D0700087D0700087F
:100150007D0700087D0700087D0700087D0700086F
:100160007D0700087D0700087D0700087D0700085F
:100170007D0700087D0700087D0700087D0700084F
:100180007D0700087D0700087D0700087D0700083F
:100190007D0700087D0700087D0700087D0700082F
:1001A0007D0700087D0700087D0700087D0700081F
:1001B0007D0700087D0700087D0700087D0700080F
:0401C0007D070008AF
:1001D00070470022016042607047027B036809019A
:1001E000920701F1804101F5CB4146BFDB0043F0AE
:1001F00004035B050B60037BDB0742BF0B6843F026
:1002000002030B60437B4B6043688B608368CB6069
:100210000B6843F001030B60704700000901114BAC
:10022000027B30B5CC18CB5813F0040114BF42F058
:10023000020261F341020273027B14BFD9085D0D13
:10024000C3F3400363F3000214BF0160056002734F
:10025000636803F00F034373A3684360E36883603C
:1002600030BD00BFB0650040014B1B68184700BFA0
:10027000E00B0020134B9968CA0310B516D54FF454
:1002800080329A600221104C227863789A420CD016
:10029000607804EB00100430FFF79FFF63780133B0
:1002A000DBB2212B28BF0023637010BD11F48071D5
:1002B0004FF001021BBF4FF4807199609A601146A4
:1002C000E1E700BF006400406C0E0020F0B51A4C5E
:1002D000E368DB0685B004D51220FFF7C5FF3023A5
:1002E000E3609DF80C30154F03F0FE036E460021CD
:1002F00043F0020330468DF80C3000918DF80D105C
:10030000FFF78CFF0C4B2022DA603C787B78651C71
:10031000EDB2212D28BF0025AB4204D11220FFF7FA
:10032000A3FF05B0F0BD96E80F0007EB04140434FA
:1003300007C43D702380F4E700640040580C00209F
:10034000F0B51B4C2369DB0685B004D51320FFF7FD
:100350008BFF302323619DF80C30164F03F0FE0312
:100360006E46002243F002030121304600928DF8D0
:100370000C308DF80D20FFF751FF0D4B20221A6134
:100380003C787B78651CEDB2212D28BF0025AB425F
:1003900004D11320FFF768FF05B0F0BD96E80F0009
:1003A00007EB0414043407C43D702380F4E700BF56
:1003B00000640040580C00200346002210B523F8CA
:1003C000042B00F50574197B1A6001F0FE0141F061
:1003D000020119735A7310339C42F4D110BD00000E
:1003E00008B50348FFF7E8FF0248FFF7E5FF08BD3F
:1003F0006C0E0020580C0020084B1A6842F00102D5
:100400001A601A6812F0020205D10138F9D10030E1
:1004100018BF012070471046F9E700BF00380240BE
:10042000F0B5184D9DF814406F68069E27F074676C
:1004300027F45F37240627F47F7704F0706427F0F1
:1004400003073C43204301F03F0147F6C07404EA30
:100450008212084310435A08013A120402F440324F
:10046000104368602B6843F080732B602B6813F097
:10047000007305D1013EF9D1301C18BF0120F0BD39
:100480001E46F9E700380240084B9A6822F0030242
:1004900002439A6080009A6802F00C02824203D004
:1004A0000139F8D1084670470120704700380240F2
:1004B000064AD36843F08073D360054B00225A602C
:1004C0001A6842F001021A60704700BFF0ED00E0C8
:1004D000001000E040F63303994230B5054615D9C7
:1004E000B1F5166F15D340F68B2399420F4B104A86
:1004F0008EBF062108211A46002352F82300A84285
:100500000AD20133DCB2A142F7D830BD0921094A31
:10051000F2E70921084AEFE708490A6822F00F02CA
:1005200042F4E06213430B60EFE700BFE014000801
:100530000015000898140008BC140008003C024094
:10054000024A136818441060704700BF80100020F2
:1005500010B50120FFF7F4FF034B1B6813B1BDE892
:100560001040184710BD00BF84100020054B064AFC
:100570005860F02182F8231000229A6007221A6046
:10058000704700BF10E000E000ED00E070470000A1
:100590002DE9F84F0746894600F074FF01303C18FA
:1005A000204600F06FFFDFF84080DFF840A0013008
:1005B00026180125D04509D258F804BB4B463246CF
:1005C00021463846D8470543EDB2F3E7012D01D067
:1005D0006B0706D54B46324621463846FFF7D6FF15
:1005E000FEE7BDE8F88F00BF8C1500088C150008E9
:1005F0000021FFF7CDBF0020704700F0EDBE0000E6
:100600007047FEE710B5074C074A2146092000F065
:1006100011F8236823B90548BDE81040FFF7E8BF8B
:1006200010BD00BF881000208C1000201815000895
:1006300000F0DABEF0B500230F4CDFF840C00B60CD
:1006400086461360644500D3F0BD25681EEA050F99
:1006500008D0D4E9016710688642A7EB060503D1EC
:1006600017602B440C34EDE7AB429FBF0E60A368CC
:1006700013602B46F6E700BF6C16000878160008DA
:1006800030B5884200D330BD90E81C009C4201D8B0
:100690000C30F6E752F8045B43F8045BF6E7000021
:1006A00038B528492848FFF7EBFF284B2849002098
:1006B0008B4230D3274B284CD3F8882042F4700269
:1006C000C3F88820254A9A605A6942F488725A61B0
:1006D000FF200022A1180132612A81F80003F9D11C
:1006E000D9681F4A1F4C204D21F4E0610904090C10
:1006F0000A43DA60AC4217D31C491D48FFF7C0FF1C
:100700001C4B1D4900208B4212D3FFF77BFF00F0EA
:100710003FFE00F007FED3E90024A24201D30833D4
:10072000C6E742F8040BF8E754F8043B9847E1E7C2
:10073000D3E90024A24201D30833E4E742F8040BD2
:10074000F8E700BF6C16000860160008581600088D
:100750006016000800ED00E000E100E00000000885
:100760000003FA05841500088C1500086C160008B3
:100770006C1600086C1600086C160008EFF3058173
:100780000148FFF705BF00BF361500080A4B5A6C39
:1007900042F480425A64094A012111621A6B42F004
:1007A0008F021A631A6942F08F021A611A6922F0E5
:1007B0008F021A61704700BF0038024000380140C4
:1007C000204A214B516911F4807F10B523D0116864
:1007D00041F40071116005221A701C4C206818B198
:1007E000036801211B699847164B1968002221F400
:1007F00000612260196016495A619A614A60154980
:100800004A6015490A705A6822F4E0625A60BDE8ED
:10081000104000F069B848050AD5116841F400712C
:1008200011600E4A1278002A14BF02220322D3E775
:100830008A0501D50422CFE71A78002ACDD10722F4
:10084000CAE700BF005400409A100020901000201A
:10085000F4100020E8100020991000200011002062
:100860001C4A1D4B11461068800501D5013BFAD189
:100870008B699B0714D5194B1B78012B10D0154A97
:1008800042F2117311469069800701D5013BFAD1FC
:100890008B699B0704D5124B06221A70FFF790BF95
:1008A000104B00221A700E4B1A700A4B196821F473
:1008B000006119605A619A615A6822F480625A6034
:1008C0005A6842F440725A601A6842F480721A60A0
:1008D000704700BF00540040A1860100981000201E
:1008E0009A10002099100020124B996870B501B33E
:1008F000114A12480468A40501D5013AFAD15C688E
:10090000601CC20004329E189D587268062C88BF75
:1009100000200139586099602AB1094B19688A4250
:1009200001D01A609047074B1D60BDE87040FFF78B
:1009300097BF70BD9C100020A186010000540040AC
:1009400094100020901000202DE9F0439D4C656923
:1009500015F0010285B000F0B180DFF884829A4E74
:10096000D8F80000994F03685B68984700B2307070
:10097000C0F307200228707025D00328DFF85492B6
:1009800040F09580D8F800100B680DF10408DB6882
:100990004046984798E807004B4603C33A701A70E0
:1009A000D9F804202368012A04D823F48063236043
:1009B000012316E043F48063022A2360F8D1236800
:1009C00043F40063F3E7D8F800100B6801AC9B68B0
:1009D0002046984794E807007D4B3A7003C31A708D
:1009E0000023327822F001021343764A13616F0725
:1009F00038D5784B5A68022A1CD1EFF3108472B6AE
:100A0000704A116841F4007111601968106908702A
:100A1000714815461668B60501D50138FAD12A691C
:100A20004A7000225A606D4A881C032118601170B8
:100A300084F310885A68032A0BD1624A116821F4A2
:100A40008061116011691A68501C117002221860CF
:100A50005A60624B1A78012A04D15D4A52681ABB67
:100A600002221A705D4C2378012B1DD9574E327823
:100A7000012A00F08B80022A40F08B80032B11D0DA
:100A8000574B19680B6801AD9B682846984795E855
:100A900007004F4B327003C31A704A4A536843F43D
:100AA000806353600023237005B0BDE8F083484A9B
:100AB00000235360C9F804303B7092E7AF0739D583
:100AC000EFF3108072B6404B1A70414B414A5C689C
:100AD00014B95368032B04D93A494B6843F4806333
:100AE0004B60516819B914B93C4B02241C70354B4A
:100AF00001299C6917D1196841F4007119603649C0
:100B00001C461E68B60501D50139FAD11368216962
:100B100019705C1C00235360304B146003221A7060
:100B200080F3108863E7022902BF1A6822F480620A
:100B30001A60F5E72A0616D5254B5A684AB1196896
:100B4000013A481C0978186021615A60234A012142
:100B500011705B68002B7FF44AAF1A4A536823F484
:100B60008063536043E76B067FF541AF194B5A68CA
:100B7000032A06D91968206908704C1C013A1C60C8
:100B80005A605B68032B3FF632AFE6E7FFF768FE7B
:100B900088E7032B0B4B124D18BF1A6828681CBF3F
:100BA00042F400721A605A6822F4E0625A6018B186
:100BB000036800211B69984700232B60FFF794FE10
:100BC00070E700BF00540040001100209810002082
:100BD000F4100020E8100020A186010099100020E8
:100BE000901000200C4A00230121C2E900319360DB
:100BF0000C215350501808314C294360F9D1074A51
:100C000013705370064AC2E900331372054AC2E9F1
:100C100000331372704700BF9C10002000110020A9
:100C2000F4100020E8100020204A214B516911F4F3
:100C3000807F10B523D0116841F400711160052246
:100C40001A701C4C206818B1036801211B69984771
:100C5000164B1968002221F40061226019601649C0
:100C60005A619A614A6015494A6015490A705A6882
:100C700022F4E0625A60BDE8104000F069B848050F
:100C80000AD5116841F4007111600E4A1278002AE9
:100C900014BF02220322D3E78A0501D50422CFE73D
:100CA0001A78002ACDD10722CAE700BF00580040B9
:100CB0000E11002004110020681100205C1100209A
:100CC0000D110020741100201C4A1D4B11461068A4
:100CD000800501D5013BFAD18B699B0714D5194BCF
:100CE0001B78012B10D0154A42F2117311469069FE
:100CF000800701D5013BFAD18B699B0704D5124BC4
:100D000006221A70FFF790BF104B00221A700E4B8C
:100D10001A700A4B196821F4006119605A619A61CE
:100D20005A6822F480625A605A6842F440725A60EB
:100D30001A6842F480721A60704700BF0058004081
:100D4000A18601000C1100200E1100200D110020C1
:100D5000124B996870B501B3114A12480468A40592
:100D600001D5013AFAD15C68601CC20004329E18B9
:100D70009D587268062C88BF002001395860996020
:100D80002AB1094B19688A4201D01A609047074B73
:100D90001D60BDE87040FFF797BF70BD10110020C7
:100DA000A186010000580040081100200411002015
:100DB0002DE9F0439D4C656915F0010285B000F006
:100DC000B180DFF884829A4ED8F80000994F03680A
:100DD0005B68984700B23070C0F30720022870703B
:100DE00025D00328DFF8549240F09580D8F8001001
:100DF0000B680DF10408DB684046984798E8070047
:100E00004B4603C33A701A70D9F804202368012AAC
:100E100004D823F480632360012316E043F4806345
:100E2000022A2360F8D1236843F40063F3E7D8F87B
:100E300000100B6801AC9B682046984794E80700B7
:100E40007D4B3A7003C31A700023327822F00102FE
:100E50001343764A13616F0738D5784B5A68022AD4
:100E60001CD1EFF3108472B6704A116841F400711E
:100E70001160196810690870714815461668B60542
:100E800001D50138FAD12A694A7000225A606D4AA8
:100E9000881C03211860117084F310885A68032A93
:100EA0000BD1624A116821F48061116011691A68DE
:100EB000501C1170022218605A60624B1A78012A85
:100EC00004D15D4A52681ABB02221A705D4C237825
:100ED000012B1DD9574E3278012A00F08B80022A4F
:100EE00040F08B80032B11D0574B19680B6801AD74
:100EF0009B682846984795E807004F4B327003C31C
:100F00001A704A4A536843F4806353600023237085
:100F100005B0BDE8F083484A00235360C9F80430A7
:100F20003B7092E7AF0739D5EFF3108072B6404BB4
:100F30001A70414B414A5C6814B95368032B04D9B9
:100F40003A494B6843F480634B60516819B914B94E
:100F50003C4B02241C70354B01299C6917D1196840
:100F600041F40071196036491C461E68B60501D56A
:100F70000139FAD11368216919705C1C0023536090
:100F8000304B146003221A7080F3108863E7022943
:100F900002BF1A6822F480621A60F5E72A0616D5A5
:100FA000254B5A684AB11968013A481C09781860FB
:100FB00021615A60234A012111705B68002B7FF484
:100FC0004AAF1A4A536823F48063536043E76B06C1
:100FD0007FF541AF194B5A68032A06D91968206971
:100FE00008704C1C013A1C605A605B68032B3FF68A
:100FF00032AFE6E7FFF768FE88E7032B0B4B124D95
:1010000018BF1A6828681CBF42F400721A605A6838
:1010100022F4E0625A6018B1036800211B69984706
:1010200000232B60FFF794FE70E700BF00580040DC
:10103000741100200C110020681100205C110020A8
:10104000A18601000D110020041100200C4A00238C
:101050000121C2E9003193600C215350501808312E
:101060004C294360F9D1074A13705370064AC2E90C
:1010700000331372054AC2E900331372704700BF90
:101080001011002074110020681100205C11002054
:10109000154A1368990630B50DD514495468087877
:1010A0004D78431CDBB2112B28BF00239D421EBF8D
:1010B00040180B70847013681B0608D50C4908781B
:1010C0004B78984204D1D36823F08003D36030BDBD
:1010D0004B78C8180133DBB2FB2B8078506028BFF7
:1010E00000234B70F3E700BF001001407611002091
:1010F00089110020034A002313705370024A1370B1
:1011000053707047761100208911002010B5124BE2
:1011100019785A78914206D1104A1168090602D509
:101120005060012010BD19785C784A1CD2B2FB2AAD
:1011300028BF002294420DD019441A708870EFF332
:10114000108172B6054AD36843F08003D36081F3FF
:101150001088E6E70020E5E79912002000440040EF
:10116000094A1178537899420BD05378D11801333A
:10117000DBB2112B8978017028BF00235370012046
:1011800070470020704700BF86120020154B1A6878
:10119000920610B50DD5144A5868117854784B1C36
:1011A000DBB2112B28BF00239C421EBF891813708D
:1011B00088700C490B681B0608D50C4A10785378C8
:1011C000984204D1CB6823F08003CB6010BD5378E4
:1011D000D0180133DBB2FB2B8078486028BF002396
:1011E0005370F3E70044004086120020991200205B
:1011F000034A002313705370024A137053707047F0
:101200008612002099120020704770470846FFF7A9
:10121000A7BF10B54C1E14F8013F2BB12078FFF783
:1012200075FF0028FAD0F6E710BD10B50C46204631
:10123000FFF76CFF0028FAD010BD10B5042104465A
:10124000FFF7DBF9204610BD37B54FF40060FFF71C
:10125000D3F84FF40064174D0723CDE900344FF461
:10126000A872022310210020FFF7DAF840F6E441CB
:101270002846FFF72FF9104A936823F4E05343F40C
:10128000A0539360936823F4604343F40043936056
:1012900021460220FFF7F8F8084B094A1D60094B68
:1012A0001A60094BA8221A80084B122201201A80CA
:1012B00003B030BD007A030A00380240540C00200D
:1012C00040900200500C00204E0C00204C0C0020DE
:1012D00008B5FFF7B9FF1148FFF748F9104B4FF079
:1012E00080729A611A6822F4403242F480321A60A5
:1012F0004FF480729A611A6822F4403242F48032CC
:101300001A601A6822F040621A605A6822F4005289
:101310005A609A6822F040629A6008BD3F900200CD
:10132000000802402DE9F041FFF7D2FF4FF480762C
:10133000094C0A25B0464FF08077C4F81880322057
:10134000A76100F03DF9A7613220A66100F038F9ED
:10135000013DF0D1FEE700BF0008024010B5074C88
:10136000074B0849084A23602046FFF744F9214605
:101370000648BDE81040FEF72CBF00BFA0130020B8
:101380005415000809120008E40B002098130020EF
:1013900070B50D4E0D4CA41BA4100025A54209D11B
:1013A0000B4E0C4CFFF72CF9A41BA4100025A542F2
:1013B00005D170BD56F8253098470135EEE756F84F
:1013C000253098470135F2E76C1500086C150008C8
:1013D0006C15000884150008024B01461868FFF7D9
:1013E00027B900BFE80B002038B50546002945D0D5
:1013F00051F8043C0C1F002BB8BFE41800F04AF869
:101400001F4A1368104633B9636014602846BDE86C
:10141000384000F040B8A3420CD9216862189342CA
:1014200004BF1A685B68636004BF521822600460DE
:10143000ECE713465A680AB1A242FAD9196858185B
:10144000A0420BD120680144581882421960DDD1B6
:10145000106852685A6001441960D7E702D90C231A
:101460002B60D3E7206821188A4204BF11685268B4
:10147000626004BF091821605C60C7E738BD00BF27
:10148000A4130020034613F8012B002AFBD1181ADD
:081490000138704770477047F6
:10149800002D3101005A62020087930300B4C4048E
:1014A80000E1F505000E2707003B58080068890988
:1014B800007A030A80B14F0100639F028014EF0392
:1014C80000C63E0580778E060029DE0780DA2D09E2
:1014D800008C7D0A0095BA0A00366E01006CDC02A9
:1014E80000A24A0400D8B805000E27070044950852
:1014F800007A030A0095BA0A80C3C90100879303DA
:10150800804A5D05000E270780D1F0080095BA0AC9
:10151800636F7265006865617000696E6974006365
:101528006F72650068656170007362726B00636F4B
:101538007265006E76696300756E646566696E65CE
:10154800640000000000000000000000091200080C
:101558003B1200082B120008131200080B12000897
:101568000D120008E1030008E50B00084D10000803
:0C157800F5100008F11100085D130008D8
:08158400B10400088D07000806
:10158C00034B08221B885A43801AC01AFDD570479A
:10159C004C0C002048B1054A054B12885968504341
:1015AC0019385A68521A8242FBDB70474E0C0020E5
:1015BC00001000E048B1054B054A1B6851685843C0
:1015CC00193853685B1A8342FBDB7047500C0020C0
:0415DC00001000E01B
:1015E000D1010008E40B0020EC0B002000000000FB
:1015F00000000000000000000000000000000000EB
:1016000000000000000000000000000000000000DA
:1016100000000000000000000000000000000000CA
:1016200000000000000000000000000000000000BA
:1016300000000000000000000000000000000000AA
:0C1640000000000000000000000000009E
:0C164C0077010800401F000000127A0027
:08165800580C0020A81300202B
:0C166000E0150008E00B00204C0C0020FE
:0C166C000F000000A81300200000022066
:04000005080006A148
:00000001FF
